Component: ARM Compiler 5.06 update 7 (build 960) Tool: armlink [4d3601]

==============================================================================

Section Cross References

    main.o(i.advertising_init) refers to memseta.o(.text) for __aeabi_memclr4
    main.o(i.advertising_init) refers to ble_advertising.o(i.ble_advertising_init) for ble_advertising_init
    main.o(i.advertising_init) refers to app_error.o(i.app_error_handler_bare) for app_error_handler_bare
    main.o(i.advertising_init) refers to ble_advertising.o(i.ble_advertising_conn_cfg_tag_set) for ble_advertising_conn_cfg_tag_set
    main.o(i.advertising_init) refers to main.o(.data) for m_adv_uuids
    main.o(i.advertising_init) refers to main.o(i.on_adv_evt) for on_adv_evt
    main.o(i.advertising_init) refers to main.o(.bss) for m_advertising
    main.o(i.advertising_start) refers to main.o(i.nrf_gpio_pin_write) for nrf_gpio_pin_write
    main.o(i.advertising_start) refers to ble_advertising.o(i.ble_advertising_start) for ble_advertising_start
    main.o(i.advertising_start) refers to app_error.o(i.app_error_handler_bare) for app_error_handler_bare
    main.o(i.advertising_start) refers to main.o(.bss) for m_advertising
    main.o(i.assert_nrf_callback) refers to app_error_handler_keil.o(.emb_text) for app_error_handler
    main.o(i.ble_evt_handler) refers to main.o(i.on_connected) for on_connected
    main.o(i.ble_evt_handler) refers to nrf_log_frontend.o(i.nrf_log_frontend_std_0) for nrf_log_frontend_std_0
    main.o(i.ble_evt_handler) refers to main.o(i.on_disconnect) for on_disconnect
    main.o(i.ble_evt_handler) refers to app_error.o(i.app_error_handler_bare) for app_error_handler_bare
    main.o(i.ble_evt_handler) refers to nrf_log_frontend.o(log_const_data) for m_nrf_log_app_logs_data_const
    main.o(i.ble_evt_handler) refers to main.o(.data) for m_conn_handle
==============================================================================

Removing Unused input sections from the image.

    Removing main.o(.rev16_text), (4 bytes).
    Removing main.o(.revsh_text), (4 bytes).
    Removing main.o(.rrx_text), (6 bytes).
    Removing main.o(i.assert_nrf_callback), (24 bytes).
    Removing main.o(i.bsp_event_handler), (116 bytes).
    Removing main.o(i.sleep_mode_enter), (76 bytes).
    Removing boards.o(.rev16_text), (4 bytes).
    Removing boards.o(.revsh_text), (4 bytes).
    Removing boards.o(.rrx_text), (6 bytes).
    Removing boards.o(i.bsp_board_button_idx_to_pin), (12 bytes).
    Removing boards.o(i.bsp_board_button_state_get), (48 bytes).
    Removing boards.o(i.bsp_board_buttons_init), (44 bytes).
    Removing boards.o(i.bsp_board_init), (26 bytes).
    Removing boards.o(i.bsp_board_led_idx_to_pin), (12 bytes).
    Removing boards.o(i.bsp_board_leds_init), (48 bytes).
    Removing boards.o(i.bsp_board_pin_to_led_idx), (36 bytes).
    Removing boards.o(i.nrf_gpio_cfg), (40 bytes).
    Removing bsp.o(.rev16_text), (4 bytes).
==============================================================================

Image Symbol Table

    Local Symbols

    Symbol Name                              Value     Ov Type        Size  Object(Section)

    ../clib/microlib/ctype/ctype.c           0x00000000   Number         0  isdigit_o.o ABSOLUTE
    ../clib/microlib/ctype/ctype.c           0x00000000   Number         0  isalpha_o.o ABSOLUTE
    ../clib/microlib/ctype/ctype.c           0x00000000   Number         0  isblank_o.o ABSOLUTE
    ../clib/microlib/ctype/ctype.c           0x00000000   Number         0  iscntrl_o.o ABSOLUTE
    ../clib/microlib/ctype/ctype.c           0x00000000   Number         0  isalnum_o.o ABSOLUTE
    ../clib/microlib/ctype/ctype.c           0x00000000   Number         0  ctype_o.o ABSOLUTE
    ../clib/microlib/ctype/ctype.c           0x00000000   Number         0  isgraph_o.o ABSOLUTE
    ../clib/microlib/ctype/ctype.c           0x00000000   Number         0  islower_o.o ABSOLUTE
    ../clib/microlib/ctype/ctype.c           0x00000000   Number         0  isprint_o.o ABSOLUTE
    ../clib/microlib/ctype/ctype.c           0x00000000   Number         0  ispunct_o.o ABSOLUTE
    ../clib/microlib/ctype/ctype.c           0x00000000   Number         0  isxdigit_o.o ABSOLUTE
    ../clib/microlib/ctype/ctype.c           0x00000000   Number         0  isspace_o.o ABSOLUTE
    ../clib/microlib/ctype/ctype.c           0x00000000   Number         0  isupper_o.o ABSOLUTE
    ../clib/microlib/division.c              0x00000000   Number         0  uidiv.o ABSOLUTE
    ../clib/microlib/division.c              0x00000000   Number         0  uldiv.o ABSOLUTE
    ../clib/microlib/init/entry.s            0x00000000   Number         0  entry8b.o ABSOLUTE
    ../clib/microlib/init/entry.s            0x00000000   Number         0  entry11a.o ABSOLUTE
    ../clib/microlib/init/entry.s            0x00000000   Number         0  entry9a.o ABSOLUTE
    ../clib/microlib/init/entry.s            0x00000000   Number         0  entry.o ABSOLUTE
    ../clib/microlib/init/entry.s            0x00000000   Number         0  entry9b.o ABSOLUTE
    ../clib/microlib/init/entry.s            0x00000000   Number         0  entry11b.o ABSOLUTE
    ../clib/microlib/init/entry.s            0x00000000   Number         0  entry12a.o ABSOLUTE
    ../clib/microlib/init/entry.s            0x00000000   Number         0  entry12b.o ABSOLUTE
    ../clib/microlib/init/entry.s            0x00000000   Number         0  entry2.o ABSOLUTE
    ../clib/microlib/init/entry.s            0x00000000   Number         0  entry5.o ABSOLUTE
    ../clib/microlib/init/entry.s            0x00000000   Number         0  entry7a.o ABSOLUTE
    ../clib/microlib/init/entry.s            0x00000000   Number         0  entry7b.o ABSOLUTE
    ../clib/microlib/init/entry.s            0x00000000   Number         0  entry8a.o ABSOLUTE
    ../clib/microlib/init/entry.s            0x00000000   Number         0  entry10b.o ABSOLUTE
    ../clib/microlib/init/entry.s            0x00000000   Number         0  entry10a.o ABSOLUTE
    ../clib/microlib/longlong.c              0x00000000   Number         0  llushr.o ABSOLUTE
    ../clib/microlib/longlong.c              0x00000000   Number         0  llsshr.o ABSOLUTE
    ../clib/microlib/longlong.c              0x00000000   Number         0  llshl.o ABSOLUTE
    ../clib/microlib/printf/printf.c         0x00000000   Number         0  printf3.o ABSOLUTE
    ../clib/microlib/printf/printf.c         0x00000000   Number         0  printfb.o ABSOLUTE
    ../clib/microlib/printf/printf.c         0x00000000   Number         0  printf7.o ABSOLUTE
    ../clib/microlib/printf/printf.c         0x00000000   Number         0  printf2.o ABSOLUTE
    ../clib/microlib/printf/printf.c         0x00000000   Number         0  printf1.o ABSOLUTE
    ../clib/microlib/printf/printf.c         0x00000000   Number         0  printf0.o ABSOLUTE
    ../clib/microlib/printf/printf.c         0x00000000   Number         0  printfa.o ABSOLUTE
    ../clib/microlib/printf/printf.c         0x00000000   Number         0  printf8.o ABSOLUTE
    ../clib/microlib/printf/printf.c         0x00000000   Number         0  printf6.o ABSOLUTE
    ../clib/microlib/printf/printf.c         0x00000000   Number         0  printf5.o ABSOLUTE
    ../clib/microlib/printf/printf.c         0x00000000   Number         0  printf4.o ABSOLUTE
    ../clib/microlib/printf/stubs.s          0x00000000   Number         0  stubs.o ABSOLUTE
    ../clib/microlib/string/memcmp.c         0x00000000   Number         0  memcmp.o ABSOLUTE
    ../clib/microlib/string/memcpy.c         0x00000000   Number         0  memcpyb.o ABSOLUTE
    ../clib/microlib/string/memcpy.c         0x00000000   Number         0  memcpya.o ABSOLUTE
    ../clib/microlib/string/memset.c         0x00000000   Number         0  memseta.o ABSOLUTE
    ../clib/microlib/string/strcpy.c         0x00000000   Number         0  strcpy.o ABSOLUTE
    ../clib/microlib/string/strlen.c         0x00000000   Number         0  strlen.o ABSOLUTE
    ../clib/microlib/stubs.s                 0x00000000   Number         0  iusefp.o ABSOLUTE
    ../fplib/microlib/fpadd.c                0x00000000   Number         0  dadd.o ABSOLUTE
    ../fplib/microlib/fpdiv.c                0x00000000   Number         0  ddiv.o ABSOLUTE
    ../fplib/microlib/fpepilogue.c           0x00000000   Number         0  depilogue.o ABSOLUTE
    ../fplib/microlib/fpfix.c                0x00000000   Number         0  dfixul.o ABSOLUTE
    ../fplib/microlib/fpmul.c                0x00000000   Number         0  dmul.o ABSOLUTE
    ..\..\..\..\..\..\components\ble\ble_advertising\ble_advertising.c 0x00000000   Number         0  ble_advertising.o ABSOLUTE
    ..\..\..\..\..\..\components\ble\ble_link_ctx_manager\ble_link_ctx_manager.c 0x00000000   Number         0  ble_link_ctx_manager.o ABSOLUTE
    ..\..\..\..\..\..\components\ble\ble_services\ble_nus\ble_nus.c 0x00000000   Number         0  ble_nus.o ABSOLUTE
    ..\..\..\..\..\..\components\ble\common\ble_advdata.c 0x00000000   Number         0  ble_advdata.o ABSOLUTE
    ..\..\..\..\..\..\components\ble\common\ble_conn_params.c 0x00000000   Number         0  ble_conn_params.o ABSOLUTE
    ..\..\..\..\..\..\components\ble\common\ble_conn_state.c 0x00000000   Number         0  ble_conn_state.o ABSOLUTE
    ..\..\..\..\..\..\components\ble\common\ble_srv_common.c 0x00000000   Number         0  ble_srv_common.o ABSOLUTE
    ..\..\..\..\..\..\components\ble\nrf_ble_gatt\nrf_ble_gatt.c 0x00000000   Number         0  nrf_ble_gatt.o ABSOLUTE
    ..\..\..\..\..\..\components\ble\nrf_ble_qwr\nrf_ble_qwr.c 0x00000000   Number         0  nrf_ble_qwr.o ABSOLUTE
    ..\..\..\..\..\..\components\boards\boards.c 0x00000000   Number         0  boards.o ABSOLUTE
    ..\..\..\..\..\..\components\libraries\atomic\nrf_atomic.c 0x00000000   Number         0  nrf_atomic.o ABSOLUTE
    ..\..\..\..\..\..\components\libraries\atomic_fifo\nrf_atfifo.c 0x00000000   Number         0  nrf_atfifo.o ABSOLUTE
    ..\..\..\..\..\..\components\libraries\atomic_flags\nrf_atflags.c 0x00000000   Number         0  nrf_atflags.o ABSOLUTE
    ..\..\..\..\..\..\components\libraries\balloc\nrf_balloc.c 0x00000000   Number         0  nrf_balloc.o ABSOLUTE
    ..\..\..\..\..\..\components\libraries\bsp\bsp.c 0x00000000   Number         0  bsp.o ABSOLUTE
    ..\..\..\..\..\..\components\libraries\bsp\bsp_btn_ble.c 0x00000000   Number         0  bsp_btn_ble.o ABSOLUTE
    ..\..\..\..\..\..\components\libraries\button\app_button.c 0x00000000   Number         0  app_button.o ABSOLUTE
    ..\..\..\..\..\..\components\libraries\experimental_section_vars\nrf_section_iter.c 0x00000000   Number         0  nrf_section_iter.o ABSOLUTE
    ..\..\..\..\..\..\components\libraries\fifo\app_fifo.c 0x00000000   Number         0  app_fifo.o ABSOLUTE
    ..\..\..\..\..\..\components\libraries\hardfault\hardfault_implementation.c 0x00000000   Number         0  hardfault_implementation.o ABSOLUTE
    ..\..\..\..\..\..\components\libraries\log\src\nrf_log_backend_rtt.c 0x00000000   Number         0  nrf_log_backend_rtt.o ABSOLUTE
    ..\..\..\..\..\..\components\libraries\log\src\nrf_log_backend_serial.c 0x00000000   Number         0  nrf_log_backend_serial.o ABSOLUTE
    ..\..\..\..\..\..\components\libraries\log\src\nrf_log_default_backends.c 0x00000000   Number         0  nrf_log_default_backends.o ABSOLUTE
    ..\..\..\..\..\..\components\libraries\log\src\nrf_log_frontend.c 0x00000000   Number         0  nrf_log_frontend.o ABSOLUTE
    ..\..\..\..\..\..\components\libraries\log\src\nrf_log_str_formatter.c 0x00000000   Number         0  nrf_log_str_formatter.o ABSOLUTE
    ..\..\..\..\..\..\components\libraries\memobj\nrf_memobj.c 0x00000000   Number         0  nrf_memobj.o ABSOLUTE
    ..\..\..\..\..\..\components\libraries\pwr_mgmt\nrf_pwr_mgmt.c 0x00000000   Number         0  nrf_pwr_mgmt.o ABSOLUTE
    ..\..\..\..\..\..\components\libraries\ringbuf\nrf_ringbuf.c 0x00000000   Number         0  nrf_ringbuf.o ABSOLUTE
    ..\..\..\..\..\..\components\libraries\scheduler\app_scheduler.c 0x00000000   Number         0  app_scheduler.o ABSOLUTE
    ..\..\..\..\..\..\components\libraries\sortlist\nrf_sortlist.c 0x00000000   Number         0  nrf_sortlist.o ABSOLUTE
    ..\..\..\..\..\..\components\libraries\strerror\nrf_strerror.c 0x00000000   Number         0  nrf_strerror.o ABSOLUTE
    ..\..\..\..\..\..\components\libraries\timer\app_timer2.c 0x00000000   Number         0  app_timer2.o ABSOLUTE
    ..\..\..\..\..\..\components\libraries\timer\drv_rtc.c 0x00000000   Number         0  drv_rtc.o ABSOLUTE
    ..\..\..\..\..\..\components\libraries\uart\app_uart_fifo.c 0x00000000   Number         0  app_uart_fifo.o ABSOLUTE
    ..\..\..\..\..\..\components\libraries\uart\retarget.c 0x00000000   Number         0  retarget.o ABSOLUTE
    ..\..\..\..\..\..\components\libraries\util\app_error.c 0x00000000   Number         0  app_error.o ABSOLUTE
    ..\..\..\..\..\..\components\libraries\util\app_error_handler_keil.c 0x00000000   Number         0  app_error_handler_keil.o ABSOLUTE
    ..\..\..\..\..\..\components\libraries\util\app_error_weak.c 0x00000000   Number         0  app_error_weak.o ABSOLUTE
    ..\..\..\..\..\..\components\libraries\util\app_util_platform.c 0x00000000   Number         0  app_util_platform.o ABSOLUTE
    ..\..\..\..\..\..\components\libraries\util\nrf_assert.c 0x00000000   Number         0  nrf_assert.o ABSOLUTE
    ..\..\..\..\..\..\components\softdevice\common\nrf_sdh.c 0x00000000   Number         0  nrf_sdh.o ABSOLUTE
    ..\..\..\..\..\..\components\softdevice\common\nrf_sdh_ble.c 0x00000000   Number         0  nrf_sdh_ble.o ABSOLUTE
    ..\..\..\..\..\..\components\softdevice\common\nrf_sdh_soc.c 0x00000000   Number         0  nrf_sdh_soc.o ABSOLUTE
    ..\..\..\..\..\..\external\fprintf\nrf_fprintf.c 0x00000000   Number         0  nrf_fprintf.o ABSOLUTE
    ..\..\..\..\..\..\external\fprintf\nrf_fprintf_format.c 0x00000000   Number         0  nrf_fprintf_format.o ABSOLUTE
    ..\..\..\..\..\..\external\segger_rtt\SEGGER_RTT.c 0x00000000   Number         0  segger_rtt.o ABSOLUTE
    ..\..\..\..\..\..\external\segger_rtt\SEGGER_RTT_Syscalls_KEIL.c 0x00000000   Number         0  segger_rtt_syscalls_keil.o ABSOLUTE
    ..\..\..\..\..\..\external\segger_rtt\SEGGER_RTT_printf.c 0x00000000   Number         0  segger_rtt_printf.o ABSOLUTE
    ..\..\..\..\..\..\external\utf_converter\utf.c 0x00000000   Number         0  utf.o ABSOLUTE
    ..\..\..\..\..\..\integration\nrfx\legacy\nrf_drv_clock.c 0x00000000   Number         0  nrf_drv_clock.o ABSOLUTE
    ..\..\..\..\..\..\integration\nrfx\legacy\nrf_drv_uart.c 0x00000000   Number         0  nrf_drv_uart.o ABSOLUTE
    ..\..\..\..\..\..\modules\nrfx\drivers\src\nrfx_clock.c 0x00000000   Number         0  nrfx_clock.o ABSOLUTE
    ..\..\..\..\..\..\modules\nrfx\drivers\src\nrfx_gpiote.c 0x00000000   Number         0  nrfx_gpiote.o ABSOLUTE
    ..\..\..\..\..\..\modules\nrfx\drivers\src\nrfx_uart.c 0x00000000   Number         0  nrfx_uart.o ABSOLUTE
    ..\..\..\..\..\..\modules\nrfx\drivers\src\nrfx_uarte.c 0x00000000   Number         0  nrfx_uarte.o ABSOLUTE
    ..\..\..\..\..\..\modules\nrfx\drivers\src\prs\nrfx_prs.c 0x00000000   Number         0  nrfx_prs.o ABSOLUTE
    ..\..\..\..\..\..\modules\nrfx\soc\nrfx_atomic.c 0x00000000   Number         0  nrfx_atomic.o ABSOLUTE
    ..\..\..\cus_service.c                   0x00000000   Number         0  cus_service.o ABSOLUTE
    ..\..\..\main.c                          0x00000000   Number         0  main.o ABSOLUTE
    ..\\..\\..\\..\\..\\..\\components\\ble\\ble_advertising\\ble_advertising.c 0x00000000   Number         0  ble_advertising.o ABSOLUTE
    ..\\..\\..\\..\\..\\..\\components\\ble\\ble_link_ctx_manager\\ble_link_ctx_manager.c 0x00000000   Number         0  ble_link_ctx_manager.o ABSOLUTE
    ..\\..\\..\\..\\..\\..\\components\\ble\\ble_services\\ble_nus\\ble_nus.c 0x00000000   Number         0  ble_nus.o ABSOLUTE
    ..\\..\\..\\..\\..\\..\\components\\ble\\common\\ble_advdata.c 0x00000000   Number         0  ble_advdata.o ABSOLUTE
    ..\\..\\..\\..\\..\\..\\components\\ble\\common\\ble_conn_params.c 0x00000000   Number         0  ble_conn_params.o ABSOLUTE
    ..\\..\\..\\..\\..\\..\\components\\ble\\common\\ble_conn_state.c 0x00000000   Number         0  ble_conn_state.o ABSOLUTE
    ..\\..\\..\\..\\..\\..\\components\\ble\\common\\ble_srv_common.c 0x00000000   Number         0  ble_srv_common.o ABSOLUTE
    ..\\..\\..\\..\\..\\..\\components\\ble\\nrf_ble_gatt\\nrf_ble_gatt.c 0x00000000   Number         0  nrf_ble_gatt.o ABSOLUTE
    ..\\..\\..\\..\\..\\..\\components\\ble\\nrf_ble_qwr\\nrf_ble_qwr.c 0x00000000   Number         0  nrf_ble_qwr.o ABSOLUTE
    ..\\..\\..\\..\\..\\..\\components\\boards\\boards.c 0x00000000   Number         0  boards.o ABSOLUTE
    ..\\..\\..\\..\\..\\..\\components\\libraries\\atomic\\nrf_atomic.c 0x00000000   Number         0  nrf_atomic.o ABSOLUTE
    ..\\..\\..\\..\\..\\..\\components\\libraries\\atomic_fifo\\nrf_atfifo.c 0x00000000   Number         0  nrf_atfifo.o ABSOLUTE
    ..\\..\\..\\..\\..\\..\\components\\libraries\\atomic_flags\\nrf_atflags.c 0x00000000   Number         0  nrf_atflags.o ABSOLUTE
    ..\\..\\..\\..\\..\\..\\components\\libraries\\balloc\\nrf_balloc.c 0x00000000   Number         0  nrf_balloc.o ABSOLUTE
    ..\\..\\..\\..\\..\\..\\components\\libraries\\bsp\\bsp.c 0x00000000   Number         0  bsp.o ABSOLUTE
    ..\\..\\..\\..\\..\\..\\components\\libraries\\bsp\\bsp_btn_ble.c 0x00000000   Number         0  bsp_btn_ble.o ABSOLUTE
    ..\\..\\..\\..\\..\\..\\components\\libraries\\button\\app_button.c 0x00000000   Number         0  app_button.o ABSOLUTE
    ..\\..\\..\\..\\..\\..\\components\\libraries\\experimental_section_vars\\nrf_section_iter.c 0x00000000   Number         0  nrf_section_iter.o ABSOLUTE
    ..\\..\\..\\..\\..\\..\\components\\libraries\\fifo\\app_fifo.c 0x00000000   Number         0  app_fifo.o ABSOLUTE
    ..\\..\\..\\..\\..\\..\\components\\libraries\\hardfault\\hardfault_implementation.c 0x00000000   Number         0  hardfault_implementation.o ABSOLUTE
    ..\\..\\..\\..\\..\\..\\components\\libraries\\log\\src\\nrf_log_backend_rtt.c 0x00000000   Number         0  nrf_log_backend_rtt.o ABSOLUTE
    ..\\..\\..\\..\\..\\..\\components\\libraries\\log\\src\\nrf_log_backend_serial.c 0x00000000   Number         0  nrf_log_backend_serial.o ABSOLUTE
    ..\\..\\..\\..\\..\\..\\components\\libraries\\log\\src\\nrf_log_default_backends.c 0x00000000   Number         0  nrf_log_default_backends.o ABSOLUTE
    ..\\..\\..\\..\\..\\..\\components\\libraries\\log\\src\\nrf_log_frontend.c 0x00000000   Number         0  nrf_log_frontend.o ABSOLUTE
    ..\\..\\..\\..\\..\\..\\components\\libraries\\log\\src\\nrf_log_str_formatter.c 0x00000000   Number         0  nrf_log_str_formatter.o ABSOLUTE
    ..\\..\\..\\..\\..\\..\\components\\libraries\\memobj\\nrf_memobj.c 0x00000000   Number         0  nrf_memobj.o ABSOLUTE
    ..\\..\\..\\..\\..\\..\\components\\libraries\\pwr_mgmt\\nrf_pwr_mgmt.c 0x00000000   Number         0  nrf_pwr_mgmt.o ABSOLUTE
    ..\\..\\..\\..\\..\\..\\components\\libraries\\ringbuf\\nrf_ringbuf.c 0x00000000   Number         0  nrf_ringbuf.o ABSOLUTE
    ..\\..\\..\\..\\..\\..\\components\\libraries\\scheduler\\app_scheduler.c 0x00000000   Number         0  app_scheduler.o ABSOLUTE
    ..\\..\\..\\..\\..\\..\\components\\libraries\\sortlist\\nrf_sortlist.c 0x00000000   Number         0  nrf_sortlist.o ABSOLUTE
    ..\\..\\..\\..\\..\\..\\components\\libraries\\strerror\\nrf_strerror.c 0x00000000   Number         0  nrf_strerror.o ABSOLUTE
    ..\\..\\..\\..\\..\\..\\components\\libraries\\timer\\app_timer2.c 0x00000000   Number         0  app_timer2.o ABSOLUTE
    ..\\..\\..\\..\\..\\..\\components\\libraries\\timer\\drv_rtc.c 0x00000000   Number         0  drv_rtc.o ABSOLUTE
    ..\\..\\..\\..\\..\\..\\components\\libraries\\uart\\app_uart_fifo.c 0x00000000   Number         0  app_uart_fifo.o ABSOLUTE
    ..\\..\\..\\..\\..\\..\\components\\libraries\\uart\\retarget.c 0x00000000   Number         0  retarget.o ABSOLUTE
    ..\\..\\..\\..\\..\\..\\components\\libraries\\util\\app_error.c 0x00000000   Number         0  app_error.o ABSOLUTE
    ..\\..\\..\\..\\..\\..\\components\\libraries\\util\\app_error_handler_keil.c 0x00000000   Number         0  app_error_handler_keil.o ABSOLUTE
    ..\\..\\..\\..\\..\\..\\components\\libraries\\util\\app_error_weak.c 0x00000000   Number         0  app_error_weak.o ABSOLUTE
    ..\\..\\..\\..\\..\\..\\components\\libraries\\util\\app_util_platform.c 0x00000000   Number         0  app_util_platform.o ABSOLUTE
    ..\\..\\..\\..\\..\\..\\components\\libraries\\util\\nrf_assert.c 0x00000000   Number         0  nrf_assert.o ABSOLUTE
    ..\\..\\..\\..\\..\\..\\components\\softdevice\\common\\nrf_sdh.c 0x00000000   Number         0  nrf_sdh.o ABSOLUTE
    ..\\..\\..\\..\\..\\..\\components\\softdevice\\common\\nrf_sdh_ble.c 0x00000000   Number         0  nrf_sdh_ble.o ABSOLUTE
    ..\\..\\..\\..\\..\\..\\components\\softdevice\\common\\nrf_sdh_soc.c 0x00000000   Number         0  nrf_sdh_soc.o ABSOLUTE
    ..\\..\\..\\..\\..\\..\\external\\fprintf\\nrf_fprintf.c 0x00000000   Number         0  nrf_fprintf.o ABSOLUTE
    ..\\..\\..\\..\\..\\..\\external\\fprintf\\nrf_fprintf_format.c 0x00000000   Number         0  nrf_fprintf_format.o ABSOLUTE
    ..\\..\\..\\..\\..\\..\\external\\segger_rtt\\SEGGER_RTT.c 0x00000000   Number         0  segger_rtt.o ABSOLUTE
    ..\\..\\..\\..\\..\\..\\external\\segger_rtt\\SEGGER_RTT_printf.c 0x00000000   Number         0  segger_rtt_printf.o ABSOLUTE
    ..\\..\\..\\..\\..\\..\\integration\\nrfx\\legacy\\nrf_drv_clock.c 0x00000000   Number         0  nrf_drv_clock.o ABSOLUTE
    ..\\..\\..\\..\\..\\..\\integration\\nrfx\\legacy\\nrf_drv_uart.c 0x00000000   Number         0  nrf_drv_uart.o ABSOLUTE
    ..\\..\\..\\..\\..\\..\\modules\\nrfx\\drivers\\src\\nrfx_clock.c 0x00000000   Number         0  nrfx_clock.o ABSOLUTE
    ..\\..\\..\\..\\..\\..\\modules\\nrfx\\drivers\\src\\nrfx_gpiote.c 0x00000000   Number         0  nrfx_gpiote.o ABSOLUTE
    ..\\..\\..\\..\\..\\..\\modules\\nrfx\\drivers\\src\\nrfx_uart.c 0x00000000   Number         0  nrfx_uart.o ABSOLUTE
    ..\\..\\..\\..\\..\\..\\modules\\nrfx\\drivers\\src\\nrfx_uarte.c 0x00000000   Number         0  nrfx_uarte.o ABSOLUTE
    ..\\..\\..\\..\\..\\..\\modules\\nrfx\\drivers\\src\\prs\\nrfx_prs.c 0x00000000   Number         0  nrfx_prs.o ABSOLUTE
    ..\\..\\..\\..\\..\\..\\modules\\nrfx\\soc\\nrfx_atomic.c 0x00000000   Number         0  nrfx_atomic.o ABSOLUTE
    ..\\..\\..\\cus_service.c                0x00000000   Number         0  cus_service.o ABSOLUTE
    ..\\..\\..\\main.c                       0x00000000   Number         0  main.o ABSOLUTE
    RTE\Device\nRF52832_xxAA\arm_startup_nrf52.s 0x00000000   Number         0  arm_startup_nrf52.o ABSOLUTE
    RTE\Device\nRF52832_xxAA\system_nrf52.c  0x00000000   Number         0  system_nrf52.o ABSOLUTE
    RTE\\Device\\nRF52832_xxAA\\system_nrf52.c 0x00000000   Number         0  system_nrf52.o ABSOLUTE
    cdrcmple.s                               0x00000000   Number         0  cdrcmple.o ABSOLUTE
    dc.s                                     0x00000000   Number         0  dc.o ABSOLUTE
    handlers.s                               0x00000000   Number         0  handlers.o ABSOLUTE
    init.s                                   0x00000000   Number         0  init.o ABSOLUTE
    RESET                                    0x00026000   Section      512  arm_startup_nrf52.o(RESET)
    .ARM.Collect$$$$00000000                 0x00026200   Section        0  entry.o(.ARM.Collect$$$$00000000)
    .ARM.Collect$$$$00000001                 0x00026200   Section        4  entry2.o(.ARM.Collect$$$$00000001)
    .ARM.Collect$$$$00000004                 0x00026204   Section        4  entry5.o(.ARM.Collect$$$$00000004)
    .ARM.Collect$$$$00000008                 0x00026208   Section        0  entry7b.o(.ARM.Collect$$$$00000008)
    .ARM.Collect$$$$0000000A                 0x00026208   Section        0  entry8b.o(.ARM.Collect$$$$0000000A)
    .ARM.Collect$$$$0000000B                 0x00026208   Section        8  entry9a.o(.ARM.Collect$$$$0000000B)
    .ARM.Collect$$$$0000000E                 0x00026210   Section        4  entry12b.o(.ARM.Collect$$$$0000000E)
    .ARM.Collect$$$$0000000F                 0x00026214   Section        0  entry10a.o(.ARM.Collect$$$$0000000F)
    .ARM.Collect$$$$00000011                 0x00026214   Section        0  entry11a.o(.ARM.Collect$$$$00000011)
    .ARM.Collect$$$$00002712                 0x00026214   Section        4  entry2.o(.ARM.Collect$$$$00002712)
    __lit__00000000                          0x00026214   Data           4  entry2.o(.ARM.Collect$$$$00002712)
    .emb_text                                0x00026218   Section      200  nrf_atfifo.o(.emb_text)
    $v0                                      0x00026218   Number         0  nrf_atfifo.o(.emb_text)
    .emb_text                                0x000262e0   Section      226  nrf_atomic.o(.emb_text)
    $v0                                      0x000262e0   Number         0  nrf_atomic.o(.emb_text)
    .text                                    0x000263c4   Section       36  arm_startup_nrf52.o(.text)
    $v0                                      0x000263c4   Number         0  arm_startup_nrf52.o(.text)
    .text                                    0x000263e8   Section        0  uldiv.o(.text)
    .text                                    0x0002644a   Section        0  llshl.o(.text)
    .text                                    0x00026468   Section        0  ctype_o.o(.text)
    .text                                    0x00026470   Section        0  memcpya.o(.text)
    .text                                    0x00026494   Section        0  memseta.o(.text)
    .text                                    0x000264b8   Section        0  strlen.o(.text)
    .text                                    0x000264c6   Section        0  strcpy.o(.text)
    .text                                    0x000264d8   Section        0  llushr.o(.text)
    .text                                    0x000264f8   Section       36  init.o(.text)
    i.GPIOTE_IRQHandler                      0x0002651c   Section        0  nrfx_gpiote.o(i.GPIOTE_IRQHandler)
    i.POWER_CLOCK_IRQHandler                 0x000265d8   Section        0  nrfx_clock.o(i.POWER_CLOCK_IRQHandler)
    i.RTC1_IRQHandler                        0x0002662c   Section        0  drv_rtc.o(i.RTC1_IRQHandler)
    i.SEGGER_RTT_Init                        0x00026644   Section        0  segger_rtt.o(i.SEGGER_RTT_Init)
    i.SEGGER_RTT_WriteNoLock                 0x0002664c   Section        0  segger_rtt.o(i.SEGGER_RTT_WriteNoLock)
    i.SWI2_EGU2_IRQHandler                   0x000266d0   Section        0  nrf_sdh.o(i.SWI2_EGU2_IRQHandler)
    i.SystemCoreClockUpdate                  0x000266d8   Section        0  system_nrf52.o(i.SystemCoreClockUpdate)
    i.SystemInit                             0x000266e8   Section        0  system_nrf52.o(i.SystemInit)
    i.UARTE0_UART0_IRQHandler                0x000267a4   Section        0  nrfx_prs.o(i.UARTE0_UART0_IRQHandler)
    i._DoInit                                0x000267b4   Section        0  segger_rtt.o(i._DoInit)
    _DoInit                                  0x000267b5   Thumb Code    74  segger_rtt.o(i._DoInit)
    i._GetAvailWriteSpace                    0x00026824   Section        0  segger_rtt.o(i._GetAvailWriteSpace)
    _GetAvailWriteSpace                      0x00026825   Thumb Code    28  segger_rtt.o(i._GetAvailWriteSpace)
    i._WriteBlocking                         0x00026840   Section        0  segger_rtt.o(i._WriteBlocking)
    _WriteBlocking                           0x00026841   Thumb Code   114  segger_rtt.o(i._WriteBlocking)
    i._WriteNoCheck                          0x000268b2   Section        0  segger_rtt.o(i._WriteNoCheck)
    _WriteNoCheck                            0x000268b3   Thumb Code    76  segger_rtt.o(i._WriteNoCheck)
    i.__0printf$2                            0x00026900   Section        0  printf2.o(i.__0printf$2)
    i.__scatterload_copy                     0x00026920   Section       14  handlers.o(i.__scatterload_copy)
    i.__scatterload_null                     0x0002692e   Section        2  handlers.o(i.__scatterload_null)
    i.__scatterload_zeroinit                 0x00026930   Section       14  handlers.o(i.__scatterload_zeroinit)
    i.__sd_nvic_app_accessible_irq           0x00026940   Section        0  nrf_sdh.o(i.__sd_nvic_app_accessible_irq)
    __sd_nvic_app_accessible_irq             0x00026941   Thumb Code    52  nrf_sdh.o(i.__sd_nvic_app_accessible_irq)
    i.__sd_nvic_irq_disable                  0x00026978   Section        0  app_util_platform.o(i.__sd_nvic_irq_disable)
    __sd_nvic_irq_disable                    0x00026979   Thumb Code    12  app_util_platform.o(i.__sd_nvic_irq_disable)
    i._printf_core                           0x00026984   Section        0  printf2.o(i._printf_core)
    _printf_core                             0x00026985   Thumb Code   214  printf2.o(i._printf_core)
    i.active_flag_count                      0x00026a5a   Section        0  ble_conn_state.o(i.active_flag_count)
    i.addr_is_valid                          0x00026a78   Section        0  ble_advertising.o(i.addr_is_valid)
    addr_is_valid                            0x00026a79   Thumb Code    24  ble_advertising.o(i.addr_is_valid)
    i.adv_mode_next_avail_get                0x00026a90   Section        0  ble_advertising.o(i.adv_mode_next_avail_get)
    adv_mode_next_avail_get                  0x00026a91   Thumb Code    88  ble_advertising.o(i.adv_mode_next_avail_get)
    i.adv_mode_next_get                      0x00026ae8   Section        0  ble_advertising.o(i.adv_mode_next_get)
    adv_mode_next_get                        0x00026ae9   Thumb Code    18  ble_advertising.o(i.adv_mode_next_get)
    i.adv_set_data_size_max_get              0x00026afa   Section        0  ble_advertising.o(i.adv_set_data_size_max_get)
    adv_set_data_size_max_get                0x00026afb   Thumb Code    18  ble_advertising.o(i.adv_set_data_size_max_get)
    i.advertising_buttons_configure          0x00026b0c   Section        0  bsp_btn_ble.o(i.advertising_buttons_configure)
    advertising_buttons_configure            0x00026b0d   Thumb Code    84  bsp_btn_ble.o(i.advertising_buttons_configure)
    i.advertising_init                       0x00026b60   Section        0  main.o(i.advertising_init)
    advertising_init                         0x00026b61   Thumb Code   100  main.o(i.advertising_init)
    i.advertising_start                      0x00026bd0   Section        0  main.o(i.advertising_start)
    advertising_start                        0x00026bd1   Thumb Code    48  main.o(i.advertising_start)
    i.app_error_fault_handler                0x00026c04   Section        0  app_error_weak.o(i.app_error_fault_handler)
    i.app_error_handler_bare                 0x00026cc4   Section        0  app_error.o(i.app_error_handler_bare)
    i.app_fifo_get                           0x00026ce0   Section        0  app_fifo.o(i.app_fifo_get)
    i.app_fifo_init                          0x00026cfe   Section        0  app_fifo.o(i.app_fifo_init)
    i.app_fifo_put                           0x00026d22   Section        0  app_fifo.o(i.app_fifo_put)
    i.app_timer_cnt_get                      0x00026d44   Section        0  app_timer2.o(i.app_timer_cnt_get)
    i.app_timer_create                       0x00026d54   Section        0  app_timer2.o(i.app_timer_create)
    i.app_timer_init                         0x00026d74   Section        0  app_timer2.o(i.app_timer_init)
    i.app_timer_start                        0x00026de0   Section        0  app_timer2.o(i.app_timer_start)
    i.app_timer_stop                         0x00026e16   Section        0  app_timer2.o(i.app_timer_stop)
    i.app_uart_get                           0x00026e2c   Section        0  app_uart_fifo.o(i.app_uart_get)
    i.app_uart_init                          0x00026e80   Section        0  app_uart_fifo.o(i.app_uart_init)
    i.app_uart_put                           0x00026f5c   Section        0  app_uart_fifo.o(i.app_uart_put)
    i.app_util_critical_region_enter         0x00026fc8   Section        0  app_util_platform.o(i.app_util_critical_region_enter)
    i.app_util_critical_region_exit          0x00026fd4   Section        0  app_util_platform.o(i.app_util_critical_region_exit)
    i.appearance_encode                      0x0002701c   Section        0  ble_advdata.o(i.appearance_encode)
    appearance_encode                        0x0002701d   Thumb Code    82  ble_advdata.o(i.appearance_encode)
    i.apply_config                           0x0002706e   Section        0  nrfx_uart.o(i.apply_config)
    apply_config                             0x0002706f   Thumb Code   124  nrfx_uart.o(i.apply_config)
    i.apply_config                           0x000270ea   Section        0  nrfx_uarte.o(i.apply_config)
    apply_config                             0x000270eb   Thumb Code   124  nrfx_uarte.o(i.apply_config)
    i.backend_id_assign                      0x00027168   Section        0  nrf_log_frontend.o(i.backend_id_assign)
    backend_id_assign                        0x00027169   Thumb Code    56  nrf_log_frontend.o(i.backend_id_assign)
    i.ble_advdata_encode                     0x000271a4   Section        0  ble_advdata.o(i.ble_advdata_encode)
    i.ble_advdata_parse                      0x00027310   Section        0  ble_advdata.o(i.ble_advdata_parse)
    i.ble_advdata_search                     0x00027338   Section        0  ble_advdata.o(i.ble_advdata_search)
    i.ble_advertising_conn_cfg_tag_set       0x00027394   Section        0  ble_advertising.o(i.ble_advertising_conn_cfg_tag_set)
    i.ble_advertising_init                   0x0002739a   Section        0  ble_advertising.o(i.ble_advertising_init)
    i.ble_advertising_on_ble_evt             0x000274a2   Section        0  ble_advertising.o(i.ble_advertising_on_ble_evt)
    i.ble_advertising_start                  0x000274de   Section        0  ble_advertising.o(i.ble_advertising_start)
    i.ble_conn_params_init                   0x00027654   Section        0  ble_conn_params.o(i.ble_conn_params_init)
    i.ble_conn_state_periph_handles          0x000276f0   Section        0  ble_conn_state.o(i.ble_conn_state_periph_handles)
    i.ble_conn_state_peripheral_conn_count   0x00027714   Section        0  ble_conn_state.o(i.ble_conn_state_peripheral_conn_count)
    i.ble_cus_data_send                      0x00027734   Section        0  cus_service.o(i.ble_cus_data_send)
    i.ble_cus_init                           0x00027768   Section        0  cus_service.o(i.ble_cus_init)
    i.ble_cus_on_ble_evt                     0x00027894   Section        0  cus_service.o(i.ble_cus_on_ble_evt)
    i.ble_device_addr_encode                 0x000278c2   Section        0  ble_advdata.o(i.ble_device_addr_encode)
    ble_device_addr_encode                   0x000278c3   Thumb Code   118  ble_advdata.o(i.ble_device_addr_encode)
    i.ble_evt_handler                        0x00027938   Section        0  main.o(i.ble_evt_handler)
    ble_evt_handler                          0x00027939   Thumb Code   248  main.o(i.ble_evt_handler)
    i.ble_evt_handler                        0x00027a4c   Section        0  bsp_btn_ble.o(i.ble_evt_handler)
    ble_evt_handler                          0x00027a4d   Thumb Code   112  bsp_btn_ble.o(i.ble_evt_handler)
    i.ble_evt_handler                        0x00027ac4   Section        0  ble_conn_params.o(i.ble_evt_handler)
    ble_evt_handler                          0x00027ac5   Thumb Code    64  ble_conn_params.o(i.ble_evt_handler)
    i.ble_evt_handler                        0x00027b04   Section        0  ble_conn_state.o(i.ble_evt_handler)
    ble_evt_handler                          0x00027b05   Thumb Code   180  ble_conn_state.o(i.ble_evt_handler)
    i.ble_srv_is_notification_enabled        0x00027bbc   Section        0  ble_srv_common.o(i.ble_srv_is_notification_enabled)
    i.ble_stack_init                         0x00027bce   Section        0  main.o(i.ble_stack_init)
    ble_stack_init                           0x00027bcf   Thumb Code    86  main.o(i.ble_stack_init)
    i.bsp_board_led_invert                   0x00027c24   Section        0  boards.o(i.bsp_board_led_invert)
    i.bsp_board_led_off                      0x00027c54   Section        0  boards.o(i.bsp_board_led_off)
    i.bsp_board_led_on                       0x00027c68   Section        0  boards.o(i.bsp_board_led_on)
    i.bsp_board_led_state_get                0x00027c7c   Section        0  boards.o(i.bsp_board_led_state_get)
    i.bsp_board_leds_off                     0x00027cac   Section        0  boards.o(i.bsp_board_leds_off)
    i.bsp_board_leds_on                      0x00027cc0   Section        0  boards.o(i.bsp_board_leds_on)
    i.bsp_board_pin_to_button_idx            0x00027cd4   Section        0  boards.o(i.bsp_board_pin_to_button_idx)
    i.bsp_button_event_handler               0x00027cf8   Section        0  bsp.o(i.bsp_button_event_handler)
    bsp_button_event_handler                 0x00027cf9   Thumb Code   176  bsp.o(i.bsp_button_event_handler)
    i.bsp_event_to_button_action_assign      0x00027dbc   Section        0  bsp.o(i.bsp_event_to_button_action_assign)
    i.bsp_indication_set                     0x00027e18   Section        0  bsp.o(i.bsp_indication_set)
    i.bsp_led_indication                     0x00027e38   Section        0  bsp.o(i.bsp_led_indication)
    bsp_led_indication                       0x00027e39   Thumb Code   882  bsp.o(i.bsp_led_indication)
    i.buf_prealloc                           0x000281c0   Section        0  nrf_log_frontend.o(i.buf_prealloc)
    buf_prealloc                             0x000281c1   Thumb Code   220  nrf_log_frontend.o(i.buf_prealloc)
    i.buffer_add                             0x000282a8   Section        0  nrf_fprintf_format.o(i.buffer_add)
    buffer_add                               0x000282a9   Thumb Code    44  nrf_fprintf_format.o(i.buffer_add)
    i.buffer_is_empty                        0x000282d4   Section        0  nrf_log_frontend.o(i.buffer_is_empty)
    i.buttons_leds_init                      0x000282ec   Section        0  main.o(i.buttons_leds_init)
    buttons_leds_init                        0x000282ed   Thumb Code    34  main.o(i.buttons_leds_init)
    i.channel_handler_get                    0x00028310   Section        0  nrfx_gpiote.o(i.channel_handler_get)
    channel_handler_get                      0x00028311   Thumb Code    10  nrfx_gpiote.o(i.channel_handler_get)
    i.channel_port_get                       0x00028320   Section        0  nrfx_gpiote.o(i.channel_port_get)
    channel_port_get                         0x00028321   Thumb Code     8  nrfx_gpiote.o(i.channel_port_get)
    i.characteristic_add                     0x0002832c   Section        0  ble_srv_common.o(i.characteristic_add)
    i.clock_clk_started_notify               0x000284f4   Section        0  nrf_drv_clock.o(i.clock_clk_started_notify)
    clock_clk_started_notify                 0x000284f5   Thumb Code    42  nrf_drv_clock.o(i.clock_clk_started_notify)
    i.clock_irq_handler                      0x00028524   Section        0  nrf_drv_clock.o(i.clock_irq_handler)
    clock_irq_handler                        0x00028525   Thumb Code    34  nrf_drv_clock.o(i.clock_irq_handler)
    i.compare_func                           0x0002854c   Section        0  app_timer2.o(i.compare_func)
    compare_func                             0x0002854d   Thumb Code    38  app_timer2.o(i.compare_func)
    i.config_is_valid                        0x00028572   Section        0  ble_advertising.o(i.config_is_valid)
    config_is_valid                          0x00028573   Thumb Code    40  ble_advertising.o(i.config_is_valid)
    i.conn_handle_list_get                   0x0002859a   Section        0  ble_conn_state.o(i.conn_handle_list_get)
    i.conn_int_check                         0x000285d6   Section        0  ble_advdata.o(i.conn_int_check)
    conn_int_check                           0x000285d7   Thumb Code    90  ble_advdata.o(i.conn_int_check)
    i.conn_int_encode                        0x00028630   Section        0  ble_advdata.o(i.conn_int_encode)
    conn_int_encode                          0x00028631   Thumb Code   104  ble_advdata.o(i.conn_int_encode)
    i.conn_params_error_handler              0x00028698   Section        0  main.o(i.conn_params_error_handler)
    conn_params_error_handler                0x00028699   Thumb Code    16  main.o(i.conn_params_error_handler)
    i.conn_params_init                       0x000286a8   Section        0  main.o(i.conn_params_init)
    conn_params_init                         0x000286a9   Thumb Code    82  main.o(i.conn_params_init)
    i.conn_params_negotiation                0x00028704   Section        0  ble_conn_params.o(i.conn_params_negotiation)
    conn_params_negotiation                  0x00028705   Thumb Code    78  ble_conn_params.o(i.conn_params_negotiation)
    i.connection_buttons_configure           0x00028758   Section        0  bsp_btn_ble.o(i.connection_buttons_configure)
    connection_buttons_configure             0x00028759   Thumb Code    84  bsp_btn_ble.o(i.connection_buttons_configure)
    i.cus_data_handler                       0x000287ac   Section        0  main.o(i.cus_data_handler)
    cus_data_handler                         0x000287ad   Thumb Code   144  main.o(i.cus_data_handler)
    i.data_length_update                     0x00028898   Section        0  nrf_ble_gatt.o(i.data_length_update)
    data_length_update                       0x00028899   Thumb Code   150  nrf_ble_gatt.o(i.data_length_update)
    i.dropped_sat16_get                      0x00028980   Section        0  nrf_log_frontend.o(i.dropped_sat16_get)
    dropped_sat16_get                        0x00028981   Thumb Code    18  nrf_log_frontend.o(i.dropped_sat16_get)
    i.drv_rtc_compare_disable                0x00028998   Section        0  drv_rtc.o(i.drv_rtc_compare_disable)
    i.drv_rtc_compare_pending                0x000289ae   Section        0  drv_rtc.o(i.drv_rtc_compare_pending)
    i.drv_rtc_compare_set                    0x000289c8   Section        0  drv_rtc.o(i.drv_rtc_compare_set)
    i.drv_rtc_counter_get                    0x00028a24   Section        0  drv_rtc.o(i.drv_rtc_counter_get)
    i.drv_rtc_init                           0x00028a30   Section        0  drv_rtc.o(i.drv_rtc_init)
    i.drv_rtc_irq_trigger                    0x00028b58   Section        0  drv_rtc.o(i.drv_rtc_irq_trigger)
    i.drv_rtc_overflow_enable                0x00028b7c   Section        0  drv_rtc.o(i.drv_rtc_overflow_enable)
    i.drv_rtc_overflow_pending               0x00028b8e   Section        0  drv_rtc.o(i.drv_rtc_overflow_pending)
    i.drv_rtc_start                          0x00028b9e   Section        0  drv_rtc.o(i.drv_rtc_start)
    i.drv_rtc_stop                           0x00028bac   Section        0  drv_rtc.o(i.drv_rtc_stop)
    i.drv_rtc_windowed_compare_set           0x00028bba   Section        0  drv_rtc.o(i.drv_rtc_windowed_compare_set)
    i.evt_disable                            0x00028cb6   Section        0  drv_rtc.o(i.evt_disable)
    evt_disable                              0x00028cb7   Thumb Code    24  drv_rtc.o(i.evt_disable)
    i.evt_enable                             0x00028cce   Section        0  drv_rtc.o(i.evt_enable)
    evt_enable                               0x00028ccf   Thumb Code    28  drv_rtc.o(i.evt_enable)
    i.evt_pending                            0x00028cea   Section        0  drv_rtc.o(i.evt_pending)
    evt_pending                              0x00028ceb   Thumb Code    28  drv_rtc.o(i.evt_pending)
    i.fifo_get                               0x00028d06   Section        0  app_fifo.o(i.fifo_get)
    fifo_get                                 0x00028d07   Thumb Code    24  app_fifo.o(i.fifo_get)
    i.fifo_length                            0x00028d1e   Section        0  app_fifo.o(i.fifo_length)
    fifo_length                              0x00028d1f   Thumb Code    10  app_fifo.o(i.fifo_length)
    i.fifo_length                            0x00028d28   Section        0  app_uart_fifo.o(i.fifo_length)
    fifo_length                              0x00028d29   Thumb Code    10  app_uart_fifo.o(i.fifo_length)
    i.fifo_peek                              0x00028d32   Section        0  app_fifo.o(i.fifo_peek)
    fifo_peek                                0x00028d33   Thumb Code    18  app_fifo.o(i.fifo_peek)
    i.fifo_put                               0x00028d44   Section        0  app_fifo.o(i.fifo_put)
    fifo_put                                 0x00028d45   Thumb Code    18  app_fifo.o(i.fifo_put)
    i.flag_toggle                            0x00028d56   Section        0  ble_conn_state.o(i.flag_toggle)
    flag_toggle                              0x00028d57   Thumb Code    30  ble_conn_state.o(i.flag_toggle)
    i.flags_encode                           0x00028d74   Section        0  ble_advdata.o(i.flags_encode)
    flags_encode                             0x00028d75   Thumb Code    54  ble_advdata.o(i.flags_encode)
    i.flags_set                              0x00028daa   Section        0  ble_advertising.o(i.flags_set)
    flags_set                                0x00028dab   Thumb Code    44  ble_advertising.o(i.flags_set)
    i.fputc                                  0x00028dd6   Section        0  retarget.o(i.fputc)
    i.gap_params_init                        0x00028de8   Section        0  main.o(i.gap_params_init)
    gap_params_init                          0x00028de9   Thumb Code   116  main.o(i.gap_params_init)
    i.gatt_evt_handler                       0x00028e68   Section        0  main.o(i.gatt_evt_handler)
    i.gatt_init                              0x00028ed4   Section        0  main.o(i.gatt_init)
    i.get_now                                0x00028f18   Section        0  app_timer2.o(i.get_now)
    get_now                                  0x00028f19   Thumb Code    46  app_timer2.o(i.get_now)
    i.idle_state_handle                      0x00028f54   Section        0  main.o(i.idle_state_handle)
    idle_state_handle                        0x00028f55   Thumb Code    14  main.o(i.idle_state_handle)
    i.instance_get                           0x00028f64   Section        0  ble_conn_params.o(i.instance_get)
    instance_get                             0x00028f65   Thumb Code    40  ble_conn_params.o(i.instance_get)
    i.int_print                              0x00028f90   Section        0  nrf_fprintf_format.o(i.int_print)
    int_print                                0x00028f91   Thumb Code   190  nrf_fprintf_format.o(i.int_print)
    i.interrupts_enable                      0x00029050   Section        0  nrfx_uart.o(i.interrupts_enable)
    interrupts_enable                        0x00029051   Thumb Code   136  nrfx_uart.o(i.interrupts_enable)
    i.interrupts_enable                      0x000290e4   Section        0  nrfx_uarte.o(i.interrupts_enable)
    interrupts_enable                        0x000290e5   Thumb Code   166  nrfx_uarte.o(i.interrupts_enable)
    i.invalid_packets_omit                   0x00029198   Section        0  nrf_log_frontend.o(i.invalid_packets_omit)
    invalid_packets_omit                     0x00029199   Thumb Code    70  nrf_log_frontend.o(i.invalid_packets_omit)
    i.is_conn_params_ok                      0x000291de   Section        0  ble_conn_params.o(i.is_conn_params_ok)
    is_conn_params_ok                        0x000291df   Thumb Code   114  ble_conn_params.o(i.is_conn_params_ok)
    i.item_dequeue                           0x00029250   Section        0  nrf_drv_clock.o(i.item_dequeue)
    item_dequeue                             0x00029251   Thumb Code    12  nrf_drv_clock.o(i.item_dequeue)
    i.latch_pending_read_and_check           0x0002925c   Section        0  nrfx_gpiote.o(i.latch_pending_read_and_check)
    latch_pending_read_and_check             0x0002925d   Thumb Code    38  nrfx_gpiote.o(i.latch_pending_read_and_check)
    i.leds_off                               0x00029284   Section        0  bsp.o(i.leds_off)
    leds_off                                 0x00029285   Thumb Code    36  bsp.o(i.leds_off)
    i.lfclk_stop                             0x000292ac   Section        0  nrf_drv_clock.o(i.lfclk_stop)
    lfclk_stop                               0x000292ad   Thumb Code    20  nrf_drv_clock.o(i.lfclk_stop)
    i.link_init                              0x000292c4   Section        0  nrf_ble_gatt.o(i.link_init)
    link_init                                0x000292c5   Thumb Code    24  nrf_ble_gatt.o(i.link_init)
    i.log_init                               0x000292dc   Section        0  main.o(i.log_init)
    log_init                                 0x000292dd   Thumb Code    38  main.o(i.log_init)
    i.log_skip                               0x00029304   Section        0  nrf_log_frontend.o(i.log_skip)
    log_skip                                 0x00029305   Thumb Code   190  nrf_log_frontend.o(i.log_skip)
    i.main                                   0x000293d0   Section        0  main.o(i.main)
    i.manuf_specific_data_encode             0x00029470   Section        0  ble_advdata.o(i.manuf_specific_data_encode)
    manuf_specific_data_encode               0x00029471   Thumb Code   118  ble_advdata.o(i.manuf_specific_data_encode)
    i.memobj_op                              0x000294e6   Section        0  nrf_memobj.o(i.memobj_op)
    memobj_op                                0x000294e7   Thumb Code   202  nrf_memobj.o(i.memobj_op)
    i.module_idx_get                         0x000295b0   Section        0  nrf_log_frontend.o(i.module_idx_get)
    module_idx_get                           0x000295b1   Thumb Code    52  nrf_log_frontend.o(i.module_idx_get)
    i.name_encode                            0x000295e8   Section        0  ble_advdata.o(i.name_encode)
    name_encode                              0x000295e9   Thumb Code   200  ble_advdata.o(i.name_encode)
    i.nrf_atfifo_init                        0x000296b0   Section        0  nrf_atfifo.o(i.nrf_atfifo_init)
    i.nrf_atfifo_item_alloc                  0x000296d8   Section        0  nrf_atfifo.o(i.nrf_atfifo_item_alloc)
    i.nrf_atfifo_item_free                   0x000296f4   Section        0  nrf_atfifo.o(i.nrf_atfifo_item_free)
    i.nrf_atfifo_item_get                    0x00029710   Section        0  nrf_atfifo.o(i.nrf_atfifo_item_get)
    i.nrf_atfifo_item_put                    0x0002972c   Section        0  nrf_atfifo.o(i.nrf_atfifo_item_put)
    i.nrf_atflags_clear                      0x00029748   Section        0  nrf_atflags.o(i.nrf_atflags_clear)
    i.nrf_atflags_get                        0x00029766   Section        0  nrf_atflags.o(i.nrf_atflags_get)
    i.nrf_atflags_set                        0x00029784   Section        0  nrf_atflags.o(i.nrf_atflags_set)
    i.nrf_atomic_flag_clear_fetch            0x000297a2   Section        0  nrf_atomic.o(i.nrf_atomic_flag_clear_fetch)
    i.nrf_atomic_flag_set                    0x000297b0   Section        0  nrf_atomic.o(i.nrf_atomic_flag_set)
    i.nrf_atomic_u32_add                     0x000297be   Section        0  nrf_atomic.o(i.nrf_atomic_u32_add)
    i.nrf_atomic_u32_and                     0x000297d4   Section        0  nrf_atomic.o(i.nrf_atomic_u32_and)
    i.nrf_atomic_u32_fetch_and               0x000297ea   Section        0  nrf_atomic.o(i.nrf_atomic_u32_fetch_and)
    i.nrf_atomic_u32_fetch_store             0x00029800   Section        0  nrf_atomic.o(i.nrf_atomic_u32_fetch_store)
    i.nrf_atomic_u32_or                      0x00029816   Section        0  nrf_atomic.o(i.nrf_atomic_u32_or)
    i.nrf_atomic_u32_sub                     0x0002982c   Section        0  nrf_atomic.o(i.nrf_atomic_u32_sub)
    i.nrf_balloc_alloc                       0x00029842   Section        0  nrf_balloc.o(i.nrf_balloc_alloc)
    i.nrf_balloc_block2idx                   0x00029894   Section        0  nrf_balloc.o(i.nrf_balloc_block2idx)
    nrf_balloc_block2idx                     0x00029895   Thumb Code    16  nrf_balloc.o(i.nrf_balloc_block2idx)
    i.nrf_balloc_free                        0x000298a4   Section        0  nrf_balloc.o(i.nrf_balloc_free)
    i.nrf_balloc_idx2block                   0x000298d4   Section        0  nrf_balloc.o(i.nrf_balloc_idx2block)
    nrf_balloc_idx2block                     0x000298d5   Thumb Code    12  nrf_balloc.o(i.nrf_balloc_idx2block)
    i.nrf_balloc_init                        0x000298e0   Section        0  nrf_balloc.o(i.nrf_balloc_init)
    i.nrf_bitmask_bit_is_set                 0x0002991c   Section        0  nrfx_gpiote.o(i.nrf_bitmask_bit_is_set)
    nrf_bitmask_bit_is_set                   0x0002991d   Thumb Code    22  nrfx_gpiote.o(i.nrf_bitmask_bit_is_set)
    i.nrf_ble_gatt_att_mtu_periph_set        0x00029932   Section        0  nrf_ble_gatt.o(i.nrf_ble_gatt_att_mtu_periph_set)
    i.nrf_ble_gatt_init                      0x00029950   Section        0  nrf_ble_gatt.o(i.nrf_ble_gatt_init)
    i.nrf_ble_gatt_on_ble_evt                0x00029984   Section        0  nrf_ble_gatt.o(i.nrf_ble_gatt_on_ble_evt)
    i.nrf_ble_qwr_conn_handle_assign         0x00029a8c   Section        0  nrf_ble_qwr.o(i.nrf_ble_qwr_conn_handle_assign)
    i.nrf_ble_qwr_init                       0x00029aac   Section        0  nrf_ble_qwr.o(i.nrf_ble_qwr_init)
    i.nrf_ble_qwr_on_ble_evt                 0x00029ade   Section        0  nrf_ble_qwr.o(i.nrf_ble_qwr_on_ble_evt)
    i.nrf_clock_event_check                  0x00029b5a   Section        0  nrfx_clock.o(i.nrf_clock_event_check)
    nrf_clock_event_check                    0x00029b5b   Thumb Code    18  nrfx_clock.o(i.nrf_clock_event_check)
    i.nrf_clock_event_clear                  0x00029b6c   Section        0  nrfx_clock.o(i.nrf_clock_event_clear)
    nrf_clock_event_clear                    0x00029b6d   Thumb Code    18  nrfx_clock.o(i.nrf_clock_event_clear)
    i.nrf_clock_int_disable                  0x00029b80   Section        0  nrfx_clock.o(i.nrf_clock_int_disable)
    nrf_clock_int_disable                    0x00029b81   Thumb Code     6  nrfx_clock.o(i.nrf_clock_int_disable)
    i.nrf_clock_task_trigger                 0x00029b8c   Section        0  nrfx_clock.o(i.nrf_clock_task_trigger)
    nrf_clock_task_trigger                   0x00029b8d   Thumb Code     8  nrfx_clock.o(i.nrf_clock_task_trigger)
    i.nrf_drv_clock_init                     0x00029b94   Section        0  nrf_drv_clock.o(i.nrf_drv_clock_init)
    i.nrf_drv_clock_lfclk_release            0x00029be0   Section        0  nrf_drv_clock.o(i.nrf_drv_clock_lfclk_release)
    i.nrf_drv_uart_init                      0x00029c10   Section        0  nrf_drv_uart.o(i.nrf_drv_uart_init)
    i.nrf_drv_uart_rx                        0x00029c9c   Section        0  app_uart_fifo.o(i.nrf_drv_uart_rx)
    nrf_drv_uart_rx                          0x00029c9d   Thumb Code    62  app_uart_fifo.o(i.nrf_drv_uart_rx)
    i.nrf_drv_uart_tx                        0x00029ce0   Section        0  app_uart_fifo.o(i.nrf_drv_uart_tx)
    nrf_drv_uart_tx                          0x00029ce1   Thumb Code    62  app_uart_fifo.o(i.nrf_drv_uart_tx)
    i.nrf_fprintf                            0x00029d24   Section        0  nrf_fprintf.o(i.nrf_fprintf)
    i.nrf_fprintf_buffer_flush               0x00029d4e   Section        0  nrf_fprintf.o(i.nrf_fprintf_buffer_flush)
    i.nrf_fprintf_fmt                        0x00029d6a   Section        0  nrf_fprintf_format.o(i.nrf_fprintf_fmt)
    i.nrf_gpio_cfg                           0x00029f5a   Section        0  nrfx_uart.o(i.nrf_gpio_cfg)
    nrf_gpio_cfg                             0x00029f5b   Thumb Code    40  nrfx_uart.o(i.nrf_gpio_cfg)
    i.nrf_gpio_cfg                           0x00029f82   Section        0  nrfx_uarte.o(i.nrf_gpio_cfg)
    nrf_gpio_cfg                             0x00029f83   Thumb Code    40  nrfx_uarte.o(i.nrf_gpio_cfg)
    i.nrf_gpio_cfg_input                     0x00029faa   Section        0  nrfx_uart.o(i.nrf_gpio_cfg_input)
    nrf_gpio_cfg_input                       0x00029fab   Thumb Code    26  nrfx_uart.o(i.nrf_gpio_cfg_input)
    i.nrf_gpio_cfg_input                     0x00029fc4   Section        0  nrfx_uarte.o(i.nrf_gpio_cfg_input)
    nrf_gpio_cfg_input                       0x00029fc5   Thumb Code    26  nrfx_uarte.o(i.nrf_gpio_cfg_input)
    i.nrf_gpio_cfg_output                    0x00029fde   Section        0  main.o(i.nrf_gpio_cfg_output)
    nrf_gpio_cfg_output                      0x00029fdf   Thumb Code    48  main.o(i.nrf_gpio_cfg_output)
    i.nrf_gpio_cfg_output                    0x0002a00e   Section        0  nrfx_uart.o(i.nrf_gpio_cfg_output)
    nrf_gpio_cfg_output                      0x0002a00f   Thumb Code    24  nrfx_uart.o(i.nrf_gpio_cfg_output)
    i.nrf_gpio_cfg_output                    0x0002a026   Section        0  nrfx_uarte.o(i.nrf_gpio_cfg_output)
    nrf_gpio_cfg_output                      0x0002a027   Thumb Code    24  nrfx_uarte.o(i.nrf_gpio_cfg_output)
    i.nrf_gpio_cfg_sense_set                 0x0002a03e   Section        0  nrfx_gpiote.o(i.nrf_gpio_cfg_sense_set)
    nrf_gpio_cfg_sense_set                   0x0002a03f   Thumb Code    50  nrfx_gpiote.o(i.nrf_gpio_cfg_sense_set)
    i.nrf_gpio_latches_read_and_clear        0x0002a070   Section        0  nrfx_gpiote.o(i.nrf_gpio_latches_read_and_clear)
    nrf_gpio_latches_read_and_clear          0x0002a071   Thumb Code    46  nrfx_gpiote.o(i.nrf_gpio_latches_read_and_clear)
    i.nrf_gpio_pin_set                       0x0002a0a4   Section        0  nrfx_uart.o(i.nrf_gpio_pin_set)
    nrf_gpio_pin_set                         0x0002a0a5   Thumb Code    22  nrfx_uart.o(i.nrf_gpio_pin_set)
    i.nrf_gpio_pin_set                       0x0002a0ba   Section        0  nrfx_uarte.o(i.nrf_gpio_pin_set)
    nrf_gpio_pin_set                         0x0002a0bb   Thumb Code    22  nrfx_uarte.o(i.nrf_gpio_pin_set)
    i.nrf_gpio_pin_write                     0x0002a0d0   Section        0  main.o(i.nrf_gpio_pin_write)
    nrf_gpio_pin_write                       0x0002a0d1   Thumb Code    58  main.o(i.nrf_gpio_pin_write)
    i.nrf_gpio_pin_write                     0x0002a10a   Section        0  boards.o(i.nrf_gpio_pin_write)
    nrf_gpio_pin_write                       0x0002a10b   Thumb Code    58  boards.o(i.nrf_gpio_pin_write)
    i.nrf_gpiote_event_addr_get              0x0002a144   Section        0  nrfx_gpiote.o(i.nrf_gpiote_event_addr_get)
    nrf_gpiote_event_addr_get                0x0002a145   Thumb Code     8  nrfx_gpiote.o(i.nrf_gpiote_event_addr_get)
    i.nrf_gpiote_event_clear                 0x0002a150   Section        0  nrfx_gpiote.o(i.nrf_gpiote_event_clear)
    nrf_gpiote_event_clear                   0x0002a151   Thumb Code    28  nrfx_gpiote.o(i.nrf_gpiote_event_clear)
    i.nrf_gpiote_event_is_set                0x0002a16c   Section        0  nrfx_gpiote.o(i.nrf_gpiote_event_is_set)
    nrf_gpiote_event_is_set                  0x0002a16d   Thumb Code    22  nrfx_gpiote.o(i.nrf_gpiote_event_is_set)
    i.nrf_log_backend_add                    0x0002a184   Section        0  nrf_log_frontend.o(i.nrf_log_backend_add)
    i.nrf_log_backend_rtt_flush              0x0002a1d8   Section        0  nrf_log_backend_rtt.o(i.nrf_log_backend_rtt_flush)
    nrf_log_backend_rtt_flush                0x0002a1d9   Thumb Code     2  nrf_log_backend_rtt.o(i.nrf_log_backend_rtt_flush)
    i.nrf_log_backend_rtt_init               0x0002a1da   Section        0  nrf_log_backend_rtt.o(i.nrf_log_backend_rtt_init)
    i.nrf_log_backend_rtt_panic_set          0x0002a1e2   Section        0  nrf_log_backend_rtt.o(i.nrf_log_backend_rtt_panic_set)
    nrf_log_backend_rtt_panic_set            0x0002a1e3   Thumb Code     2  nrf_log_backend_rtt.o(i.nrf_log_backend_rtt_panic_set)
    i.nrf_log_backend_rtt_put                0x0002a1e4   Section        0  nrf_log_backend_rtt.o(i.nrf_log_backend_rtt_put)
    nrf_log_backend_rtt_put                  0x0002a1e5   Thumb Code    24  nrf_log_backend_rtt.o(i.nrf_log_backend_rtt_put)
    i.nrf_log_backend_serial_put             0x0002a204   Section        0  nrf_log_backend_serial.o(i.nrf_log_backend_serial_put)
    i.nrf_log_color_id_get                   0x0002a2f8   Section        0  nrf_log_frontend.o(i.nrf_log_color_id_get)
    i.nrf_log_default_backends_init          0x0002a330   Section        0  nrf_log_default_backends.o(i.nrf_log_default_backends_init)
    i.nrf_log_frontend_dequeue               0x0002a358   Section        0  nrf_log_frontend.o(i.nrf_log_frontend_dequeue)
    i.nrf_log_frontend_std_0                 0x0002a674   Section        0  nrf_log_frontend.o(i.nrf_log_frontend_std_0)
    i.nrf_log_frontend_std_1                 0x0002a688   Section        0  nrf_log_frontend.o(i.nrf_log_frontend_std_1)
    i.nrf_log_frontend_std_2                 0x0002a6a0   Section        0  nrf_log_frontend.o(i.nrf_log_frontend_std_2)
    i.nrf_log_hexdump_entry_process          0x0002a6c0   Section        0  nrf_log_str_formatter.o(i.nrf_log_hexdump_entry_process)
    i.nrf_log_init                           0x0002a77c   Section        0  nrf_log_frontend.o(i.nrf_log_init)
    i.nrf_log_module_cnt_get                 0x0002a7c4   Section        0  nrf_log_frontend.o(i.nrf_log_module_cnt_get)
    i.nrf_log_module_name_get                0x0002a7d8   Section        0  nrf_log_frontend.o(i.nrf_log_module_name_get)
    i.nrf_log_panic                          0x0002a7fc   Section        0  nrf_log_frontend.o(i.nrf_log_panic)
    i.nrf_log_std_entry_process              0x0002a830   Section        0  nrf_log_str_formatter.o(i.nrf_log_std_entry_process)
    i.nrf_memobj_alloc                       0x0002a8f8   Section        0  nrf_memobj.o(i.nrf_memobj_alloc)
    i.nrf_memobj_free                        0x0002a972   Section        0  nrf_memobj.o(i.nrf_memobj_free)
    i.nrf_memobj_get                         0x0002a9b2   Section        0  nrf_memobj.o(i.nrf_memobj_get)
    i.nrf_memobj_pool_init                   0x0002a9c2   Section        0  nrf_memobj.o(i.nrf_memobj_pool_init)
    i.nrf_memobj_put                         0x0002a9ce   Section        0  nrf_memobj.o(i.nrf_memobj_put)
    i.nrf_memobj_read                        0x0002a9ec   Section        0  nrf_memobj.o(i.nrf_memobj_read)
    i.nrf_memobj_write                       0x0002aa0e   Section        0  nrf_memobj.o(i.nrf_memobj_write)
    i.nrf_pwr_mgmt_init                      0x0002aa30   Section        0  nrf_pwr_mgmt.o(i.nrf_pwr_mgmt_init)
    i.nrf_pwr_mgmt_run                       0x0002aa70   Section        0  nrf_pwr_mgmt.o(i.nrf_pwr_mgmt_run)
    i.nrf_qwr_error_handler                  0x0002aadc   Section        0  main.o(i.nrf_qwr_error_handler)
    nrf_qwr_error_handler                    0x0002aadd   Thumb Code    16  main.o(i.nrf_qwr_error_handler)
    i.nrf_ringbuf_init                       0x0002aaec   Section        0  nrf_ringbuf.o(i.nrf_ringbuf_init)
    i.nrf_rtc_cc_get                         0x0002ab08   Section        0  drv_rtc.o(i.nrf_rtc_cc_get)
    nrf_rtc_cc_get                           0x0002ab09   Thumb Code    12  drv_rtc.o(i.nrf_rtc_cc_get)
    i.nrf_rtc_cc_set                         0x0002ab14   Section        0  drv_rtc.o(i.nrf_rtc_cc_set)
    nrf_rtc_cc_set                           0x0002ab15   Thumb Code    10  drv_rtc.o(i.nrf_rtc_cc_set)
    i.nrf_rtc_counter_get                    0x0002ab1e   Section        0  drv_rtc.o(i.nrf_rtc_counter_get)
    nrf_rtc_counter_get                      0x0002ab1f   Thumb Code     8  drv_rtc.o(i.nrf_rtc_counter_get)
    i.nrf_rtc_event_clear                    0x0002ab26   Section        0  drv_rtc.o(i.nrf_rtc_event_clear)
    nrf_rtc_event_clear                      0x0002ab27   Thumb Code    14  drv_rtc.o(i.nrf_rtc_event_clear)
    i.nrf_rtc_event_disable                  0x0002ab34   Section        0  drv_rtc.o(i.nrf_rtc_event_disable)
    nrf_rtc_event_disable                    0x0002ab35   Thumb Code     6  drv_rtc.o(i.nrf_rtc_event_disable)
    i.nrf_rtc_event_enable                   0x0002ab3a   Section        0  drv_rtc.o(i.nrf_rtc_event_enable)
    nrf_rtc_event_enable                     0x0002ab3b   Thumb Code     6  drv_rtc.o(i.nrf_rtc_event_enable)
    i.nrf_rtc_int_disable                    0x0002ab40   Section        0  drv_rtc.o(i.nrf_rtc_int_disable)
    nrf_rtc_int_disable                      0x0002ab41   Thumb Code     6  drv_rtc.o(i.nrf_rtc_int_disable)
    i.nrf_rtc_int_enable                     0x0002ab46   Section        0  drv_rtc.o(i.nrf_rtc_int_enable)
    nrf_rtc_int_enable                       0x0002ab47   Thumb Code     6  drv_rtc.o(i.nrf_rtc_int_enable)
    i.nrf_rtc_task_trigger                   0x0002ab4c   Section        0  drv_rtc.o(i.nrf_rtc_task_trigger)
    nrf_rtc_task_trigger                     0x0002ab4d   Thumb Code     6  drv_rtc.o(i.nrf_rtc_task_trigger)
    i.nrf_sdh_ble_app_ram_start_get          0x0002ab54   Section        0  nrf_sdh_ble.o(i.nrf_sdh_ble_app_ram_start_get)
    i.nrf_sdh_ble_default_cfg_set            0x0002ab6c   Section        0  nrf_sdh_ble.o(i.nrf_sdh_ble_default_cfg_set)
    i.nrf_sdh_ble_enable                     0x0002ad0c   Section        0  nrf_sdh_ble.o(i.nrf_sdh_ble_enable)
    i.nrf_sdh_ble_evts_poll                  0x0002ae58   Section        0  nrf_sdh_ble.o(i.nrf_sdh_ble_evts_poll)
    nrf_sdh_ble_evts_poll                    0x0002ae59   Thumb Code   108  nrf_sdh_ble.o(i.nrf_sdh_ble_evts_poll)
    i.nrf_sdh_enable_request                 0x0002aecc   Section        0  nrf_sdh.o(i.nrf_sdh_enable_request)
    i.nrf_sdh_evts_poll                      0x0002af50   Section        0  nrf_sdh.o(i.nrf_sdh_evts_poll)
    i.nrf_sdh_is_enabled                     0x0002af80   Section        0  nrf_sdh.o(i.nrf_sdh_is_enabled)
    i.nrf_sdh_soc_evts_poll                  0x0002af8c   Section        0  nrf_sdh_soc.o(i.nrf_sdh_soc_evts_poll)
    nrf_sdh_soc_evts_poll                    0x0002af8d   Thumb Code    80  nrf_sdh_soc.o(i.nrf_sdh_soc_evts_poll)
    i.nrf_section_iter_get                   0x0002afe0   Section        0  nrf_sdh.o(i.nrf_section_iter_get)
    nrf_section_iter_get                     0x0002afe1   Thumb Code     6  nrf_sdh.o(i.nrf_section_iter_get)
    i.nrf_section_iter_init                  0x0002afe6   Section        0  nrf_section_iter.o(i.nrf_section_iter_init)
    i.nrf_section_iter_item_set              0x0002affa   Section        0  nrf_section_iter.o(i.nrf_section_iter_item_set)
    nrf_section_iter_item_set                0x0002affb   Thumb Code    46  nrf_section_iter.o(i.nrf_section_iter_item_set)
    i.nrf_section_iter_next                  0x0002b028   Section        0  nrf_section_iter.o(i.nrf_section_iter_next)
    i.nrf_sortlist_add                       0x0002b056   Section        0  nrf_sortlist.o(i.nrf_sortlist_add)
    i.nrf_sortlist_peek                      0x0002b07e   Section        0  nrf_sortlist.o(i.nrf_sortlist_peek)
    i.nrf_sortlist_pop                       0x0002b086   Section        0  nrf_sortlist.o(i.nrf_sortlist_pop)
    i.nrf_sortlist_remove                    0x0002b09e   Section        0  nrf_sortlist.o(i.nrf_sortlist_remove)
    i.nrf_strerror_find                      0x0002b0c4   Section        0  nrf_strerror.o(i.nrf_strerror_find)
    i.nrf_strerror_get                       0x0002b104   Section        0  nrf_strerror.o(i.nrf_strerror_get)
    i.nrf_uart_errorsrc_get_and_clear        0x0002b120   Section        0  nrfx_uart.o(i.nrf_uart_errorsrc_get_and_clear)
    nrf_uart_errorsrc_get_and_clear          0x0002b121   Thumb Code    12  nrfx_uart.o(i.nrf_uart_errorsrc_get_and_clear)
    i.nrf_uart_event_check                   0x0002b12c   Section        0  nrfx_uart.o(i.nrf_uart_event_check)
    nrf_uart_event_check                     0x0002b12d   Thumb Code    14  nrfx_uart.o(i.nrf_uart_event_check)
    i.nrf_uart_event_clear                   0x0002b13a   Section        0  nrfx_uart.o(i.nrf_uart_event_clear)
    nrf_uart_event_clear                     0x0002b13b   Thumb Code    14  nrfx_uart.o(i.nrf_uart_event_clear)
    i.nrf_uart_hwfc_pins_set                 0x0002b148   Section        0  nrfx_uart.o(i.nrf_uart_hwfc_pins_set)
    nrf_uart_hwfc_pins_set                   0x0002b149   Thumb Code    10  nrfx_uart.o(i.nrf_uart_hwfc_pins_set)
    i.nrf_uart_int_disable                   0x0002b152   Section        0  nrfx_uart.o(i.nrf_uart_int_disable)
    nrf_uart_int_disable                     0x0002b153   Thumb Code     6  nrfx_uart.o(i.nrf_uart_int_disable)
    i.nrf_uart_int_enable                    0x0002b158   Section        0  nrfx_uart.o(i.nrf_uart_int_enable)
    nrf_uart_int_enable                      0x0002b159   Thumb Code     6  nrfx_uart.o(i.nrf_uart_int_enable)
    i.nrf_uart_int_enable_check              0x0002b15e   Section        0  nrfx_uart.o(i.nrf_uart_int_enable_check)
    nrf_uart_int_enable_check                0x0002b15f   Thumb Code    18  nrfx_uart.o(i.nrf_uart_int_enable_check)
    i.nrf_uart_task_trigger                  0x0002b170   Section        0  nrfx_uart.o(i.nrf_uart_task_trigger)
    nrf_uart_task_trigger                    0x0002b171   Thumb Code     6  nrfx_uart.o(i.nrf_uart_task_trigger)
    i.nrf_uart_txrx_pins_set                 0x0002b176   Section        0  nrfx_uart.o(i.nrf_uart_txrx_pins_set)
    nrf_uart_txrx_pins_set                   0x0002b177   Thumb Code    10  nrfx_uart.o(i.nrf_uart_txrx_pins_set)
    i.nrf_uarte_errorsrc_get_and_clear       0x0002b180   Section        0  nrfx_uarte.o(i.nrf_uarte_errorsrc_get_and_clear)
    nrf_uarte_errorsrc_get_and_clear         0x0002b181   Thumb Code    12  nrfx_uarte.o(i.nrf_uarte_errorsrc_get_and_clear)
    i.nrf_uarte_event_check                  0x0002b18c   Section        0  nrfx_uarte.o(i.nrf_uarte_event_check)
    nrf_uarte_event_check                    0x0002b18d   Thumb Code    14  nrfx_uarte.o(i.nrf_uarte_event_check)
    i.nrf_uarte_event_clear                  0x0002b19a   Section        0  nrfx_uarte.o(i.nrf_uarte_event_clear)
    nrf_uarte_event_clear                    0x0002b19b   Thumb Code    14  nrfx_uarte.o(i.nrf_uarte_event_clear)
    i.nrf_uarte_hwfc_pins_set                0x0002b1a8   Section        0  nrfx_uarte.o(i.nrf_uarte_hwfc_pins_set)
    nrf_uarte_hwfc_pins_set                  0x0002b1a9   Thumb Code    12  nrfx_uarte.o(i.nrf_uarte_hwfc_pins_set)
    i.nrf_uarte_int_disable                  0x0002b1b4   Section        0  nrfx_uarte.o(i.nrf_uarte_int_disable)
    nrf_uarte_int_disable                    0x0002b1b5   Thumb Code     6  nrfx_uarte.o(i.nrf_uarte_int_disable)
    i.nrf_uarte_int_enable                   0x0002b1ba   Section        0  nrfx_uarte.o(i.nrf_uarte_int_enable)
    nrf_uarte_int_enable                     0x0002b1bb   Thumb Code     6  nrfx_uarte.o(i.nrf_uarte_int_enable)
    i.nrf_uarte_rx_amount_get                0x0002b1c0   Section        0  nrfx_uarte.o(i.nrf_uarte_rx_amount_get)
    nrf_uarte_rx_amount_get                  0x0002b1c1   Thumb Code    10  nrfx_uarte.o(i.nrf_uarte_rx_amount_get)
    i.nrf_uarte_shorts_disable               0x0002b1ca   Section        0  nrfx_uarte.o(i.nrf_uarte_shorts_disable)
    nrf_uarte_shorts_disable                 0x0002b1cb   Thumb Code    12  nrfx_uarte.o(i.nrf_uarte_shorts_disable)
    i.nrf_uarte_task_trigger                 0x0002b1d6   Section        0  nrfx_uarte.o(i.nrf_uarte_task_trigger)
    nrf_uarte_task_trigger                   0x0002b1d7   Thumb Code     6  nrfx_uarte.o(i.nrf_uarte_task_trigger)
    i.nrf_uarte_tx_amount_get                0x0002b1dc   Section        0  nrfx_uarte.o(i.nrf_uarte_tx_amount_get)
    nrf_uarte_tx_amount_get                  0x0002b1dd   Thumb Code    10  nrfx_uarte.o(i.nrf_uarte_tx_amount_get)
    i.nrf_uarte_txrx_pins_set                0x0002b1e6   Section        0  nrfx_uarte.o(i.nrf_uarte_txrx_pins_set)
    nrf_uarte_txrx_pins_set                  0x0002b1e7   Thumb Code    14  nrfx_uarte.o(i.nrf_uarte_txrx_pins_set)
    i.nrf_wdt_started                        0x0002b1f4   Section        0  nrf_drv_clock.o(i.nrf_wdt_started)
    nrf_wdt_started                          0x0002b1f5   Thumb Code    14  nrf_drv_clock.o(i.nrf_wdt_started)
    i.nrfx_clock_enable                      0x0002b208   Section        0  nrfx_clock.o(i.nrfx_clock_enable)
    i.nrfx_clock_init                        0x0002b21c   Section        0  nrfx_clock.o(i.nrfx_clock_init)
    i.nrfx_clock_lfclk_stop                  0x0002b240   Section        0  nrfx_clock.o(i.nrfx_clock_lfclk_stop)
    i.nrfx_coredep_delay_us                  0x0002b26c   Section        0  drv_rtc.o(i.nrfx_coredep_delay_us)
    nrfx_coredep_delay_us                    0x0002b26d   Thumb Code    20  drv_rtc.o(i.nrfx_coredep_delay_us)
    i.nrfx_get_irq_number                    0x0002b284   Section        0  nrfx_clock.o(i.nrfx_get_irq_number)
    nrfx_get_irq_number                      0x0002b285   Thumb Code     8  nrfx_clock.o(i.nrfx_get_irq_number)
    i.nrfx_get_irq_number                    0x0002b28c   Section        0  nrfx_uart.o(i.nrfx_get_irq_number)
    nrfx_get_irq_number                      0x0002b28d   Thumb Code     8  nrfx_uart.o(i.nrfx_get_irq_number)
    i.nrfx_get_irq_number                    0x0002b294   Section        0  nrfx_uarte.o(i.nrfx_get_irq_number)
    nrfx_get_irq_number                      0x0002b295   Thumb Code     8  nrfx_uarte.o(i.nrfx_get_irq_number)
    i.nrfx_is_in_ram                         0x0002b29c   Section        0  nrfx_uarte.o(i.nrfx_is_in_ram)
    nrfx_is_in_ram                           0x0002b29d   Thumb Code    20  nrfx_uarte.o(i.nrfx_is_in_ram)
    i.nrfx_power_clock_irq_init              0x0002b2b0   Section        0  nrfx_clock.o(i.nrfx_power_clock_irq_init)
    nrfx_power_clock_irq_init                0x0002b2b1   Thumb Code   168  nrfx_clock.o(i.nrfx_power_clock_irq_init)
    i.nrfx_prs_acquire                       0x0002b360   Section        0  nrfx_prs.o(i.nrfx_prs_acquire)
    i.nrfx_uart_0_irq_handler                0x0002b3b0   Section        0  nrfx_uart.o(i.nrfx_uart_0_irq_handler)
    i.nrfx_uart_init                         0x0002b3c4   Section        0  nrfx_uart.o(i.nrfx_uart_init)
    i.nrfx_uart_rx                           0x0002b44c   Section        0  nrfx_uart.o(i.nrfx_uart_rx)
    i.nrfx_uart_tx                           0x0002b570   Section        0  nrfx_uart.o(i.nrfx_uart_tx)
    i.nrfx_uart_tx_in_progress               0x0002b5fc   Section        0  nrfx_uart.o(i.nrfx_uart_tx_in_progress)
    i.nrfx_uarte_0_irq_handler               0x0002b620   Section        0  nrfx_uarte.o(i.nrfx_uarte_0_irq_handler)
    i.nrfx_uarte_init                        0x0002b634   Section        0  nrfx_uarte.o(i.nrfx_uarte_init)
    i.nrfx_uarte_rx                          0x0002b6b4   Section        0  nrfx_uarte.o(i.nrfx_uarte_rx)
    i.nrfx_uarte_tx                          0x0002b7ec   Section        0  nrfx_uarte.o(i.nrfx_uarte_tx)
    i.nrfx_uarte_tx_in_progress              0x0002b8ac   Section        0  nrfx_uarte.o(i.nrfx_uarte_tx_in_progress)
    i.nvmc_config                            0x0002b8cc   Section        0  system_nrf52.o(i.nvmc_config)
    i.nvmc_wait                              0x0002b8e0   Section        0  system_nrf52.o(i.nvmc_wait)
    i.on_adv_evt                             0x0002b8f0   Section        0  main.o(i.on_adv_evt)
    on_adv_evt                               0x0002b8f1   Thumb Code    50  main.o(i.on_adv_evt)
    i.on_compare1_evt                        0x0002b924   Section        0  app_timer2.o(i.on_compare1_evt)
    on_compare1_evt                          0x0002b925   Thumb Code    14  app_timer2.o(i.on_compare1_evt)
    i.on_compare_evt                         0x0002b938   Section        0  app_timer2.o(i.on_compare_evt)
    on_compare_evt                           0x0002b939   Thumb Code    26  app_timer2.o(i.on_compare_evt)
    i.on_conn_params_evt                     0x0002b958   Section        0  main.o(i.on_conn_params_evt)
    on_conn_params_evt                       0x0002b959   Thumb Code    38  main.o(i.on_conn_params_evt)
    i.on_conn_params_update                  0x0002b984   Section        0  ble_conn_params.o(i.on_conn_params_update)
    on_conn_params_update                    0x0002b985   Thumb Code    48  ble_conn_params.o(i.on_conn_params_update)
    i.on_connect                             0x0002b9b4   Section        0  ble_conn_params.o(i.on_connect)
    on_connect                               0x0002b9b5   Thumb Code   102  ble_conn_params.o(i.on_connect)
    i.on_connected                           0x0002ba24   Section        0  main.o(i.on_connected)
    on_connected                             0x0002ba25   Thumb Code   156  main.o(i.on_connected)
    i.on_connected                           0x0002baf0   Section        0  ble_advertising.o(i.on_connected)
    on_connected                             0x0002baf1   Thumb Code    14  ble_advertising.o(i.on_connected)
    i.on_connected_evt                       0x0002bb00   Section        0  nrf_ble_gatt.o(i.on_connected_evt)
    on_connected_evt                         0x0002bb01   Thumb Code   134  nrf_ble_gatt.o(i.on_connected_evt)
    i.on_data_length_update_evt              0x0002bbc4   Section        0  nrf_ble_gatt.o(i.on_data_length_update_evt)
    on_data_length_update_evt                0x0002bbc5   Thumb Code    78  nrf_ble_gatt.o(i.on_data_length_update_evt)
    i.on_data_length_update_request_evt      0x0002bc18   Section        0  nrf_ble_gatt.o(i.on_data_length_update_request_evt)
    on_data_length_update_request_evt        0x0002bc19   Thumb Code    48  nrf_ble_gatt.o(i.on_data_length_update_request_evt)
    i.on_disconnect                          0x0002bc48   Section        0  main.o(i.on_disconnect)
    on_disconnect                            0x0002bc49   Thumb Code    64  main.o(i.on_disconnect)
    i.on_disconnect                          0x0002bcb8   Section        0  ble_conn_params.o(i.on_disconnect)
    on_disconnect                            0x0002bcb9   Thumb Code    50  ble_conn_params.o(i.on_disconnect)
    i.on_disconnected                        0x0002bcea   Section        0  ble_advertising.o(i.on_disconnected)
    on_disconnected                          0x0002bceb   Thumb Code    50  ble_advertising.o(i.on_disconnected)
    i.on_disconnected_evt                    0x0002bd1c   Section        0  nrf_ble_gatt.o(i.on_disconnected_evt)
    on_disconnected_evt                      0x0002bd1d   Thumb Code    20  nrf_ble_gatt.o(i.on_disconnected_evt)
    i.on_exchange_mtu_request_evt            0x0002bd30   Section        0  nrf_ble_gatt.o(i.on_exchange_mtu_request_evt)
    on_exchange_mtu_request_evt              0x0002bd31   Thumb Code   138  nrf_ble_gatt.o(i.on_exchange_mtu_request_evt)
    i.on_exchange_mtu_rsp_evt                0x0002bdf8   Section        0  nrf_ble_gatt.o(i.on_exchange_mtu_rsp_evt)
    on_exchange_mtu_rsp_evt                  0x0002bdf9   Thumb Code    94  nrf_ble_gatt.o(i.on_exchange_mtu_rsp_evt)
    i.on_overflow_evt                        0x0002be5c   Section        0  app_timer2.o(i.on_overflow_evt)
    on_overflow_evt                          0x0002be5d   Thumb Code    24  app_timer2.o(i.on_overflow_evt)
    i.on_read                                0x0002be78   Section        0  cus_service.o(i.on_read)
    on_read                                  0x0002be79   Thumb Code    46  cus_service.o(i.on_read)
    i.on_rw_authorize_request                0x0002bea6   Section        0  nrf_ble_qwr.o(i.on_rw_authorize_request)
    on_rw_authorize_request                  0x0002bea7   Thumb Code   106  nrf_ble_qwr.o(i.on_rw_authorize_request)
    i.on_terminated                          0x0002bf10   Section        0  ble_advertising.o(i.on_terminated)
    on_terminated                            0x0002bf11   Thumb Code    64  ble_advertising.o(i.on_terminated)
    i.on_user_mem_release                    0x0002bf50   Section        0  nrf_ble_qwr.o(i.on_user_mem_release)
    on_user_mem_release                      0x0002bf51   Thumb Code     2  nrf_ble_qwr.o(i.on_user_mem_release)
    i.on_user_mem_request                    0x0002bf52   Section        0  nrf_ble_qwr.o(i.on_user_mem_request)
    on_user_mem_request                      0x0002bf53   Thumb Code    32  nrf_ble_qwr.o(i.on_user_mem_request)
    i.on_write                               0x0002bf74   Section        0  ble_conn_params.o(i.on_write)
    on_write                                 0x0002bf75   Thumb Code    82  ble_conn_params.o(i.on_write)
    i.on_write                               0x0002bfcc   Section        0  cus_service.o(i.on_write)
    on_write                                 0x0002bfcd   Thumb Code   106  cus_service.o(i.on_write)
    i.phy_is_valid                           0x0002c036   Section        0  ble_advertising.o(i.phy_is_valid)
    phy_is_valid                             0x0002c037   Thumb Code    22  ble_advertising.o(i.phy_is_valid)
    i.port_event_handle                      0x0002c04c   Section        0  nrfx_gpiote.o(i.port_event_handle)
    port_event_handle                        0x0002c04d   Thumb Code   186  nrfx_gpiote.o(i.port_event_handle)
    i.port_handler_pin_get                   0x0002c10c   Section        0  nrfx_gpiote.o(i.port_handler_pin_get)
    port_handler_pin_get                     0x0002c10d   Thumb Code    12  nrfx_gpiote.o(i.port_handler_pin_get)
    i.port_handler_polarity_get              0x0002c11c   Section        0  nrfx_gpiote.o(i.port_handler_polarity_get)
    port_handler_polarity_get                0x0002c11d   Thumb Code    10  nrfx_gpiote.o(i.port_handler_polarity_get)
    i.postfix_process                        0x0002c12c   Section        0  nrf_log_str_formatter.o(i.postfix_process)
    postfix_process                          0x0002c12d   Thumb Code    58  nrf_log_str_formatter.o(i.postfix_process)
    i.power_management_init                  0x0002c174   Section        0  main.o(i.power_management_init)
    power_management_init                    0x0002c175   Thumb Code    28  main.o(i.power_management_init)
    i.prefix_process                         0x0002c190   Section        0  nrf_log_str_formatter.o(i.prefix_process)
    prefix_process                           0x0002c191   Thumb Code    98  nrf_log_str_formatter.o(i.prefix_process)
    i.prs_box_get                            0x0002c234   Section        0  nrfx_prs.o(i.prs_box_get)
    prs_box_get                              0x0002c235   Thumb Code    16  nrfx_prs.o(i.prs_box_get)
    i.ram_end_address_get                    0x0002c24c   Section        0  nrf_sdh_ble.o(i.ram_end_address_get)
    ram_end_address_get                      0x0002c24d   Thumb Code    12  nrf_sdh_ble.o(i.ram_end_address_get)
    i.record_activate                        0x0002c25c   Section        0  ble_conn_state.o(i.record_activate)
    record_activate                          0x0002c25d   Thumb Code    34  ble_conn_state.o(i.record_activate)
    i.record_invalidate                      0x0002c284   Section        0  ble_conn_state.o(i.record_invalidate)
    record_invalidate                        0x0002c285   Thumb Code    28  ble_conn_state.o(i.record_invalidate)
    i.record_purge_disconnected              0x0002c2a4   Section        0  ble_conn_state.o(i.record_purge_disconnected)
    record_purge_disconnected                0x0002c2a5   Thumb Code    66  ble_conn_state.o(i.record_purge_disconnected)
    i.record_set_disconnected                0x0002c2ec   Section        0  ble_conn_state.o(i.record_set_disconnected)
    record_set_disconnected                  0x0002c2ed   Thumb Code    14  ble_conn_state.o(i.record_set_disconnected)
    i.rtc_irq                                0x0002c300   Section        0  app_timer2.o(i.rtc_irq)
    rtc_irq                                  0x0002c301   Thumb Code    62  app_timer2.o(i.rtc_irq)
    i.rtc_schedule                           0x0002c340   Section        0  app_timer2.o(i.rtc_schedule)
    rtc_schedule                             0x0002c341   Thumb Code   116  app_timer2.o(i.rtc_schedule)
    i.rtc_update                             0x0002c3bc   Section        0  app_timer2.o(i.rtc_update)
    rtc_update                               0x0002c3bd   Thumb Code   154  app_timer2.o(i.rtc_update)
    i.rx_byte                                0x0002c460   Section        0  nrfx_uart.o(i.rx_byte)
    rx_byte                                  0x0002c461   Thumb Code    62  nrfx_uart.o(i.rx_byte)
    i.rx_done_event                          0x0002c49e   Section        0  nrfx_uart.o(i.rx_done_event)
    rx_done_event                            0x0002c49f   Thumb Code    28  nrfx_uart.o(i.rx_done_event)
    i.rx_done_event                          0x0002c4ba   Section        0  nrfx_uarte.o(i.rx_done_event)
    rx_done_event                            0x0002c4bb   Thumb Code    28  nrfx_uarte.o(i.rx_done_event)
    i.rx_enable                              0x0002c4d6   Section        0  nrfx_uart.o(i.rx_enable)
    rx_enable                                0x0002c4d7   Thumb Code    34  nrfx_uart.o(i.rx_enable)
    i.sd_nvic_EnableIRQ                      0x0002c4f8   Section        0  nrf_sdh.o(i.sd_nvic_EnableIRQ)
    sd_nvic_EnableIRQ                        0x0002c4f9   Thumb Code   150  nrf_sdh.o(i.sd_nvic_EnableIRQ)
    i.sd_nvic_critical_region_enter          0x0002c59c   Section        0  app_util_platform.o(i.sd_nvic_critical_region_enter)
    sd_nvic_critical_region_enter            0x0002c59d   Thumb Code    90  app_util_platform.o(i.sd_nvic_critical_region_enter)
    i.sd_state_evt_handler                   0x0002c604   Section        0  nrf_drv_clock.o(i.sd_state_evt_handler)
    sd_state_evt_handler                     0x0002c605   Thumb Code   136  nrf_drv_clock.o(i.sd_state_evt_handler)
    i.sdh_request_observer_notify            0x0002c694   Section        0  nrf_sdh.o(i.sdh_request_observer_notify)
    sdh_request_observer_notify              0x0002c695   Thumb Code    56  nrf_sdh.o(i.sdh_request_observer_notify)
    i.sdh_state_observer_notify              0x0002c6d0   Section        0  nrf_sdh.o(i.sdh_state_observer_notify)
    sdh_state_observer_notify                0x0002c6d1   Thumb Code    48  nrf_sdh.o(i.sdh_state_observer_notify)
    i.send_error_evt                         0x0002c704   Section        0  ble_conn_params.o(i.send_error_evt)
    send_error_evt                           0x0002c705   Thumb Code    20  ble_conn_params.o(i.send_error_evt)
    i.send_update_request                    0x0002c71c   Section        0  ble_conn_params.o(i.send_update_request)
    send_update_request                      0x0002c71d   Thumb Code    36  ble_conn_params.o(i.send_update_request)
    i.serial_tx                              0x0002c740   Section        0  nrf_log_backend_rtt.o(i.serial_tx)
    serial_tx                                0x0002c741   Thumb Code   124  nrf_log_backend_rtt.o(i.serial_tx)
    i.service_data_encode                    0x0002c7c4   Section        0  ble_advdata.o(i.service_data_encode)
    service_data_encode                      0x0002c7c5   Thumb Code   150  ble_advdata.o(i.service_data_encode)
    i.services_init                          0x0002c85c   Section        0  main.o(i.services_init)
    services_init                            0x0002c85d   Thumb Code    70  main.o(i.services_init)
    i.set_adv_mode_directed                  0x0002c8b4   Section        0  ble_advertising.o(i.set_adv_mode_directed)
    set_adv_mode_directed                    0x0002c8b5   Thumb Code    48  ble_advertising.o(i.set_adv_mode_directed)
    i.set_adv_mode_directed_high_duty        0x0002c8e4   Section        0  ble_advertising.o(i.set_adv_mode_directed_high_duty)
    set_adv_mode_directed_high_duty          0x0002c8e5   Thumb Code    36  ble_advertising.o(i.set_adv_mode_directed_high_duty)
    i.set_adv_mode_fast                      0x0002c908   Section        0  ble_advertising.o(i.set_adv_mode_fast)
    set_adv_mode_fast                        0x0002c909   Thumb Code    92  ble_advertising.o(i.set_adv_mode_fast)
    i.set_adv_mode_slow                      0x0002c964   Section        0  ble_advertising.o(i.set_adv_mode_slow)
    set_adv_mode_slow                        0x0002c965   Thumb Code    92  ble_advertising.o(i.set_adv_mode_slow)
    i.set_security_req                       0x0002c9c0   Section        0  ble_srv_common.o(i.set_security_req)
    set_security_req                         0x0002c9c1   Thumb Code   190  ble_srv_common.o(i.set_security_req)
    i.soc_evt_handler                        0x0002ca80   Section        0  nrf_drv_clock.o(i.soc_evt_handler)
    soc_evt_handler                          0x0002ca81   Thumb Code    22  nrf_drv_clock.o(i.soc_evt_handler)
    i.softdevices_evt_irq_enable             0x0002ca9c   Section        0  nrf_sdh.o(i.softdevices_evt_irq_enable)
    softdevices_evt_irq_enable               0x0002ca9d   Thumb Code    30  nrf_sdh.o(i.softdevices_evt_irq_enable)
    i.sorted_list_stop_all                   0x0002caba   Section        0  app_timer2.o(i.sorted_list_stop_all)
    sorted_list_stop_all                     0x0002cabb   Thumb Code    20  app_timer2.o(i.sorted_list_stop_all)
    i.sortlist_pop                           0x0002cad0   Section        0  app_timer2.o(i.sortlist_pop)
    sortlist_pop                             0x0002cad1   Thumb Code    20  app_timer2.o(i.sortlist_pop)
    i.std_header_set                         0x0002cae8   Section        0  nrf_log_frontend.o(i.std_header_set)
    std_header_set                           0x0002cae9   Thumb Code    96  nrf_log_frontend.o(i.std_header_set)
    i.std_n                                  0x0002cb4c   Section        0  nrf_log_frontend.o(i.std_n)
    std_n                                    0x0002cb4d   Thumb Code   104  nrf_log_frontend.o(i.std_n)
    i.string_print                           0x0002cbbc   Section        0  nrf_fprintf_format.o(i.string_print)
    string_print                             0x0002cbbd   Thumb Code   116  nrf_fprintf_format.o(i.string_print)
    i.ticks_sub                              0x0002cc30   Section        0  drv_rtc.o(i.ticks_sub)
    ticks_sub                                0x0002cc31   Thumb Code    10  drv_rtc.o(i.ticks_sub)
    i.timer_expire                           0x0002cc3c   Section        0  app_timer2.o(i.timer_expire)
    timer_expire                             0x0002cc3d   Thumb Code    98  app_timer2.o(i.timer_expire)
    i.timer_req_process                      0x0002cca8   Section        0  app_timer2.o(i.timer_req_process)
    timer_req_process                        0x0002cca9   Thumb Code   130  app_timer2.o(i.timer_req_process)
    i.timer_req_schedule                     0x0002cd3c   Section        0  app_timer2.o(i.timer_req_schedule)
    timer_req_schedule                       0x0002cd3d   Thumb Code    56  app_timer2.o(i.timer_req_schedule)
    i.timers_init                            0x0002cd7c   Section        0  main.o(i.timers_init)
    timers_init                              0x0002cd7d   Thumb Code    28  main.o(i.timers_init)
    i.timestamp_print                        0x0002cd98   Section        0  nrf_log_str_formatter.o(i.timestamp_print)
    timestamp_print                          0x0002cd99   Thumb Code     2  nrf_log_str_formatter.o(i.timestamp_print)
    i.tx_blocking                            0x0002cd9a   Section        0  nrfx_uart.o(i.tx_blocking)
    tx_blocking                              0x0002cd9b   Thumb Code    54  nrfx_uart.o(i.tx_blocking)
    i.tx_byte                                0x0002cdd0   Section        0  nrfx_uart.o(i.tx_byte)
    tx_byte                                  0x0002cdd1   Thumb Code    38  nrfx_uart.o(i.tx_byte)
    i.tx_done_event                          0x0002cdf6   Section        0  nrfx_uart.o(i.tx_done_event)
    tx_done_event                            0x0002cdf7   Thumb Code    32  nrfx_uart.o(i.tx_done_event)
    i.tx_done_event                          0x0002ce16   Section        0  nrfx_uarte.o(i.tx_done_event)
    tx_done_event                            0x0002ce17   Thumb Code    32  nrfx_uarte.o(i.tx_done_event)
    i.tx_power_level_encode                  0x0002ce36   Section        0  ble_advdata.o(i.tx_power_level_encode)
    tx_power_level_encode                    0x0002ce37   Thumb Code    54  ble_advdata.o(i.tx_power_level_encode)
    i.uart_event_handle                      0x0002ce6c   Section        0  main.o(i.uart_event_handle)
    i.uart_event_handler                     0x0002cf08   Section        0  app_uart_fifo.o(i.uart_event_handler)
    uart_event_handler                       0x0002cf09   Thumb Code   200  app_uart_fifo.o(i.uart_event_handler)
    i.uart_evt_handler                       0x0002cfec   Section        0  nrf_drv_uart.o(i.uart_evt_handler)
    uart_evt_handler                         0x0002cfed   Thumb Code    46  nrf_drv_uart.o(i.uart_evt_handler)
    i.uart_init                              0x0002d024   Section        0  main.o(i.uart_init)
    uart_init                                0x0002d025   Thumb Code    74  main.o(i.uart_init)
    i.uart_irq_handler                       0x0002d080   Section        0  nrfx_uart.o(i.uart_irq_handler)
    uart_irq_handler                         0x0002d081   Thumb Code   334  nrfx_uart.o(i.uart_irq_handler)
    i.uarte_evt_handler                      0x0002d1d0   Section        0  nrf_drv_uart.o(i.uarte_evt_handler)
    uarte_evt_handler                        0x0002d1d1   Thumb Code    46  nrf_drv_uart.o(i.uarte_evt_handler)
    i.uarte_irq_handler                      0x0002d208   Section        0  nrfx_uarte.o(i.uarte_irq_handler)
    uarte_irq_handler                        0x0002d209   Thumb Code   308  nrfx_uarte.o(i.uarte_irq_handler)
    i.uint16_decode                          0x0002d33c   Section        0  ble_srv_common.o(i.uint16_decode)
    uint16_decode                            0x0002d33d   Thumb Code    12  ble_srv_common.o(i.uint16_decode)
    i.uint16_encode                          0x0002d348   Section        0  ble_advdata.o(i.uint16_encode)
    uint16_encode                            0x0002d349   Thumb Code    12  ble_advdata.o(i.uint16_encode)
    i.unsigned_print                         0x0002d354   Section        0  nrf_fprintf_format.o(i.unsigned_print)
    unsigned_print                           0x0002d355   Thumb Code   178  nrf_fprintf_format.o(i.unsigned_print)
    i.update_timeout_handler                 0x0002d40c   Section        0  ble_conn_params.o(i.update_timeout_handler)
    update_timeout_handler                   0x0002d40d   Thumb Code   110  ble_conn_params.o(i.update_timeout_handler)
    i.use_whitelist                          0x0002d480   Section        0  ble_advertising.o(i.use_whitelist)
    use_whitelist                            0x0002d481   Thumb Code    30  ble_advertising.o(i.use_whitelist)
    i.user_mem_reply                         0x0002d49e   Section        0  nrf_ble_qwr.o(i.user_mem_reply)
    user_mem_reply                           0x0002d49f   Thumb Code    44  nrf_ble_qwr.o(i.user_mem_reply)
    i.uuid_list_encode                       0x0002d4ca   Section        0  ble_advdata.o(i.uuid_list_encode)
    uuid_list_encode                         0x0002d4cb   Thumb Code    78  ble_advdata.o(i.uuid_list_encode)
    i.uuid_list_sized_encode                 0x0002d518   Section        0  ble_advdata.o(i.uuid_list_sized_encode)
    uuid_list_sized_encode                   0x0002d519   Thumb Code   214  ble_advdata.o(i.uuid_list_sized_encode)
    i.whitelist_has_entries                  0x0002d5ee   Section        0  ble_advertising.o(i.whitelist_has_entries)
    whitelist_has_entries                    0x0002d5ef   Thumb Code     8  ble_advertising.o(i.whitelist_has_entries)
    .constdata                               0x0002d5f8   Section       24  main.o(.constdata)
    .constdata                               0x0002d610   Section        8  boards.o(.constdata)
    m_board_led_list                         0x0002d610   Data           4  boards.o(.constdata)
    m_board_btn_list                         0x0002d614   Data           4  boards.o(.constdata)
    .constdata                               0x0002d618   Section       44  bsp.o(.constdata)
    m_bsp_leds_tmr                           0x0002d618   Data           4  bsp.o(.constdata)
    m_bsp_alert_tmr                          0x0002d61c   Data           4  bsp.o(.constdata)
    m_bsp_button_tmr                         0x0002d620   Data           4  bsp.o(.constdata)
    app_buttons                              0x0002d624   Data          32  bsp.o(.constdata)
    .constdata                               0x0002d644   Section       22  nrf_ble_gatt.o(.constdata)
    .constdata                               0x0002d65c   Section       16  cus_service.o(.constdata)
    .constdata                               0x0002d66c   Section       62  nrfx_gpiote.o(.constdata)
    __func__                                 0x0002d670   Data          17  nrfx_gpiote.o(.constdata)
    __func__                                 0x0002d681   Data          21  nrfx_gpiote.o(.constdata)
    __func__                                 0x0002d696   Data          20  nrfx_gpiote.o(.constdata)
    .constdata                               0x0002d6ac   Section       46  nrfx_uart.o(.constdata)
    __func__                                 0x0002d6ac   Data          15  nrfx_uart.o(.constdata)
    irq_handlers                             0x0002d6bc   Data           4  nrfx_uart.o(.constdata)
    __func__                                 0x0002d6c0   Data          13  nrfx_uart.o(.constdata)
    __func__                                 0x0002d6cd   Data          13  nrfx_uart.o(.constdata)
    .constdata                               0x0002d6dc   Section       48  nrfx_uarte.o(.constdata)
    __func__                                 0x0002d6dc   Data          16  nrfx_uarte.o(.constdata)
    irq_handlers                             0x0002d6ec   Data           4  nrfx_uarte.o(.constdata)
    __func__                                 0x0002d6f0   Data          14  nrfx_uarte.o(.constdata)
    __func__                                 0x0002d6fe   Data          14  nrfx_uarte.o(.constdata)
    .constdata                               0x0002d70c   Section       20  app_timer2.o(.constdata)
    m_req_fifo                               0x0002d70c   Data           4  app_timer2.o(.constdata)
    m_app_timer_sortlist                     0x0002d710   Data          12  app_timer2.o(.constdata)
    .constdata                               0x0002d720   Section       32  app_uart_fifo.o(.constdata)
    .constdata                               0x0002d740   Section        6  drv_rtc.o(.constdata)
    delay_machine_code                       0x0002d740   Data           6  drv_rtc.o(.constdata)
    .constdata                               0x0002d746   Section       16  nrf_fprintf_format.o(.constdata)
    _aV2C                                    0x0002d746   Data          16  nrf_fprintf_format.o(.constdata)
    .constdata                               0x0002d758   Section       36  nrf_pwr_mgmt.o(.constdata)
    pwr_mgmt_data_array                      0x0002d758   Data          24  nrf_pwr_mgmt.o(.constdata)
    pwr_mgmt_data                            0x0002d770   Data          12  nrf_pwr_mgmt.o(.constdata)
    .constdata                               0x0002d77c   Section      316  nrf_strerror.o(.constdata)
    m_unknown_str                            0x0002d77c   Data          19  nrf_strerror.o(.constdata)
    nrf_strerror_array                       0x0002d790   Data         296  nrf_strerror.o(.constdata)
    .constdata                               0x0002d8c0   Section       22  nrf_log_backend_rtt.o(.constdata)
    delay_machine_code                       0x0002d8d0   Data           6  nrf_log_backend_rtt.o(.constdata)
    .constdata                               0x0002d8d8   Section       12  nrf_log_frontend.o(.constdata)
    m_log_push_ringbuf                       0x0002d8d8   Data          12  nrf_log_frontend.o(.constdata)
    .constdata                               0x0002d8e4   Section       88  nrf_sdh.o(.constdata)
    sdh_req_observers_array                  0x0002d8e4   Data          16  nrf_sdh.o(.constdata)
    sdh_req_observers                        0x0002d8f4   Data          12  nrf_sdh.o(.constdata)
    sdh_state_observers_array                0x0002d900   Data          16  nrf_sdh.o(.constdata)
    sdh_state_observers                      0x0002d910   Data          12  nrf_sdh.o(.constdata)
    sdh_stack_observers_array                0x0002d91c   Data          16  nrf_sdh.o(.constdata)
    sdh_stack_observers                      0x0002d92c   Data          12  nrf_sdh.o(.constdata)
    .constdata                               0x0002d93c   Section       48  nrf_sdh_ble.o(.constdata)
    sdh_ble_observers_array                  0x0002d93c   Data          32  nrf_sdh_ble.o(.constdata)
    sdh_ble_observers                        0x0002d95c   Data          12  nrf_sdh_ble.o(.constdata)
    .constdata                               0x0002d96c   Section       28  nrf_sdh_soc.o(.constdata)
    sdh_soc_observers_array                  0x0002d96c   Data          16  nrf_sdh_soc.o(.constdata)
    sdh_soc_observers                        0x0002d97c   Data          12  nrf_sdh_soc.o(.constdata)
    .constdata                               0x0002d988   Section      129  ctype_o.o(.constdata)
    .constdata                               0x0002da0c   Section        4  ctype_o.o(.constdata)
    table                                    0x0002da0c   Data           4  ctype_o.o(.constdata)
    .conststring                             0x0002da10   Section      162  nrf_ble_gatt.o(.conststring)
    .conststring                             0x0002dab4   Section     1003  nrf_strerror.o(.conststring)
    .conststring                             0x0002dea0   Section      102  nrf_log_str_formatter.o(.conststring)
    .conststring                             0x0002df08   Section      463  nrf_sdh_ble.o(.conststring)
    .conststrlit                             0x0002e0d8   Section       13  nrf_ble_gatt.o(.conststrlit)
    .conststrlit                             0x0002e0e8   Section        8  ble_nus.o(.conststrlit)
    .conststrlit                             0x0002e0f0   Section        6  nrf_drv_clock.o(.conststrlit)
    .conststrlit                             0x0002e0f8   Section        6  nrfx_clock.o(.conststrlit)
    .conststrlit                             0x0002e100   Section        7  nrfx_gpiote.o(.conststrlit)
    .conststrlit                             0x0002e108   Section        4  nrfx_prs.o(.conststrlit)
    .conststrlit                             0x0002e10c   Section        5  nrfx_uart.o(.conststrlit)
    .conststrlit                             0x0002e114   Section        6  nrfx_uarte.o(.conststrlit)
    .conststrlit                             0x0002e11c   Section       11  app_button.o(.conststrlit)
    .conststrlit                             0x0002e128   Section       10  app_timer2.o(.conststrlit)
    .conststrlit                             0x0002e134   Section        9  nrf_pwr_mgmt.o(.conststrlit)
    .conststrlit                             0x0002e140   Section        9  nrf_sortlist.o(.conststrlit)
    .conststrlit                             0x0002e14c   Section       16  nrf_log_default_backends.o(.conststrlit)
    .conststrlit                             0x0002e15c   Section        4  nrf_log_frontend.o(.conststrlit)
    .conststrlit                             0x0002e160   Section        8  nrf_sdh.o(.conststrlit)
    .conststrlit                             0x0002e168   Section       12  nrf_sdh_ble.o(.conststrlit)
    .conststrlit                             0x0002e174   Section       12  nrf_sdh_soc.o(.conststrlit)
    log_backends                             0x0002e1a0   Section       16  nrf_log_default_backends.o(log_backends)
    __tagsym$$used                           0x0002e1a0   Number         0  nrf_log_default_backends.o(log_backends)
    rtt_log_backend                          0x0002e1a0   Data          16  nrf_log_default_backends.o(log_backends)
    log_const_data                           0x0002e1b0   Section        8  nrf_ble_gatt.o(log_const_data)
    __tagsym$$used                           0x0002e1b0   Number         0  nrf_ble_gatt.o(log_const_data)
    log_const_data                           0x0002e1b8   Section        8  ble_nus.o(log_const_data)
    __tagsym$$used                           0x0002e1b8   Number         0  ble_nus.o(log_const_data)
    log_const_data                           0x0002e1c0   Section        8  nrf_drv_clock.o(log_const_data)
    __tagsym$$used                           0x0002e1c0   Number         0  nrf_drv_clock.o(log_const_data)
    log_const_data                           0x0002e1c8   Section        8  nrfx_clock.o(log_const_data)
    __tagsym$$used                           0x0002e1c8   Number         0  nrfx_clock.o(log_const_data)
    log_const_data                           0x0002e1d0   Section        8  nrfx_gpiote.o(log_const_data)
    __tagsym$$used                           0x0002e1d0   Number         0  nrfx_gpiote.o(log_const_data)
    log_const_data                           0x0002e1d8   Section        8  nrfx_prs.o(log_const_data)
    __tagsym$$used                           0x0002e1d8   Number         0  nrfx_prs.o(log_const_data)
    log_const_data                           0x0002e1e0   Section        8  nrfx_uart.o(log_const_data)
    __tagsym$$used                           0x0002e1e0   Number         0  nrfx_uart.o(log_const_data)
    log_const_data                           0x0002e1e8   Section        8  nrfx_uarte.o(log_const_data)
    __tagsym$$used                           0x0002e1e8   Number         0  nrfx_uarte.o(log_const_data)
    log_const_data                           0x0002e1f0   Section        8  app_button.o(log_const_data)
    __tagsym$$used                           0x0002e1f0   Number         0  app_button.o(log_const_data)
    log_const_data                           0x0002e1f8   Section        8  app_timer2.o(log_const_data)
    __tagsym$$used                           0x0002e1f8   Number         0  app_timer2.o(log_const_data)
    log_const_data                           0x0002e200   Section        8  nrf_pwr_mgmt.o(log_const_data)
    __tagsym$$used                           0x0002e200   Number         0  nrf_pwr_mgmt.o(log_const_data)
    log_const_data                           0x0002e208   Section        8  nrf_sortlist.o(log_const_data)
    __tagsym$$used                           0x0002e208   Number         0  nrf_sortlist.o(log_const_data)
    log_const_data                           0x0002e210   Section        8  nrf_log_frontend.o(log_const_data)
    __tagsym$$used                           0x0002e210   Number         0  nrf_log_frontend.o(log_const_data)
    log_const_data                           0x0002e218   Section        8  nrf_sdh.o(log_const_data)
    __tagsym$$used                           0x0002e218   Number         0  nrf_sdh.o(log_const_data)
    log_const_data                           0x0002e220   Section        8  nrf_sdh_ble.o(log_const_data)
    __tagsym$$used                           0x0002e220   Number         0  nrf_sdh_ble.o(log_const_data)
    log_const_data                           0x0002e228   Section        8  nrf_sdh_soc.o(log_const_data)
    __tagsym$$used                           0x0002e228   Number         0  nrf_sdh_soc.o(log_const_data)
    nrf_balloc                               0x0002e230   Section       20  nrf_log_frontend.o(nrf_balloc)
    __tagsym$$used                           0x0002e230   Number         0  nrf_log_frontend.o(nrf_balloc)
    sdh_ble_observers0                       0x0002e244   Section        8  ble_conn_state.o(sdh_ble_observers0)
    __tagsym$$used                           0x0002e244   Number         0  ble_conn_state.o(sdh_ble_observers0)
    m_ble_evt_observer                       0x0002e244   Data           8  ble_conn_state.o(sdh_ble_observers0)
    sdh_ble_observers1                       0x0002e24c   Section       16  main.o(sdh_ble_observers1)
    __tagsym$$used                           0x0002e24c   Number         0  main.o(sdh_ble_observers1)
    m_gatt_obs                               0x0002e24c   Data           8  main.o(sdh_ble_observers1)
    __tagsym$$used                           0x0002e254   Number         0  main.o(sdh_ble_observers1)
    m_advertising_ble_obs                    0x0002e254   Data           8  main.o(sdh_ble_observers1)
    sdh_ble_observers1                       0x0002e25c   Section        8  bsp_btn_ble.o(sdh_ble_observers1)
    __tagsym$$used                           0x0002e25c   Number         0  bsp_btn_ble.o(sdh_ble_observers1)
    m_ble_observer                           0x0002e25c   Data           8  bsp_btn_ble.o(sdh_ble_observers1)
    sdh_ble_observers1                       0x0002e264   Section        8  ble_conn_params.o(sdh_ble_observers1)
    __tagsym$$used                           0x0002e264   Number         0  ble_conn_params.o(sdh_ble_observers1)
    m_ble_observer                           0x0002e264   Data           8  ble_conn_params.o(sdh_ble_observers1)
    sdh_ble_observers2                       0x0002e26c   Section       24  main.o(sdh_ble_observers2)
    __tagsym$$used                           0x0002e26c   Number         0  main.o(sdh_ble_observers2)
    m_cus_obs                                0x0002e26c   Data           8  main.o(sdh_ble_observers2)
    __tagsym$$used                           0x0002e274   Number         0  main.o(sdh_ble_observers2)
    m_qwr_obs                                0x0002e274   Data          16  main.o(sdh_ble_observers2)
    sdh_ble_observers3                       0x0002e284   Section        8  main.o(sdh_ble_observers3)
    __tagsym$$used                           0x0002e284   Number         0  main.o(sdh_ble_observers3)
    m_ble_observer                           0x0002e284   Data           8  main.o(sdh_ble_observers3)
    sdh_soc_observers0                       0x0002e28c   Section        8  nrf_drv_clock.o(sdh_soc_observers0)
    __tagsym$$used                           0x0002e28c   Number         0  nrf_drv_clock.o(sdh_soc_observers0)
    m_soc_evt_observer                       0x0002e28c   Data           8  nrf_drv_clock.o(sdh_soc_observers0)
    sdh_stack_observers0                     0x0002e294   Section        8  nrf_sdh_ble.o(sdh_stack_observers0)
    __tagsym$$used                           0x0002e294   Number         0  nrf_sdh_ble.o(sdh_stack_observers0)
    m_nrf_sdh_ble_evts_poll                  0x0002e294   Data           8  nrf_sdh_ble.o(sdh_stack_observers0)
    sdh_stack_observers0                     0x0002e29c   Section        8  nrf_sdh_soc.o(sdh_stack_observers0)
    __tagsym$$used                           0x0002e29c   Number         0  nrf_sdh_soc.o(sdh_stack_observers0)
    m_nrf_sdh_soc_evts_poll                  0x0002e29c   Data           8  nrf_sdh_soc.o(sdh_stack_observers0)
    sdh_state_observers0                     0x0002e2a4   Section        8  nrf_drv_clock.o(sdh_state_observers0)
    __tagsym$$used                           0x0002e2a4   Number         0  nrf_drv_clock.o(sdh_state_observers0)
    m_sd_state_observer                      0x0002e2a4   Data           8  nrf_drv_clock.o(sdh_state_observers0)
    .data                                    0x20004020   Section       15  main.o(.data)
    m_conn_handle                            0x20004020   Data           2  main.o(.data)
    m_ble_nus_max_data_len                   0x20004022   Data           2  main.o(.data)
    m_adv_uuids                              0x20004024   Data           4  main.o(.data)
    notify_en                                0x2000402e   Data           1  main.o(.data)
    .data                                    0x20004030   Section       21  bsp.o(.data)
    m_stable_state                           0x20004030   Data           1  bsp.o(.data)
    m_leds_clear                             0x20004031   Data           1  bsp.o(.data)
    m_indication_type                        0x20004034   Data           4  bsp.o(.data)
    m_alert_on                               0x20004038   Data           1  bsp.o(.data)
    m_registered_callback                    0x2000403c   Data           4  bsp.o(.data)
    current_long_push_pin_no                 0x20004040   Data           1  bsp.o(.data)
    release_event_at_push                    0x20004041   Data           4  bsp.o(.data)
    .data                                    0x20004048   Section        8  bsp_btn_ble.o(.data)
    m_error_handler                          0x20004048   Data           4  bsp_btn_ble.o(.data)
    m_num_connections                        0x2000404c   Data           4  bsp_btn_ble.o(.data)
    .data                                    0x20004050   Section        8  ble_conn_params.o(.data)
    m_preferred_conn_params                  0x20004050   Data           8  ble_conn_params.o(.data)
    .data                                    0x20004058   Section        9  nrf_drv_uart.o(.data)
    m_handlers                               0x20004058   Data           4  nrf_drv_uart.o(.data)
    m_contexts                               0x2000405c   Data           4  nrf_drv_uart.o(.data)
    .data                                    0x20004064   Section        8  nrfx_clock.o(.data)
    m_clock_cb                               0x20004064   Data           8  nrfx_clock.o(.data)
    .data                                    0x2000406c   Section        8  nrfx_prs.o(.data)
    m_prs_box_4                              0x2000406c   Data           8  nrfx_prs.o(.data)
    .data                                    0x20004078   Section       36  app_timer2.o(.data)
    m_rtc_inst                               0x20004078   Data           8  app_timer2.o(.data)
    mp_active_timer                          0x20004080   Data           4  app_timer2.o(.data)
    m_global_active                          0x20004084   Data           1  app_timer2.o(.data)
    m_base_counter                           0x20004088   Data           8  app_timer2.o(.data)
    m_stamp64                                0x20004090   Data           8  app_timer2.o(.data)
    m_app_timer_sortlist_sortlist_cb         0x20004098   Data           4  app_timer2.o(.data)
    .data                                    0x2000409c   Section       27  app_uart_fifo.o(.data)
    app_uart_inst                            0x2000409c   Data          20  app_uart_fifo.o(.data)
    m_event_handler                          0x200040b0   Data           4  app_uart_fifo.o(.data)
    tx_buffer                                0x200040b4   Data           1  app_uart_fifo.o(.data)
    rx_buffer                                0x200040b5   Data           1  app_uart_fifo.o(.data)
    m_rx_ovf                                 0x200040b6   Data           1  app_uart_fifo.o(.data)
    .data                                    0x200040b8   Section       12  drv_rtc.o(.data)
    m_handlers                               0x200040b8   Data           4  drv_rtc.o(.data)
    m_cb                                     0x200040bc   Data           8  drv_rtc.o(.data)
    .data                                    0x200040c4   Section        9  nrf_pwr_mgmt.o(.data)
    m_pwr_mgmt_evt                           0x200040c4   Data           1  nrf_pwr_mgmt.o(.data)
    m_sysoff_mtx                             0x200040c8   Data           4  nrf_pwr_mgmt.o(.data)
    m_shutdown_started                       0x200040cc   Data           1  nrf_pwr_mgmt.o(.data)
    .data                                    0x200040d0   Section        8  retarget.o(.data)
    .data                                    0x200040d8   Section        1  nrf_log_backend_rtt.o(.data)
    m_host_present                           0x200040d8   Data           1  nrf_log_backend_rtt.o(.data)
    .data                                    0x200040dc   Section        8  nrf_log_default_backends.o(.data)
    log_backend_cb_rtt_log_backend           0x200040dc   Data           8  nrf_log_default_backends.o(.data)
    .data                                    0x200040e4   Section       20  nrf_log_frontend.o(.data)
    log_mempool_nrf_balloc_pool_stack        0x200040e4   Data           8  nrf_log_frontend.o(.data)
    log_mempool_nrf_balloc_cb                0x200040ec   Data           8  nrf_log_frontend.o(.data)
    m_buffer_mask                            0x200040f4   Data           4  nrf_log_frontend.o(.data)
    .data                                    0x200040f8   Section       64  nrf_log_str_formatter.o(.data)
    severity_names                           0x200040f8   Data          20  nrf_log_str_formatter.o(.data)
    m_colors                                 0x2000410c   Data          36  nrf_log_str_formatter.o(.data)
    m_freq                                   0x20004130   Data           4  nrf_log_str_formatter.o(.data)
    m_timestamp_div                          0x20004134   Data           4  nrf_log_str_formatter.o(.data)
    .data                                    0x20004138   Section        3  nrf_sdh.o(.data)
    m_nrf_sdh_enabled                        0x20004138   Data           1  nrf_sdh.o(.data)
    m_nrf_sdh_suspended                      0x20004139   Data           1  nrf_sdh.o(.data)
    m_nrf_sdh_continue                       0x2000413a   Data           1  nrf_sdh.o(.data)
    .data                                    0x2000413b   Section        1  nrf_sdh_ble.o(.data)
    m_stack_is_enabled                       0x2000413b   Data           1  nrf_sdh_ble.o(.data)
    .data                                    0x2000413c   Section        4  system_nrf52.o(.data)
    __tagsym$$used                           0x2000413c   Number         0  system_nrf52.o(.data)
    .bss                                     0x20004140   Section     1908  main.o(.bss)
    m_cus                                    0x20004140   Data          24  main.o(.bss)
    m_gatt                                   0x20004158   Data          28  main.o(.bss)
    m_qwr                                    0x20004174   Data          24  main.o(.bss)
    m_advertising                            0x2000418c   Data        1076  main.o(.bss)
    rx_buf                                   0x200046b4   Data         256  main.o(.bss)
    tx_buf                                   0x200047b4   Data         256  main.o(.bss)
    .bss                                     0x200048b8   Section      112  bsp.o(.bss)
    m_bsp_leds_tmr_data                      0x200048b8   Data          32  bsp.o(.bss)
    m_bsp_alert_tmr_data                     0x200048d8   Data          32  bsp.o(.bss)
    m_events_list                            0x200048f8   Data          12  bsp.o(.bss)
    m_bsp_button_tmr_data                    0x20004908   Data          32  bsp.o(.bss)
    .bss                                     0x20004928   Section      132  ble_conn_params.o(.bss)
    m_timer_data                             0x20004928   Data          64  ble_conn_params.o(.bss)
    m_conn_params_instances                  0x20004968   Data          40  ble_conn_params.o(.bss)
    m_conn_params_config                     0x20004990   Data          28  ble_conn_params.o(.bss)
    .bss                                     0x200049ac   Section      124  ble_conn_state.o(.bss)
    m_bcs                                    0x200049ac   Data         124  ble_conn_state.o(.bss)
    .bss                                     0x20004a28   Section       20  nrf_drv_clock.o(.bss)
    m_clock_cb                               0x20004a28   Data          20  nrf_drv_clock.o(.bss)
    .bss                                     0x20004a3c   Section       92  nrfx_gpiote.o(.bss)
    m_cb                                     0x20004a3c   Data          92  nrfx_gpiote.o(.bss)
    .bss                                     0x20004a98   Section       44  nrfx_uart.o(.bss)
    m_cb                                     0x20004a98   Data          44  nrfx_uart.o(.bss)
    .bss                                     0x20004ac4   Section       36  nrfx_uarte.o(.bss)
    m_cb                                     0x20004ac4   Data          36  nrfx_uarte.o(.bss)
    .bss                                     0x20004ae8   Section      104  app_timer2.o(.bss)
    m_req_fifo_data                          0x20004ae8   Data          88  app_timer2.o(.bss)
    m_req_fifo_inst                          0x20004b40   Data          16  app_timer2.o(.bss)
    .bss                                     0x20004b50   Section       32  app_uart_fifo.o(.bss)
    m_rx_fifo                                0x20004b50   Data          16  app_uart_fifo.o(.bss)
    m_tx_fifo                                0x20004b60   Data          16  app_uart_fifo.o(.bss)
    .bss                                     0x20004b70   Section       12  app_util_platform.o(.bss)
    .bss                                     0x20004b7c   Section       12  nrf_pwr_mgmt.o(.bss)
    m_handlers_iter                          0x20004b7c   Data          12  nrf_pwr_mgmt.o(.bss)
    .bss                                     0x20004b88   Section       64  nrf_log_backend_rtt.o(.bss)
    m_string_buff                            0x20004b88   Data          64  nrf_log_backend_rtt.o(.bss)
    .bss                                     0x20004bc8   Section     1400  nrf_log_frontend.o(.bss)
    log_mempool_nrf_balloc_pool_mem          0x20004bc8   Data         192  nrf_log_frontend.o(.bss)
    m_log_push_ringbuf_buf                   0x20004c88   Data         128  nrf_log_frontend.o(.bss)
    m_log_push_ringbuf_cb                    0x20004d08   Data          24  nrf_log_frontend.o(.bss)
    m_log_data                               0x20004d20   Data        1056  nrf_log_frontend.o(.bss)
    .bss                                     0x20005140   Section      648  segger_rtt.o(.bss)
    _acUpBuffer                              0x200051b8   Data         512  segger_rtt.o(.bss)
    _acDownBuffer                            0x200053b8   Data          16  segger_rtt.o(.bss)
    STACK                                    0x200053c8   Section     8192  arm_startup_nrf52.o(STACK)

    Global Symbols

    Symbol Name                              Value     Ov Type        Size  Object(Section)

    BuildAttributes$$THM_ISAv4$E$P$D$K$B$S$7EM$VFPi3$EXTD16$VFPS$VFMA$PE$A:L22UL41UL21$X:L11$S22US41US21$IEEE1$IW$USESV6$~STKCKD$USESV7$~SHL$OSPACE$ROPI$EBA8$MICROLIB$REQ8$EABIv2 0x00000000   Number         0  anon$$obj.o ABSOLUTE
    __ARM_use_no_argv                        0x00000000   Number         0  main.o ABSOLUTE
    _printf_a                                0x00000000   Number         0  stubs.o ABSOLUTE
    _printf_c                                0x00000000   Number         0  stubs.o ABSOLUTE
    _printf_charcount                        0x00000000   Number         0  stubs.o ABSOLUTE
    _printf_d                                0x00000000   Number         0  stubs.o ABSOLUTE
    _printf_e                                0x00000000   Number         0  stubs.o ABSOLUTE
    _printf_f                                0x00000000   Number         0  stubs.o ABSOLUTE
    _printf_flags                            0x00000000   Number         0  stubs.o ABSOLUTE
    _printf_fp_dec                           0x00000000   Number         0  stubs.o ABSOLUTE
    _printf_fp_hex                           0x00000000   Number         0  stubs.o ABSOLUTE
    _printf_g                                0x00000000   Number         0  stubs.o ABSOLUTE
    _printf_i                                0x00000000   Number         0  stubs.o ABSOLUTE
    _printf_int_dec                          0x00000000   Number         0  stubs.o ABSOLUTE
    _printf_l                                0x00000000   Number         0  stubs.o ABSOLUTE
    _printf_lc                               0x00000000   Number         0  stubs.o ABSOLUTE
    _printf_ll                               0x00000000   Number         0  stubs.o ABSOLUTE
    _printf_lld                              0x00000000   Number         0  stubs.o ABSOLUTE
    _printf_lli                              0x00000000   Number         0  stubs.o ABSOLUTE
    _printf_llo                              0x00000000   Number         0  stubs.o ABSOLUTE
    _printf_llu                              0x00000000   Number         0  stubs.o ABSOLUTE
    _printf_llx                              0x00000000   Number         0  stubs.o ABSOLUTE
    _printf_longlong_dec                     0x00000000   Number         0  stubs.o ABSOLUTE
    _printf_longlong_hex                     0x00000000   Number         0  stubs.o ABSOLUTE
    _printf_longlong_oct                     0x00000000   Number         0  stubs.o ABSOLUTE
    _printf_ls                               0x00000000   Number         0  stubs.o ABSOLUTE
    _printf_mbtowc                           0x00000000   Number         0  stubs.o ABSOLUTE
    _printf_n                                0x00000000   Number         0  stubs.o ABSOLUTE
    _printf_o                                0x00000000   Number         0  stubs.o ABSOLUTE
    _printf_p                                0x00000000   Number         0  stubs.o ABSOLUTE
    _printf_percent                          0x00000000   Number         0  stubs.o ABSOLUTE
    _printf_pre_padding                      0x00000000   Number         0  stubs.o ABSOLUTE
    _printf_return_value                     0x00000000   Number         0  stubs.o ABSOLUTE
    _printf_s                                0x00000000   Number         0  stubs.o ABSOLUTE
    _printf_sizespec                         0x00000000   Number         0  stubs.o ABSOLUTE
    _printf_str                              0x00000000   Number         0  stubs.o ABSOLUTE
    _printf_truncate_signed                  0x00000000   Number         0  stubs.o ABSOLUTE
    _printf_truncate_unsigned                0x00000000   Number         0  stubs.o ABSOLUTE
    _printf_u                                0x00000000   Number         0  stubs.o ABSOLUTE
    _printf_wc                               0x00000000   Number         0  stubs.o ABSOLUTE
    _printf_wctomb                           0x00000000   Number         0  stubs.o ABSOLUTE
    _printf_widthprec                        0x00000000   Number         0  stubs.o ABSOLUTE
    _printf_x                                0x00000000   Number         0  stubs.o ABSOLUTE
    __arm_fini_                               - Undefined Weak Reference
    __cpp_initialize__aeabi_                  - Undefined Weak Reference
    __cxa_finalize                            - Undefined Weak Reference
    __decompress                              - Undefined Weak Reference
    _clock_init                               - Undefined Weak Reference
    _microlib_exit                            - Undefined Weak Reference
    log_dynamic_data$$Base                    - Undefined Reference
    pwr_mgmt_data0$$Base                      - Undefined Reference
    pwr_mgmt_data0$$Limit                     - Undefined Reference
    pwr_mgmt_data1$$Base                      - Undefined Reference
    pwr_mgmt_data1$$Limit                     - Undefined Reference
    pwr_mgmt_data2$$Base                      - Undefined Reference
    pwr_mgmt_data2$$Limit                     - Undefined Reference
    sdh_req_observers0$$Base                  - Undefined Reference
    sdh_req_observers0$$Limit                 - Undefined Reference
    sdh_req_observers1$$Base                  - Undefined Reference
    sdh_req_observers1$$Limit                 - Undefined Reference
    sdh_soc_observers1$$Base                  - Undefined Reference
    sdh_soc_observers1$$Limit                 - Undefined Reference
    sdh_stack_observers1$$Base                - Undefined Reference
    sdh_stack_observers1$$Limit               - Undefined Reference
    sdh_state_observers1$$Base                - Undefined Reference
    sdh_state_observers1$$Limit               - Undefined Reference
    __Vectors_Size                           0x00000200   Number         0  arm_startup_nrf52.o ABSOLUTE
    __Vectors                                0x00026000   Data           4  arm_startup_nrf52.o(RESET)
    __Vectors_End                            0x00026200   Data           0  arm_startup_nrf52.o(RESET)
    __main                                   0x00026201   Thumb Code     0  entry.o(.ARM.Collect$$$$00000000)
    _main_stk                                0x00026201   Thumb Code     0  entry2.o(.ARM.Collect$$$$00000001)
    _main_scatterload                        0x00026205   Thumb Code     0  entry5.o(.ARM.Collect$$$$00000004)
    __main_after_scatterload                 0x00026209   Thumb Code     0  entry5.o(.ARM.Collect$$$$00000004)
    _main_clock                              0x00026209   Thumb Code     0  entry7b.o(.ARM.Collect$$$$00000008)
    _main_cpp_init                           0x00026209   Thumb Code     0  entry8b.o(.ARM.Collect$$$$0000000A)
    _main_init                               0x00026209   Thumb Code     0  entry9a.o(.ARM.Collect$$$$0000000B)
    __rt_lib_shutdown_fini                   0x00026211   Thumb Code     0  entry12b.o(.ARM.Collect$$$$0000000E)
    __rt_final_cpp                           0x00026215   Thumb Code     0  entry10a.o(.ARM.Collect$$$$0000000F)
    __rt_final_exit                          0x00026215   Thumb Code     0  entry11a.o(.ARM.Collect$$$$00000011)
    __asm___12_nrf_atfifo_c_51f461e1__nrf_atfifo_wspace_req 0x00026219   Thumb Code    56  nrf_atfifo.o(.emb_text)
    __asm___12_nrf_atfifo_c_51f461e1__nrf_atfifo_wspace_close 0x00026251   Thumb Code    18  nrf_atfifo.o(.emb_text)
    __asm___12_nrf_atfifo_c_51f461e1__nrf_atfifo_rspace_req 0x00026263   Thumb Code    58  nrf_atfifo.o(.emb_text)
    __asm___12_nrf_atfifo_c_51f461e1__nrf_atfifo_rspace_close 0x0002629d   Thumb Code    18  nrf_atfifo.o(.emb_text)
    __asm___12_nrf_atfifo_c_51f461e1__nrf_atfifo_space_clear 0x000262af   Thumb Code    50  nrf_atfifo.o(.emb_text)
    __asm___12_nrf_atomic_c_85ca2469__nrf_atomic_internal_mov 0x000262e1   Thumb Code    24  nrf_atomic.o(.emb_text)
    __asm___12_nrf_atomic_c_85ca2469__nrf_atomic_internal_orr 0x000262f9   Thumb Code    26  nrf_atomic.o(.emb_text)
    __asm___12_nrf_atomic_c_85ca2469__nrf_atomic_internal_and 0x00026313   Thumb Code    26  nrf_atomic.o(.emb_text)
    __asm___12_nrf_atomic_c_85ca2469__nrf_atomic_internal_eor 0x0002632d   Thumb Code    26  nrf_atomic.o(.emb_text)
    __asm___12_nrf_atomic_c_85ca2469__nrf_atomic_internal_add 0x00026347   Thumb Code    26  nrf_atomic.o(.emb_text)
    __asm___12_nrf_atomic_c_85ca2469__nrf_atomic_internal_sub 0x00026361   Thumb Code    26  nrf_atomic.o(.emb_text)
    __asm___12_nrf_atomic_c_85ca2469__nrf_atomic_internal_cmp_exch 0x0002637b   Thumb Code    42  nrf_atomic.o(.emb_text)
    __asm___12_nrf_atomic_c_85ca2469__nrf_atomic_internal_sub_hs 0x000263a5   Thumb Code    30  nrf_atomic.o(.emb_text)
    Reset_Handler                            0x000263c5   Thumb Code     8  arm_startup_nrf52.o(.text)
    NMI_Handler                              0x000263cd   Thumb Code     2  arm_startup_nrf52.o(.text)
    HardFault_Handler                        0x000263cf   Thumb Code     2  arm_startup_nrf52.o(.text)
    MemoryManagement_Handler                 0x000263d1   Thumb Code     2  arm_startup_nrf52.o(.text)
    BusFault_Handler                         0x000263d3   Thumb Code     2  arm_startup_nrf52.o(.text)
    UsageFault_Handler                       0x000263d5   Thumb Code     2  arm_startup_nrf52.o(.text)
    SVC_Handler                              0x000263d7   Thumb Code     2  arm_startup_nrf52.o(.text)
    DebugMon_Handler                         0x000263d9   Thumb Code     2  arm_startup_nrf52.o(.text)
    PendSV_Handler                           0x000263db   Thumb Code     2  arm_startup_nrf52.o(.text)
    SysTick_Handler                          0x000263dd   Thumb Code     2  arm_startup_nrf52.o(.text)
    CCM_AAR_IRQHandler                       0x000263df   Thumb Code     0  arm_startup_nrf52.o(.text)
    COMP_LPCOMP_IRQHandler                   0x000263df   Thumb Code     0  arm_startup_nrf52.o(.text)
    ECB_IRQHandler                           0x000263df   Thumb Code     0  arm_startup_nrf52.o(.text)
    FPU_IRQHandler                           0x000263df   Thumb Code     0  arm_startup_nrf52.o(.text)
    I2S_IRQHandler                           0x000263df   Thumb Code     0  arm_startup_nrf52.o(.text)
    MWU_IRQHandler                           0x000263df   Thumb Code     0  arm_startup_nrf52.o(.text)
    NFCT_IRQHandler                          0x000263df   Thumb Code     0  arm_startup_nrf52.o(.text)
    PDM_IRQHandler                           0x000263df   Thumb Code     0  arm_startup_nrf52.o(.text)
    PWM0_IRQHandler                          0x000263df   Thumb Code     0  arm_startup_nrf52.o(.text)
    PWM1_IRQHandler                          0x000263df   Thumb Code     0  arm_startup_nrf52.o(.text)
    PWM2_IRQHandler                          0x000263df   Thumb Code     0  arm_startup_nrf52.o(.text)
    QDEC_IRQHandler                          0x000263df   Thumb Code     0  arm_startup_nrf52.o(.text)
    RADIO_IRQHandler                         0x000263df   Thumb Code     0  arm_startup_nrf52.o(.text)
    RNG_IRQHandler                           0x000263df   Thumb Code     0  arm_startup_nrf52.o(.text)
    RTC0_IRQHandler                          0x000263df   Thumb Code     0  arm_startup_nrf52.o(.text)
    RTC2_IRQHandler                          0x000263df   Thumb Code     0  arm_startup_nrf52.o(.text)
    SAADC_IRQHandler                         0x000263df   Thumb Code     0  arm_startup_nrf52.o(.text)
    SPIM0_SPIS0_TWIM0_TWIS0_SPI0_TWI0_IRQHandler 0x000263df   Thumb Code     0  arm_startup_nrf52.o(.text)
    SPIM1_SPIS1_TWIM1_TWIS1_SPI1_TWI1_IRQHandler 0x000263df   Thumb Code     0  arm_startup_nrf52.o(.text)
    SPIM2_SPIS2_SPI2_IRQHandler              0x000263df   Thumb Code     0  arm_startup_nrf52.o(.text)
    SWI0_EGU0_IRQHandler                     0x000263df   Thumb Code     0  arm_startup_nrf52.o(.text)
    SWI1_EGU1_IRQHandler                     0x000263df   Thumb Code     0  arm_startup_nrf52.o(.text)
    SWI3_EGU3_IRQHandler                     0x000263df   Thumb Code     0  arm_startup_nrf52.o(.text)
    SWI4_EGU4_IRQHandler                     0x000263df   Thumb Code     0  arm_startup_nrf52.o(.text)
    SWI5_EGU5_IRQHandler                     0x000263df   Thumb Code     0  arm_startup_nrf52.o(.text)
    TEMP_IRQHandler                          0x000263df   Thumb Code     0  arm_startup_nrf52.o(.text)
    TIMER0_IRQHandler                        0x000263df   Thumb Code     0  arm_startup_nrf52.o(.text)
    TIMER1_IRQHandler                        0x000263df   Thumb Code     0  arm_startup_nrf52.o(.text)
    TIMER2_IRQHandler                        0x000263df   Thumb Code     0  arm_startup_nrf52.o(.text)
    TIMER3_IRQHandler                        0x000263df   Thumb Code     0  arm_startup_nrf52.o(.text)
    TIMER4_IRQHandler                        0x000263df   Thumb Code     0  arm_startup_nrf52.o(.text)
    WDT_IRQHandler                           0x000263df   Thumb Code     0  arm_startup_nrf52.o(.text)
    __aeabi_uldivmod                         0x000263e9   Thumb Code    98  uldiv.o(.text)
    __aeabi_llsl                             0x0002644b   Thumb Code    30  llshl.o(.text)
    _ll_shift_l                              0x0002644b   Thumb Code     0  llshl.o(.text)
    __rt_ctype_table                         0x00026469   Thumb Code     4  ctype_o.o(.text)
    __aeabi_memcpy                           0x00026471   Thumb Code    36  memcpya.o(.text)
    __aeabi_memcpy4                          0x00026471   Thumb Code     0  memcpya.o(.text)
    __aeabi_memcpy8                          0x00026471   Thumb Code     0  memcpya.o(.text)
    __aeabi_memset                           0x00026495   Thumb Code    14  memseta.o(.text)
    __aeabi_memset4                          0x00026495   Thumb Code     0  memseta.o(.text)
    __aeabi_memset8                          0x00026495   Thumb Code     0  memseta.o(.text)
    __aeabi_memclr                           0x000264a3   Thumb Code     4  memseta.o(.text)
    __aeabi_memclr4                          0x000264a3   Thumb Code     0  memseta.o(.text)
    __aeabi_memclr8                          0x000264a3   Thumb Code     0  memseta.o(.text)
    _memset$wrapper                          0x000264a7   Thumb Code    18  memseta.o(.text)
    strlen                                   0x000264b9   Thumb Code    14  strlen.o(.text)
    strcpy                                   0x000264c7   Thumb Code    18  strcpy.o(.text)
    __aeabi_llsr                             0x000264d9   Thumb Code    32  llushr.o(.text)
    _ll_ushift_r                             0x000264d9   Thumb Code     0  llushr.o(.text)
    __scatterload                            0x000264f9   Thumb Code    28  init.o(.text)
    __scatterload_rt2                        0x000264f9   Thumb Code     0  init.o(.text)
    GPIOTE_IRQHandler                        0x0002651d   Thumb Code   180  nrfx_gpiote.o(i.GPIOTE_IRQHandler)
    POWER_CLOCK_IRQHandler                   0x000265d9   Thumb Code    80  nrfx_clock.o(i.POWER_CLOCK_IRQHandler)
    RTC1_IRQHandler                          0x0002662d   Thumb Code    14  drv_rtc.o(i.RTC1_IRQHandler)
    SEGGER_RTT_Init                          0x00026645   Thumb Code     8  segger_rtt.o(i.SEGGER_RTT_Init)
    SEGGER_RTT_WriteNoLock                   0x0002664d   Thumb Code   126  segger_rtt.o(i.SEGGER_RTT_WriteNoLock)
    SWI2_EGU2_IRQHandler                     0x000266d1   Thumb Code     8  nrf_sdh.o(i.SWI2_EGU2_IRQHandler)
    SystemCoreClockUpdate                    0x000266d9   Thumb Code     8  system_nrf52.o(i.SystemCoreClockUpdate)
    SystemInit                               0x000266e9   Thumb Code   176  system_nrf52.o(i.SystemInit)
    UARTE0_UART0_IRQHandler                  0x000267a5   Thumb Code    10  nrfx_prs.o(i.UARTE0_UART0_IRQHandler)
    __0printf$2                              0x00026901   Thumb Code    22  printf2.o(i.__0printf$2)
    __1printf$2                              0x00026901   Thumb Code     0  printf2.o(i.__0printf$2)
    __2printf                                0x00026901   Thumb Code     0  printf2.o(i.__0printf$2)
    __scatterload_copy                       0x00026921   Thumb Code    14  handlers.o(i.__scatterload_copy)
    __scatterload_null                       0x0002692f   Thumb Code     2  handlers.o(i.__scatterload_null)
    __scatterload_zeroinit                   0x00026931   Thumb Code    14  handlers.o(i.__scatterload_zeroinit)
    active_flag_count                        0x00026a5b   Thumb Code    30  ble_conn_state.o(i.active_flag_count)
    app_error_fault_handler                  0x00026c05   Thumb Code   146  app_error_weak.o(i.app_error_fault_handler)
    app_error_handler_bare                   0x00026cc5   Thumb Code    28  app_error.o(i.app_error_handler_bare)
    app_fifo_get                             0x00026ce1   Thumb Code    30  app_fifo.o(i.app_fifo_get)
    app_fifo_init                            0x00026cff   Thumb Code    36  app_fifo.o(i.app_fifo_init)
    app_fifo_put                             0x00026d23   Thumb Code    34  app_fifo.o(i.app_fifo_put)
    app_timer_cnt_get                        0x00026d45   Thumb Code    10  app_timer2.o(i.app_timer_cnt_get)
    app_timer_create                         0x00026d55   Thumb Code    32  app_timer2.o(i.app_timer_create)
    app_timer_init                           0x00026d75   Thumb Code    78  app_timer2.o(i.app_timer_init)
    app_timer_start                          0x00026de1   Thumb Code    54  app_timer2.o(i.app_timer_start)
    app_timer_stop                           0x00026e17   Thumb Code    20  app_timer2.o(i.app_timer_stop)
    app_uart_get                             0x00026e2d   Thumb Code    66  app_uart_fifo.o(i.app_uart_get)
    app_uart_init                            0x00026e81   Thumb Code   188  app_uart_fifo.o(i.app_uart_init)
    app_uart_put                             0x00026f5d   Thumb Code    90  app_uart_fifo.o(i.app_uart_put)
    app_util_critical_region_enter           0x00026fc9   Thumb Code    12  app_util_platform.o(i.app_util_critical_region_enter)
    app_util_critical_region_exit            0x00026fd5   Thumb Code    62  app_util_platform.o(i.app_util_critical_region_exit)
    ble_advdata_encode                       0x000271a5   Thumb Code   364  ble_advdata.o(i.ble_advdata_encode)
    ble_advdata_parse                        0x00027311   Thumb Code    40  ble_advdata.o(i.ble_advdata_parse)
    ble_advdata_search                       0x00027339   Thumb Code    92  ble_advdata.o(i.ble_advdata_search)
    ble_advertising_conn_cfg_tag_set         0x00027395   Thumb Code     6  ble_advertising.o(i.ble_advertising_conn_cfg_tag_set)
    ble_advertising_init                     0x0002739b   Thumb Code   264  ble_advertising.o(i.ble_advertising_init)
    ble_advertising_on_ble_evt               0x000274a3   Thumb Code    60  ble_advertising.o(i.ble_advertising_on_ble_evt)
    ble_advertising_start                    0x000274df   Thumb Code   372  ble_advertising.o(i.ble_advertising_start)
    ble_conn_params_init                     0x00027655   Thumb Code   136  ble_conn_params.o(i.ble_conn_params_init)
    ble_conn_state_periph_handles            0x000276f1   Thumb Code    32  ble_conn_state.o(i.ble_conn_state_periph_handles)
    ble_conn_state_peripheral_conn_count     0x00027715   Thumb Code    28  ble_conn_state.o(i.ble_conn_state_peripheral_conn_count)
    ble_cus_data_send                        0x00027735   Thumb Code    50  cus_service.o(i.ble_cus_data_send)
    ble_cus_init                             0x00027769   Thumb Code   294  cus_service.o(i.ble_cus_init)
    ble_cus_on_ble_evt                       0x00027895   Thumb Code    46  cus_service.o(i.ble_cus_on_ble_evt)
    ble_srv_is_notification_enabled          0x00027bbd   Thumb Code    18  ble_srv_common.o(i.ble_srv_is_notification_enabled)
    bsp_board_led_invert                     0x00027c25   Thumb Code    44  boards.o(i.bsp_board_led_invert)
    bsp_board_led_off                        0x00027c55   Thumb Code    16  boards.o(i.bsp_board_led_off)
    bsp_board_led_on                         0x00027c69   Thumb Code    16  boards.o(i.bsp_board_led_on)
    bsp_board_led_state_get                  0x00027c7d   Thumb Code    42  boards.o(i.bsp_board_led_state_get)
    bsp_board_leds_off                       0x00027cad   Thumb Code    20  boards.o(i.bsp_board_leds_off)
    bsp_board_leds_on                        0x00027cc1   Thumb Code    20  boards.o(i.bsp_board_leds_on)
    bsp_board_pin_to_button_idx              0x00027cd5   Thumb Code    32  boards.o(i.bsp_board_pin_to_button_idx)
    bsp_event_to_button_action_assign        0x00027dbd   Thumb Code    86  bsp.o(i.bsp_event_to_button_action_assign)
    bsp_indication_set                       0x00027e19   Thumb Code    28  bsp.o(i.bsp_indication_set)
    buffer_is_empty                          0x000282d5   Thumb Code    20  nrf_log_frontend.o(i.buffer_is_empty)
    characteristic_add                       0x0002832d   Thumb Code   456  ble_srv_common.o(i.characteristic_add)
    conn_handle_list_get                     0x0002859b   Thumb Code    60  ble_conn_state.o(i.conn_handle_list_get)
    drv_rtc_compare_disable                  0x00028999   Thumb Code    22  drv_rtc.o(i.drv_rtc_compare_disable)
    drv_rtc_compare_pending                  0x000289af   Thumb Code    26  drv_rtc.o(i.drv_rtc_compare_pending)
    drv_rtc_compare_set                      0x000289c9   Thumb Code    92  drv_rtc.o(i.drv_rtc_compare_set)
    drv_rtc_counter_get                      0x00028a25   Thumb Code    12  drv_rtc.o(i.drv_rtc_counter_get)
    drv_rtc_init                             0x00028a31   Thumb Code   216  drv_rtc.o(i.drv_rtc_init)
    drv_rtc_irq_trigger                      0x00028b59   Thumb Code    32  drv_rtc.o(i.drv_rtc_irq_trigger)
    drv_rtc_overflow_enable                  0x00028b7d   Thumb Code    18  drv_rtc.o(i.drv_rtc_overflow_enable)
    drv_rtc_overflow_pending                 0x00028b8f   Thumb Code    16  drv_rtc.o(i.drv_rtc_overflow_pending)
    drv_rtc_start                            0x00028b9f   Thumb Code    14  drv_rtc.o(i.drv_rtc_start)
    drv_rtc_stop                             0x00028bad   Thumb Code    14  drv_rtc.o(i.drv_rtc_stop)
    drv_rtc_windowed_compare_set             0x00028bbb   Thumb Code   252  drv_rtc.o(i.drv_rtc_windowed_compare_set)
    fputc                                    0x00028dd7   Thumb Code    16  retarget.o(i.fputc)
    gatt_evt_handler                         0x00028e69   Thumb Code    62  main.o(i.gatt_evt_handler)
    gatt_init                                0x00028ed5   Thumb Code    60  main.o(i.gatt_init)
    main                                     0x000293d1   Thumb Code    86  main.o(i.main)
    nrf_atfifo_init                          0x000296b1   Thumb Code    40  nrf_atfifo.o(i.nrf_atfifo_init)
    nrf_atfifo_item_alloc                    0x000296d9   Thumb Code    28  nrf_atfifo.o(i.nrf_atfifo_item_alloc)
    nrf_atfifo_item_free                     0x000296f5   Thumb Code    28  nrf_atfifo.o(i.nrf_atfifo_item_free)
    nrf_atfifo_item_get                      0x00029711   Thumb Code    28  nrf_atfifo.o(i.nrf_atfifo_item_get)
    nrf_atfifo_item_put                      0x0002972d   Thumb Code    28  nrf_atfifo.o(i.nrf_atfifo_item_put)
    nrf_atflags_clear                        0x00029749   Thumb Code    30  nrf_atflags.o(i.nrf_atflags_clear)
    nrf_atflags_get                          0x00029767   Thumb Code    30  nrf_atflags.o(i.nrf_atflags_get)
    nrf_atflags_set                          0x00029785   Thumb Code    30  nrf_atflags.o(i.nrf_atflags_set)
    nrf_atomic_flag_clear_fetch              0x000297a3   Thumb Code    14  nrf_atomic.o(i.nrf_atomic_flag_clear_fetch)
    nrf_atomic_flag_set                      0x000297b1   Thumb Code    14  nrf_atomic.o(i.nrf_atomic_flag_set)
    nrf_atomic_u32_add                       0x000297bf   Thumb Code    22  nrf_atomic.o(i.nrf_atomic_u32_add)
    nrf_atomic_u32_and                       0x000297d5   Thumb Code    22  nrf_atomic.o(i.nrf_atomic_u32_and)
    nrf_atomic_u32_fetch_and                 0x000297eb   Thumb Code    22  nrf_atomic.o(i.nrf_atomic_u32_fetch_and)
    nrf_atomic_u32_fetch_store               0x00029801   Thumb Code    22  nrf_atomic.o(i.nrf_atomic_u32_fetch_store)
    nrf_atomic_u32_or                        0x00029817   Thumb Code    22  nrf_atomic.o(i.nrf_atomic_u32_or)
    nrf_atomic_u32_sub                       0x0002982d   Thumb Code    22  nrf_atomic.o(i.nrf_atomic_u32_sub)
    nrf_balloc_alloc                         0x00029843   Thumb Code    82  nrf_balloc.o(i.nrf_balloc_alloc)
    nrf_balloc_free                          0x000298a5   Thumb Code    48  nrf_balloc.o(i.nrf_balloc_free)
    nrf_balloc_init                          0x000298e1   Thumb Code    60  nrf_balloc.o(i.nrf_balloc_init)
    nrf_ble_gatt_att_mtu_periph_set          0x00029933   Thumb Code    30  nrf_ble_gatt.o(i.nrf_ble_gatt_att_mtu_periph_set)
    nrf_ble_gatt_init                        0x00029951   Thumb Code    52  nrf_ble_gatt.o(i.nrf_ble_gatt_init)
    nrf_ble_gatt_on_ble_evt                  0x00029985   Thumb Code   202  nrf_ble_gatt.o(i.nrf_ble_gatt_on_ble_evt)
    nrf_ble_qwr_conn_handle_assign           0x00029a8d   Thumb Code    32  nrf_ble_qwr.o(i.nrf_ble_qwr_conn_handle_assign)
    nrf_ble_qwr_init                         0x00029aad   Thumb Code    50  nrf_ble_qwr.o(i.nrf_ble_qwr_init)
    nrf_ble_qwr_on_ble_evt                   0x00029adf   Thumb Code   124  nrf_ble_qwr.o(i.nrf_ble_qwr_on_ble_evt)
    nrf_drv_clock_init                       0x00029b95   Thumb Code    66  nrf_drv_clock.o(i.nrf_drv_clock_init)
    nrf_drv_clock_lfclk_release              0x00029be1   Thumb Code    42  nrf_drv_clock.o(i.nrf_drv_clock_lfclk_release)
    nrf_drv_uart_init                        0x00029c11   Thumb Code   118  nrf_drv_uart.o(i.nrf_drv_uart_init)
    nrf_fprintf                              0x00029d25   Thumb Code    42  nrf_fprintf.o(i.nrf_fprintf)
    nrf_fprintf_buffer_flush                 0x00029d4f   Thumb Code    28  nrf_fprintf.o(i.nrf_fprintf_buffer_flush)
    nrf_fprintf_fmt                          0x00029d6b   Thumb Code   496  nrf_fprintf_format.o(i.nrf_fprintf_fmt)
    nrf_log_backend_add                      0x0002a185   Thumb Code    78  nrf_log_frontend.o(i.nrf_log_backend_add)
    nrf_log_backend_rtt_init                 0x0002a1db   Thumb Code     8  nrf_log_backend_rtt.o(i.nrf_log_backend_rtt_init)
    nrf_log_backend_serial_put               0x0002a205   Thumb Code   242  nrf_log_backend_serial.o(i.nrf_log_backend_serial_put)
    nrf_log_color_id_get                     0x0002a2f9   Thumb Code    52  nrf_log_frontend.o(i.nrf_log_color_id_get)
    nrf_log_default_backends_init            0x0002a331   Thumb Code    34  nrf_log_default_backends.o(i.nrf_log_default_backends_init)
    nrf_log_frontend_dequeue                 0x0002a359   Thumb Code   756  nrf_log_frontend.o(i.nrf_log_frontend_dequeue)
    nrf_log_frontend_std_0                   0x0002a675   Thumb Code    20  nrf_log_frontend.o(i.nrf_log_frontend_std_0)
    nrf_log_frontend_std_1                   0x0002a689   Thumb Code    24  nrf_log_frontend.o(i.nrf_log_frontend_std_1)
    nrf_log_frontend_std_2                   0x0002a6a1   Thumb Code    32  nrf_log_frontend.o(i.nrf_log_frontend_std_2)
    nrf_log_hexdump_entry_process            0x0002a6c1   Thumb Code   164  nrf_log_str_formatter.o(i.nrf_log_hexdump_entry_process)
    nrf_log_init                             0x0002a77d   Thumb Code    50  nrf_log_frontend.o(i.nrf_log_init)
    nrf_log_module_cnt_get                   0x0002a7c5   Thumb Code    10  nrf_log_frontend.o(i.nrf_log_module_cnt_get)
    nrf_log_module_name_get                  0x0002a7d9   Thumb Code    30  nrf_log_frontend.o(i.nrf_log_module_name_get)
    nrf_log_panic                            0x0002a7fd   Thumb Code    48  nrf_log_frontend.o(i.nrf_log_panic)
    nrf_log_std_entry_process                0x0002a831   Thumb Code   200  nrf_log_str_formatter.o(i.nrf_log_std_entry_process)
    nrf_memobj_alloc                         0x0002a8f9   Thumb Code   122  nrf_memobj.o(i.nrf_memobj_alloc)
    nrf_memobj_free                          0x0002a973   Thumb Code    64  nrf_memobj.o(i.nrf_memobj_free)
    nrf_memobj_get                           0x0002a9b3   Thumb Code    16  nrf_memobj.o(i.nrf_memobj_get)
    nrf_memobj_pool_init                     0x0002a9c3   Thumb Code    12  nrf_memobj.o(i.nrf_memobj_pool_init)
    nrf_memobj_put                           0x0002a9cf   Thumb Code    30  nrf_memobj.o(i.nrf_memobj_put)
    nrf_memobj_read                          0x0002a9ed   Thumb Code    34  nrf_memobj.o(i.nrf_memobj_read)
    nrf_memobj_write                         0x0002aa0f   Thumb Code    34  nrf_memobj.o(i.nrf_memobj_write)
    nrf_pwr_mgmt_init                        0x0002aa31   Thumb Code    46  nrf_pwr_mgmt.o(i.nrf_pwr_mgmt_init)
    nrf_pwr_mgmt_run                         0x0002aa71   Thumb Code   104  nrf_pwr_mgmt.o(i.nrf_pwr_mgmt_run)
    nrf_ringbuf_init                         0x0002aaed   Thumb Code    28  nrf_ringbuf.o(i.nrf_ringbuf_init)
    nrf_sdh_ble_app_ram_start_get            0x0002ab55   Thumb Code    18  nrf_sdh_ble.o(i.nrf_sdh_ble_app_ram_start_get)
    nrf_sdh_ble_default_cfg_set              0x0002ab6d   Thumb Code   382  nrf_sdh_ble.o(i.nrf_sdh_ble_default_cfg_set)
    nrf_sdh_ble_enable                       0x0002ad0d   Thumb Code   144  nrf_sdh_ble.o(i.nrf_sdh_ble_enable)
    nrf_sdh_enable_request                   0x0002aecd   Thumb Code   112  nrf_sdh.o(i.nrf_sdh_enable_request)
    nrf_sdh_evts_poll                        0x0002af51   Thumb Code    44  nrf_sdh.o(i.nrf_sdh_evts_poll)
    nrf_sdh_is_enabled                       0x0002af81   Thumb Code     6  nrf_sdh.o(i.nrf_sdh_is_enabled)
    nrf_section_iter_init                    0x0002afe7   Thumb Code    20  nrf_section_iter.o(i.nrf_section_iter_init)
    nrf_section_iter_next                    0x0002b029   Thumb Code    46  nrf_section_iter.o(i.nrf_section_iter_next)
    nrf_sortlist_add                         0x0002b057   Thumb Code    40  nrf_sortlist.o(i.nrf_sortlist_add)
    nrf_sortlist_peek                        0x0002b07f   Thumb Code     8  nrf_sortlist.o(i.nrf_sortlist_peek)
    nrf_sortlist_pop                         0x0002b087   Thumb Code    24  nrf_sortlist.o(i.nrf_sortlist_pop)
    nrf_sortlist_remove                      0x0002b09f   Thumb Code    38  nrf_sortlist.o(i.nrf_sortlist_remove)
    nrf_strerror_find                        0x0002b0c5   Thumb Code    60  nrf_strerror.o(i.nrf_strerror_find)
    nrf_strerror_get                         0x0002b105   Thumb Code    22  nrf_strerror.o(i.nrf_strerror_get)
    nrfx_clock_enable                        0x0002b209   Thumb Code    16  nrfx_clock.o(i.nrfx_clock_enable)
    nrfx_clock_init                          0x0002b21d   Thumb Code    30  nrfx_clock.o(i.nrfx_clock_init)
    nrfx_clock_lfclk_stop                    0x0002b241   Thumb Code    40  nrfx_clock.o(i.nrfx_clock_lfclk_stop)
    nrfx_prs_acquire                         0x0002b361   Thumb Code    78  nrfx_prs.o(i.nrfx_prs_acquire)
    nrfx_uart_0_irq_handler                  0x0002b3b1   Thumb Code    12  nrfx_uart.o(i.nrfx_uart_0_irq_handler)
    nrfx_uart_init                           0x0002b3c5   Thumb Code   128  nrfx_uart.o(i.nrfx_uart_init)
    nrfx_uart_rx                             0x0002b44d   Thumb Code   286  nrfx_uart.o(i.nrfx_uart_rx)
    nrfx_uart_tx                             0x0002b571   Thumb Code   134  nrfx_uart.o(i.nrfx_uart_tx)
    nrfx_uart_tx_in_progress                 0x0002b5fd   Thumb Code    30  nrfx_uart.o(i.nrfx_uart_tx_in_progress)
    nrfx_uarte_0_irq_handler                 0x0002b621   Thumb Code    12  nrfx_uarte.o(i.nrfx_uarte_0_irq_handler)
    nrfx_uarte_init                          0x0002b635   Thumb Code   120  nrfx_uarte.o(i.nrfx_uarte_init)
    nrfx_uarte_rx                            0x0002b6b5   Thumb Code   306  nrfx_uarte.o(i.nrfx_uarte_rx)
    nrfx_uarte_tx                            0x0002b7ed   Thumb Code   188  nrfx_uarte.o(i.nrfx_uarte_tx)
    nrfx_uarte_tx_in_progress                0x0002b8ad   Thumb Code    26  nrfx_uarte.o(i.nrfx_uarte_tx_in_progress)
    nvmc_config                              0x0002b8cd   Thumb Code    14  system_nrf52.o(i.nvmc_config)
    nvmc_wait                                0x0002b8e1   Thumb Code    12  system_nrf52.o(i.nvmc_wait)
    uart_event_handle                        0x0002ce6d   Thumb Code   138  main.o(i.uart_event_handle)
    nrf_log_backend_rtt_api                  0x0002d8c0   Data          12  nrf_log_backend_rtt.o(.constdata)
    m_ram_start                              0x0002d968   Data           4  nrf_sdh_ble.o(.constdata)
    __ctype_table                            0x0002d988   Data         129  ctype_o.o(.constdata)
    Region$$Table$$Base                      0x0002e180   Number         0  anon$$obj.o(Region$$Table)
    Region$$Table$$Limit                     0x0002e1a0   Number         0  anon$$obj.o(Region$$Table)
    log_const_data$$Base                     0x0002e1b0   Number         0  nrf_ble_gatt.o(log_const_data)
    m_nrf_log_nrf_ble_gatt_logs_data_const   0x0002e1b0   Data           8  nrf_ble_gatt.o(log_const_data)
    m_nrf_log_ble_nus_logs_data_const        0x0002e1b8   Data           8  ble_nus.o(log_const_data)
    m_nrf_log_clock_logs_data_const          0x0002e1c0   Data           8  nrf_drv_clock.o(log_const_data)
    m_nrf_log_CLOCK_logs_data_const          0x0002e1c8   Data           8  nrfx_clock.o(log_const_data)
    m_nrf_log_GPIOTE_logs_data_const         0x0002e1d0   Data           8  nrfx_gpiote.o(log_const_data)
    m_nrf_log_PRS_logs_data_const            0x0002e1d8   Data           8  nrfx_prs.o(log_const_data)
    m_nrf_log_UART_logs_data_const           0x0002e1e0   Data           8  nrfx_uart.o(log_const_data)
    m_nrf_log_UARTE_logs_data_const          0x0002e1e8   Data           8  nrfx_uarte.o(log_const_data)
    m_nrf_log_app_button_logs_data_const     0x0002e1f0   Data           8  app_button.o(log_const_data)
    m_nrf_log_app_timer_logs_data_const      0x0002e1f8   Data           8  app_timer2.o(log_const_data)
    m_nrf_log_pwr_mgmt_logs_data_const       0x0002e200   Data           8  nrf_pwr_mgmt.o(log_const_data)
    m_nrf_log_sortlist_logs_data_const       0x0002e208   Data           8  nrf_sortlist.o(log_const_data)
    m_nrf_log_app_logs_data_const            0x0002e210   Data           8  nrf_log_frontend.o(log_const_data)
    m_nrf_log_nrf_sdh_logs_data_const        0x0002e218   Data           8  nrf_sdh.o(log_const_data)
    m_nrf_log_nrf_sdh_ble_logs_data_const    0x0002e220   Data           8  nrf_sdh_ble.o(log_const_data)
    m_nrf_log_nrf_sdh_soc_logs_data_const    0x0002e228   Data           8  nrf_sdh_soc.o(log_const_data)
    log_const_data$$Limit                    0x0002e230   Number         0  nrf_sdh_soc.o(log_const_data)
    log_mempool                              0x0002e230   Data          20  nrf_log_frontend.o(nrf_balloc)
    sdh_ble_observers0$$Base                 0x0002e244   Number         0  ble_conn_state.o(sdh_ble_observers0)
    sdh_ble_observers0$$Limit                0x0002e24c   Number         0  ble_conn_state.o(sdh_ble_observers0)
    sdh_ble_observers1$$Base                 0x0002e24c   Number         0  main.o(sdh_ble_observers1)
    sdh_ble_observers1$$Limit                0x0002e26c   Number         0  ble_conn_params.o(sdh_ble_observers1)
    sdh_ble_observers2$$Base                 0x0002e26c   Number         0  main.o(sdh_ble_observers2)
    sdh_ble_observers2$$Limit                0x0002e284   Number         0  main.o(sdh_ble_observers2)
    sdh_ble_observers3$$Base                 0x0002e284   Number         0  main.o(sdh_ble_observers3)
    sdh_ble_observers3$$Limit                0x0002e28c   Number         0  main.o(sdh_ble_observers3)
    sdh_soc_observers0$$Base                 0x0002e28c   Number         0  nrf_drv_clock.o(sdh_soc_observers0)
    sdh_soc_observers0$$Limit                0x0002e294   Number         0  nrf_drv_clock.o(sdh_soc_observers0)
    sdh_stack_observers0$$Base               0x0002e294   Number         0  nrf_sdh_ble.o(sdh_stack_observers0)
    sdh_stack_observers0$$Limit              0x0002e2a4   Number         0  nrf_sdh_soc.o(sdh_stack_observers0)
    sdh_state_observers0$$Base               0x0002e2a4   Number         0  nrf_drv_clock.o(sdh_state_observers0)
    sdh_state_observers0$$Limit              0x0002e2ac   Number         0  nrf_drv_clock.o(sdh_state_observers0)
    Image$$RW_IRAM1$$Base                    0x20004020   Number         0  anon$$obj.o ABSOLUTE
    periph_link_count                        0x20004028   Data           4  main.o(.data)
    index                                    0x2000402c   Data           2  main.o(.data)
    nrf_drv_uart_use_easy_dma                0x20004060   Data           1  nrf_drv_uart.o(.data)
    __stdout                                 0x200040d0   Data           4  retarget.o(.data)
    __stdin                                  0x200040d4   Data           4  retarget.o(.data)
    SystemCoreClock                          0x2000413c   Data           4  system_nrf52.o(.data)
    data_array                               0x200045c0   Data         244  main.o(.bss)
    nrf_nvic_state                           0x20004b70   Data          12  app_util_platform.o(.bss)
    _SEGGER_RTT                              0x20005140   Data         120  segger_rtt.o(.bss)
    __initial_sp                             0x200073c8   Data           0  arm_startup_nrf52.o(STACK)



==============================================================================

Memory Map of the image

  Image Entry point : 0x00026201

  Load Region LR_IROM1 (Base: 0x00026000, Size: 0x000083cc, Max: 0x0005a000, ABSOLUTE)

    Execution Region ER_IROM1 (Exec base: 0x00026000, Load base: 0x00026000, Size: 0x000082ac, Max: 0x0005a000, ABSOLUTE)

    Exec Addr    Load Addr    Size         Type   Attr      Idx    E Section Name        Object

    0x00026000   0x00026000   0x00000200   Data   RO         5971    RESET               arm_startup_nrf52.o
    0x00026200   0x00026200   0x00000000   Code   RO         7874  * .ARM.Collect$$$$00000000  mc_w.l(entry.o)
    0x00026200   0x00026200   0x00000004   Code   RO         8182    .ARM.Collect$$$$00000001  mc_w.l(entry2.o)
    0x00026204   0x00026204   0x00000004   Code   RO         8185    .ARM.Collect$$$$00000004  mc_w.l(entry5.o)
    0x00026208   0x00026208   0x00000000   Code   RO         8187    .ARM.Collect$$$$00000008  mc_w.l(entry7b.o)
    0x00026208   0x00026208   0x00000000   Code   RO         8189    .ARM.Collect$$$$0000000A  mc_w.l(entry8b.o)
    0x00026208   0x00026208   0x00000008   Code   RO         8190    .ARM.Collect$$$$0000000B  mc_w.l(entry9a.o)
    0x00026210   0x00026210   0x00000004   Code   RO         8197    .ARM.Collect$$$$0000000E  mc_w.l(entry12b.o)
    0x00026214   0x00026214   0x00000000   Code   RO         8192    .ARM.Collect$$$$0000000F  mc_w.l(entry10a.o)
    0x00026214   0x00026214   0x00000000   Code   RO         8194    .ARM.Collect$$$$00000011  mc_w.l(entry11a.o)
    0x00026214   0x00026214   0x00000004   Code   RO         8183    .ARM.Collect$$$$00002712  mc_w.l(entry2.o)
    0x00026218   0x00026218   0x000000c8   Code   RO         4290    .emb_text           nrf_atfifo.o
    0x000262e0   0x000262e0   0x000000e2   Code   RO         4429    .emb_text           nrf_atomic.o
    0x000263c2   0x000263c2   0x00000002   PAD
    0x000263c4   0x000263c4   0x00000024   Code   RO         5972    .text               arm_startup_nrf52.o
    0x000263e8   0x000263e8   0x00000062   Code   RO         7877    .text               mc_w.l(uldiv.o)
    0x0002644a   0x0002644a   0x0000001e   Code   RO         7879    .text               mc_w.l(llshl.o)
    0x00026468   0x00026468   0x00000008   Code   RO         7881    .text               mc_w.l(ctype_o.o)
    0x00026470   0x00026470   0x00000024   Code   RO         7909    .text               mc_w.l(memcpya.o)
    0x00026494   0x00026494   0x00000024   Code   RO         7911    .text               mc_w.l(memseta.o)
    0x000264b8   0x000264b8   0x0000000e   Code   RO         7913    .text               mc_w.l(strlen.o)
    0x000264c6   0x000264c6   0x00000012   Code   RO         7917    .text               mc_w.l(strcpy.o)
    0x000264d8   0x000264d8   0x00000020   Code   RO         8200    .text               mc_w.l(llushr.o)
    0x000264f8   0x000264f8   0x00000024   Code   RO         8213    .text               mc_w.l(init.o)
    0x0002651c   0x0002651c   0x000000bc   Code   RO         2460    i.GPIOTE_IRQHandler  nrfx_gpiote.o
    0x000265d8   0x000265d8   0x00000054   Code   RO         2292    i.POWER_CLOCK_IRQHandler  nrfx_clock.o
    0x0002662c   0x0002662c   0x00000018   Code   RO         4026    i.RTC1_IRQHandler   drv_rtc.o
    0x00026644   0x00026644   0x00000008   Code   RO         5496    i.SEGGER_RTT_Init   segger_rtt.o
    0x0002664c   0x0002664c   0x00000084   Code   RO         5510    i.SEGGER_RTT_WriteNoLock  segger_rtt.o
    0x000266d0   0x000266d0   0x00000008   Code   RO         5748    i.SWI2_EGU2_IRQHandler  nrf_sdh.o
    0x000266d8   0x000266d8   0x00000010   Code   RO         5979    i.SystemCoreClockUpdate  system_nrf52.o
    0x000266e8   0x000266e8   0x000000bc   Code   RO         5980    i.SystemInit        system_nrf52.o
    0x000267a4   0x000267a4   0x00000010   Code   RO         2830    i.UARTE0_UART0_IRQHandler  nrfx_prs.o
    0x000267b4   0x000267b4   0x00000070   Code   RO         5514    i._DoInit           segger_rtt.o
    0x00026824   0x00026824   0x0000001c   Code   RO         5515    i._GetAvailWriteSpace  segger_rtt.o
    0x00026840   0x00026840   0x00000072   Code   RO         5517    i._WriteBlocking    segger_rtt.o
    0x000268b2   0x000268b2   0x0000004c   Code   RO         5518    i._WriteNoCheck     segger_rtt.o
    0x000268fe   0x000268fe   0x00000002   PAD
    0x00026900   0x00026900   0x00000020   Code   RO         7988    i.__0printf$2       mc_w.l(printf2.o)
    0x00026920   0x00026920   0x0000000e   Code   RO         8221    i.__scatterload_copy  mc_w.l(handlers.o)
    0x0002692e   0x0002692e   0x00000002   Code   RO         8222    i.__scatterload_null  mc_w.l(handlers.o)
    0x00026930   0x00026930   0x0000000e   Code   RO         8223    i.__scatterload_zeroinit  mc_w.l(handlers.o)
    0x0002693e   0x0002693e   0x00000002   PAD
    0x00026940   0x00026940   0x00000038   Code   RO         5749    i.__sd_nvic_app_accessible_irq  nrf_sdh.o
    0x00026978   0x00026978   0x0000000c   Code   RO         3948    i.__sd_nvic_irq_disable  app_util_platform.o
    0x00026984   0x00026984   0x000000d6   Code   RO         7995    i._printf_core      mc_w.l(printf2.o)
    0x00026a5a   0x00026a5a   0x0000001e   Code   RO         1330    i.active_flag_count  ble_conn_state.o
    0x00026a78   0x00026a78   0x00000018   Code   RO         1052    i.addr_is_valid     ble_advertising.o
    0x00026a90   0x00026a90   0x00000058   Code   RO         1053    i.adv_mode_next_avail_get  ble_advertising.o
    0x00026ae8   0x00026ae8   0x00000012   Code   RO         1054    i.adv_mode_next_get  ble_advertising.o
    0x00026afa   0x00026afa   0x00000012   Code   RO         1055    i.adv_set_data_size_max_get  ble_advertising.o
    0x00026b0c   0x00026b0c   0x00000054   Code   RO          773    i.advertising_buttons_configure  bsp_btn_ble.o
    0x00026b60   0x00026b60   0x00000070   Code   RO            4    i.advertising_init  main.o
    0x00026bd0   0x00026bd0   0x00000034   Code   RO            5    i.advertising_start  main.o
    0x00026c04   0x00026c04   0x000000c0   Code   RO         3514    i.app_error_fault_handler  app_error_weak.o
    0x00026cc4   0x00026cc4   0x0000001c   Code   RO         3454    i.app_error_handler_bare  app_error.o
    0x00026ce0   0x00026ce0   0x0000001e   Code   RO         3565    i.app_fifo_get      app_fifo.o
    0x00026cfe   0x00026cfe   0x00000024   Code   RO         3566    i.app_fifo_init     app_fifo.o
    0x00026d22   0x00026d22   0x00000022   Code   RO         3568    i.app_fifo_put      app_fifo.o
    0x00026d44   0x00026d44   0x00000010   Code   RO         3704    i.app_timer_cnt_get  app_timer2.o
    0x00026d54   0x00026d54   0x00000020   Code   RO         3705    i.app_timer_create  app_timer2.o
    0x00026d74   0x00026d74   0x0000006c   Code   RO         3706    i.app_timer_init    app_timer2.o
    0x00026de0   0x00026de0   0x00000036   Code   RO         3709    i.app_timer_start   app_timer2.o
    0x00026e16   0x00026e16   0x00000014   Code   RO         3710    i.app_timer_stop    app_timer2.o
    0x00026e2a   0x00026e2a   0x00000002   PAD
    0x00026e2c   0x00026e2c   0x00000054   Code   RO         3865    i.app_uart_get      app_uart_fifo.o
    0x00026e80   0x00026e80   0x000000dc   Code   RO         3866    i.app_uart_init     app_uart_fifo.o
    0x00026f5c   0x00026f5c   0x0000006c   Code   RO         3867    i.app_uart_put      app_uart_fifo.o
    0x00026fc8   0x00026fc8   0x0000000c   Code   RO         3949    i.app_util_critical_region_enter  app_util_platform.o
    0x00026fd4   0x00026fd4   0x00000048   Code   RO         3950    i.app_util_critical_region_exit  app_util_platform.o
    0x0002701c   0x0002701c   0x00000052   Code   RO          922    i.appearance_encode  ble_advdata.o
    0x0002706e   0x0002706e   0x0000007c   Code   RO         2884    i.apply_config      nrfx_uart.o
    0x000270ea   0x000270ea   0x0000007c   Code   RO         3129    i.apply_config      nrfx_uarte.o
    0x00027166   0x00027166   0x00000002   PAD
    0x00027168   0x00027168   0x0000003c   Code   RO         5228    i.backend_id_assign  nrf_log_frontend.o
    0x000271a4   0x000271a4   0x0000016c   Code   RO          924    i.ble_advdata_encode  ble_advdata.o
    0x00027310   0x00027310   0x00000028   Code   RO          926    i.ble_advdata_parse  ble_advdata.o
    0x00027338   0x00027338   0x0000005c   Code   RO          927    i.ble_advdata_search  ble_advdata.o
    0x00027394   0x00027394   0x00000006   Code   RO         1057    i.ble_advertising_conn_cfg_tag_set  ble_advertising.o
    0x0002739a   0x0002739a   0x00000108   Code   RO         1058    i.ble_advertising_init  ble_advertising.o
    0x000274a2   0x000274a2   0x0000003c   Code   RO         1060    i.ble_advertising_on_ble_evt  ble_advertising.o
    0x000274de   0x000274de   0x00000174   Code   RO         1063    i.ble_advertising_start  ble_advertising.o
    0x00027652   0x00027652   0x00000002   PAD
    0x00027654   0x00027654   0x0000009c   Code   RO         1227    i.ble_conn_params_init  ble_conn_params.o
    0x000276f0   0x000276f0   0x00000024   Code   RO         1343    i.ble_conn_state_periph_handles  ble_conn_state.o
    0x00027714   0x00027714   0x00000020   Code   RO         1344    i.ble_conn_state_peripheral_conn_count  ble_conn_state.o
    0x00027734   0x00027734   0x00000032   Code   RO         1871    i.ble_cus_data_send  cus_service.o
    0x00027766   0x00027766   0x00000002   PAD
    0x00027768   0x00027768   0x0000012c   Code   RO         1872    i.ble_cus_init      cus_service.o
    0x00027894   0x00027894   0x0000002e   Code   RO         1873    i.ble_cus_on_ble_evt  cus_service.o
    0x000278c2   0x000278c2   0x00000076   Code   RO          930    i.ble_device_addr_encode  ble_advdata.o
    0x00027938   0x00027938   0x00000114   Code   RO            7    i.ble_evt_handler   main.o
    0x00027a4c   0x00027a4c   0x00000078   Code   RO          774    i.ble_evt_handler   bsp_btn_ble.o
    0x00027ac4   0x00027ac4   0x00000040   Code   RO         1229    i.ble_evt_handler   ble_conn_params.o
    0x00027b04   0x00027b04   0x000000b8   Code   RO         1351    i.ble_evt_handler   ble_conn_state.o
    0x00027bbc   0x00027bbc   0x00000012   Code   RO         1555    i.ble_srv_is_notification_enabled  ble_srv_common.o
    0x00027bce   0x00027bce   0x00000056   Code   RO            8    i.ble_stack_init    main.o
    0x00027c24   0x00027c24   0x00000030   Code   RO          491    i.bsp_board_led_invert  boards.o
    0x00027c54   0x00027c54   0x00000014   Code   RO          492    i.bsp_board_led_off  boards.o
    0x00027c68   0x00027c68   0x00000014   Code   RO          493    i.bsp_board_led_on  boards.o
    0x00027c7c   0x00027c7c   0x00000030   Code   RO          494    i.bsp_board_led_state_get  boards.o
    0x00027cac   0x00027cac   0x00000014   Code   RO          496    i.bsp_board_leds_off  boards.o
    0x00027cc0   0x00027cc0   0x00000014   Code   RO          497    i.bsp_board_leds_on  boards.o
    0x00027cd4   0x00027cd4   0x00000024   Code   RO          498    i.bsp_board_pin_to_button_idx  boards.o
    0x00027cf8   0x00027cf8   0x000000c4   Code   RO          644    i.bsp_button_event_handler  bsp.o
    0x00027dbc   0x00027dbc   0x0000005c   Code   RO          648    i.bsp_event_to_button_action_assign  bsp.o
    0x00027e18   0x00027e18   0x00000020   Code   RO          649    i.bsp_indication_set  bsp.o
    0x00027e38   0x00027e38   0x00000388   Code   RO          651    i.bsp_led_indication  bsp.o
    0x000281c0   0x000281c0   0x000000e8   Code   RO         5229    i.buf_prealloc      nrf_log_frontend.o
    0x000282a8   0x000282a8   0x0000002c   Code   RO         4654    i.buffer_add        nrf_fprintf_format.o
    0x000282d4   0x000282d4   0x00000018   Code   RO         5230    i.buffer_is_empty   nrf_log_frontend.o
    0x000282ec   0x000282ec   0x00000022   Code   RO           10    i.buttons_leds_init  main.o
    0x0002830e   0x0002830e   0x00000002   PAD
    0x00028310   0x00028310   0x00000010   Code   RO         2462    i.channel_handler_get  nrfx_gpiote.o
    0x00028320   0x00028320   0x0000000c   Code   RO         2464    i.channel_port_get  nrfx_gpiote.o
    0x0002832c   0x0002832c   0x000001c8   Code   RO         1557    i.characteristic_add  ble_srv_common.o
    0x000284f4   0x000284f4   0x00000030   Code   RO         1921    i.clock_clk_started_notify  nrf_drv_clock.o
    0x00028524   0x00028524   0x00000028   Code   RO         1922    i.clock_irq_handler  nrf_drv_clock.o
    0x0002854c   0x0002854c   0x00000026   Code   RO         3712    i.compare_func      app_timer2.o
    0x00028572   0x00028572   0x00000028   Code   RO         1065    i.config_is_valid   ble_advertising.o
    0x0002859a   0x0002859a   0x0000003c   Code   RO         1352    i.conn_handle_list_get  ble_conn_state.o
    0x000285d6   0x000285d6   0x0000005a   Code   RO          931    i.conn_int_check    ble_advdata.o
    0x00028630   0x00028630   0x00000068   Code   RO          932    i.conn_int_encode   ble_advdata.o
    0x00028698   0x00028698   0x00000010   Code   RO           11    i.conn_params_error_handler  main.o
    0x000286a8   0x000286a8   0x0000005c   Code   RO           12    i.conn_params_init  main.o
    0x00028704   0x00028704   0x00000054   Code   RO         1230    i.conn_params_negotiation  ble_conn_params.o
    0x00028758   0x00028758   0x00000054   Code   RO          777    i.connection_buttons_configure  bsp_btn_ble.o
    0x000287ac   0x000287ac   0x000000ec   Code   RO           13    i.cus_data_handler  main.o
    0x00028898   0x00028898   0x000000e8   Code   RO         1624    i.data_length_update  nrf_ble_gatt.o
    0x00028980   0x00028980   0x00000018   Code   RO         5231    i.dropped_sat16_get  nrf_log_frontend.o
    0x00028998   0x00028998   0x00000016   Code   RO         4027    i.drv_rtc_compare_disable  drv_rtc.o
    0x000289ae   0x000289ae   0x0000001a   Code   RO         4030    i.drv_rtc_compare_pending  drv_rtc.o
    0x000289c8   0x000289c8   0x0000005c   Code   RO         4031    i.drv_rtc_compare_set  drv_rtc.o
    0x00028a24   0x00028a24   0x0000000c   Code   RO         4032    i.drv_rtc_counter_get  drv_rtc.o
    0x00028a30   0x00028a30   0x00000128   Code   RO         4033    i.drv_rtc_init      drv_rtc.o
    0x00028b58   0x00028b58   0x00000024   Code   RO         4034    i.drv_rtc_irq_trigger  drv_rtc.o
    0x00028b7c   0x00028b7c   0x00000012   Code   RO         4036    i.drv_rtc_overflow_enable  drv_rtc.o
    0x00028b8e   0x00028b8e   0x00000010   Code   RO         4037    i.drv_rtc_overflow_pending  drv_rtc.o
    0x00028b9e   0x00028b9e   0x0000000e   Code   RO         4038    i.drv_rtc_start     drv_rtc.o
    0x00028bac   0x00028bac   0x0000000e   Code   RO         4039    i.drv_rtc_stop      drv_rtc.o
    0x00028bba   0x00028bba   0x000000fc   Code   RO         4044    i.drv_rtc_windowed_compare_set  drv_rtc.o
    0x00028cb6   0x00028cb6   0x00000018   Code   RO         4045    i.evt_disable       drv_rtc.o
    0x00028cce   0x00028cce   0x0000001c   Code   RO         4046    i.evt_enable        drv_rtc.o
    0x00028cea   0x00028cea   0x0000001c   Code   RO         4047    i.evt_pending       drv_rtc.o
    0x00028d06   0x00028d06   0x00000018   Code   RO         3571    i.fifo_get          app_fifo.o
    0x00028d1e   0x00028d1e   0x0000000a   Code   RO         3572    i.fifo_length       app_fifo.o
    0x00028d28   0x00028d28   0x0000000a   Code   RO         3868    i.fifo_length       app_uart_fifo.o
    0x00028d32   0x00028d32   0x00000012   Code   RO         3573    i.fifo_peek         app_fifo.o
    0x00028d44   0x00028d44   0x00000012   Code   RO         3574    i.fifo_put          app_fifo.o
    0x00028d56   0x00028d56   0x0000001e   Code   RO         1353    i.flag_toggle       ble_conn_state.o
    0x00028d74   0x00028d74   0x00000036   Code   RO          933    i.flags_encode      ble_advdata.o
    0x00028daa   0x00028daa   0x0000002c   Code   RO         1066    i.flags_set         ble_advertising.o
    0x00028dd6   0x00028dd6   0x00000010   Code   RO         5048    i.fputc             retarget.o
    0x00028de6   0x00028de6   0x00000002   PAD
    0x00028de8   0x00028de8   0x00000080   Code   RO           14    i.gap_params_init   main.o
    0x00028e68   0x00028e68   0x0000006c   Code   RO           15    i.gatt_evt_handler  main.o
    0x00028ed4   0x00028ed4   0x00000044   Code   RO           16    i.gatt_init         main.o
    0x00028f18   0x00028f18   0x0000003c   Code   RO         3713    i.get_now           app_timer2.o
    0x00028f54   0x00028f54   0x0000000e   Code   RO           17    i.idle_state_handle  main.o
    0x00028f62   0x00028f62   0x00000002   PAD
    0x00028f64   0x00028f64   0x0000002c   Code   RO         1231    i.instance_get      ble_conn_params.o
    0x00028f90   0x00028f90   0x000000be   Code   RO         4655    i.int_print         nrf_fprintf_format.o
    0x0002904e   0x0002904e   0x00000002   PAD
    0x00029050   0x00029050   0x00000094   Code   RO         2886    i.interrupts_enable  nrfx_uart.o
    0x000290e4   0x000290e4   0x000000b4   Code   RO         3131    i.interrupts_enable  nrfx_uarte.o
    0x00029198   0x00029198   0x00000046   Code   RO         5233    i.invalid_packets_omit  nrf_log_frontend.o
    0x000291de   0x000291de   0x00000072   Code   RO         1232    i.is_conn_params_ok  ble_conn_params.o
    0x00029250   0x00029250   0x0000000c   Code   RO         1925    i.item_dequeue      nrf_drv_clock.o
    0x0002925c   0x0002925c   0x00000026   Code   RO         2465    i.latch_pending_read_and_check  nrfx_gpiote.o
    0x00029282   0x00029282   0x00000002   PAD
    0x00029284   0x00029284   0x00000028   Code   RO          655    i.leds_off          bsp.o
    0x000292ac   0x000292ac   0x00000018   Code   RO         1927    i.lfclk_stop        nrf_drv_clock.o
    0x000292c4   0x000292c4   0x00000018   Code   RO         1625    i.link_init         nrf_ble_gatt.o
    0x000292dc   0x000292dc   0x00000026   Code   RO           18    i.log_init          main.o
    0x00029302   0x00029302   0x00000002   PAD
    0x00029304   0x00029304   0x000000cc   Code   RO         5234    i.log_skip          nrf_log_frontend.o
    0x000293d0   0x000293d0   0x000000a0   Code   RO           19    i.main              main.o
    0x00029470   0x00029470   0x00000076   Code   RO          934    i.manuf_specific_data_encode  ble_advdata.o
    0x000294e6   0x000294e6   0x000000ca   Code   RO         4699    i.memobj_op         nrf_memobj.o
    0x000295b0   0x000295b0   0x00000038   Code   RO         5235    i.module_idx_get    nrf_log_frontend.o
    0x000295e8   0x000295e8   0x000000c8   Code   RO          935    i.name_encode       ble_advdata.o
    0x000296b0   0x000296b0   0x00000028   Code   RO         4294    i.nrf_atfifo_init   nrf_atfifo.o
    0x000296d8   0x000296d8   0x0000001c   Code   RO         4295    i.nrf_atfifo_item_alloc  nrf_atfifo.o
    0x000296f4   0x000296f4   0x0000001c   Code   RO         4296    i.nrf_atfifo_item_free  nrf_atfifo.o
    0x00029710   0x00029710   0x0000001c   Code   RO         4297    i.nrf_atfifo_item_get  nrf_atfifo.o
    0x0002972c   0x0002972c   0x0000001c   Code   RO         4298    i.nrf_atfifo_item_put  nrf_atfifo.o
    0x00029748   0x00029748   0x0000001e   Code   RO         4363    i.nrf_atflags_clear  nrf_atflags.o
    0x00029766   0x00029766   0x0000001e   Code   RO         4368    i.nrf_atflags_get   nrf_atflags.o
    0x00029784   0x00029784   0x0000001e   Code   RO         4370    i.nrf_atflags_set   nrf_atflags.o
    0x000297a2   0x000297a2   0x0000000e   Code   RO         4431    i.nrf_atomic_flag_clear_fetch  nrf_atomic.o
    0x000297b0   0x000297b0   0x0000000e   Code   RO         4432    i.nrf_atomic_flag_set  nrf_atomic.o
    0x000297be   0x000297be   0x00000016   Code   RO         4434    i.nrf_atomic_u32_add  nrf_atomic.o
    0x000297d4   0x000297d4   0x00000016   Code   RO         4435    i.nrf_atomic_u32_and  nrf_atomic.o
    0x000297ea   0x000297ea   0x00000016   Code   RO         4438    i.nrf_atomic_u32_fetch_and  nrf_atomic.o
    0x00029800   0x00029800   0x00000016   Code   RO         4440    i.nrf_atomic_u32_fetch_store  nrf_atomic.o
    0x00029816   0x00029816   0x00000016   Code   RO         4444    i.nrf_atomic_u32_or  nrf_atomic.o
    0x0002982c   0x0002982c   0x00000016   Code   RO         4446    i.nrf_atomic_u32_sub  nrf_atomic.o
    0x00029842   0x00029842   0x00000052   Code   RO         4568    i.nrf_balloc_alloc  nrf_balloc.o
    0x00029894   0x00029894   0x00000010   Code   RO         4569    i.nrf_balloc_block2idx  nrf_balloc.o
    0x000298a4   0x000298a4   0x00000030   Code   RO         4570    i.nrf_balloc_free   nrf_balloc.o
    0x000298d4   0x000298d4   0x0000000c   Code   RO         4571    i.nrf_balloc_idx2block  nrf_balloc.o
    0x000298e0   0x000298e0   0x0000003c   Code   RO         4572    i.nrf_balloc_init   nrf_balloc.o
    0x0002991c   0x0002991c   0x00000016   Code   RO         2466    i.nrf_bitmask_bit_is_set  nrfx_gpiote.o
    0x00029932   0x00029932   0x0000001e   Code   RO         1627    i.nrf_ble_gatt_att_mtu_periph_set  nrf_ble_gatt.o
    0x00029950   0x00029950   0x00000034   Code   RO         1631    i.nrf_ble_gatt_init  nrf_ble_gatt.o
    0x00029984   0x00029984   0x00000108   Code   RO         1632    i.nrf_ble_gatt_on_ble_evt  nrf_ble_gatt.o
    0x00029a8c   0x00029a8c   0x00000020   Code   RO         1746    i.nrf_ble_qwr_conn_handle_assign  nrf_ble_qwr.o
    0x00029aac   0x00029aac   0x00000032   Code   RO         1747    i.nrf_ble_qwr_init  nrf_ble_qwr.o
    0x00029ade   0x00029ade   0x0000007c   Code   RO         1748    i.nrf_ble_qwr_on_ble_evt  nrf_ble_qwr.o
    0x00029b5a   0x00029b5a   0x00000012   Code   RO         2293    i.nrf_clock_event_check  nrfx_clock.o
    0x00029b6c   0x00029b6c   0x00000012   Code   RO         2294    i.nrf_clock_event_clear  nrfx_clock.o
    0x00029b7e   0x00029b7e   0x00000002   PAD
    0x00029b80   0x00029b80   0x0000000c   Code   RO         2295    i.nrf_clock_int_disable  nrfx_clock.o
    0x00029b8c   0x00029b8c   0x00000008   Code   RO         2297    i.nrf_clock_task_trigger  nrfx_clock.o
    0x00029b94   0x00029b94   0x0000004c   Code   RO         1933    i.nrf_drv_clock_init  nrf_drv_clock.o
    0x00029be0   0x00029be0   0x00000030   Code   RO         1937    i.nrf_drv_clock_lfclk_release  nrf_drv_clock.o
    0x00029c10   0x00029c10   0x0000008c   Code   RO         2098    i.nrf_drv_uart_init  nrf_drv_uart.o
    0x00029c9c   0x00029c9c   0x00000044   Code   RO         3869    i.nrf_drv_uart_rx   app_uart_fifo.o
    0x00029ce0   0x00029ce0   0x00000044   Code   RO         3870    i.nrf_drv_uart_tx   app_uart_fifo.o
    0x00029d24   0x00029d24   0x0000002a   Code   RO         4615    i.nrf_fprintf       nrf_fprintf.o
    0x00029d4e   0x00029d4e   0x0000001c   Code   RO         4616    i.nrf_fprintf_buffer_flush  nrf_fprintf.o
    0x00029d6a   0x00029d6a   0x000001f0   Code   RO         4656    i.nrf_fprintf_fmt   nrf_fprintf_format.o
    0x00029f5a   0x00029f5a   0x00000028   Code   RO         2887    i.nrf_gpio_cfg      nrfx_uart.o
    0x00029f82   0x00029f82   0x00000028   Code   RO         3132    i.nrf_gpio_cfg      nrfx_uarte.o
    0x00029faa   0x00029faa   0x0000001a   Code   RO         2889    i.nrf_gpio_cfg_input  nrfx_uart.o
    0x00029fc4   0x00029fc4   0x0000001a   Code   RO         3134    i.nrf_gpio_cfg_input  nrfx_uarte.o
    0x00029fde   0x00029fde   0x00000030   Code   RO           20    i.nrf_gpio_cfg_output  main.o
    0x0002a00e   0x0002a00e   0x00000018   Code   RO         2890    i.nrf_gpio_cfg_output  nrfx_uart.o
    0x0002a026   0x0002a026   0x00000018   Code   RO         3135    i.nrf_gpio_cfg_output  nrfx_uarte.o
    0x0002a03e   0x0002a03e   0x00000032   Code   RO         2469    i.nrf_gpio_cfg_sense_set  nrfx_gpiote.o
    0x0002a070   0x0002a070   0x00000034   Code   RO         2470    i.nrf_gpio_latches_read_and_clear  nrfx_gpiote.o
    0x0002a0a4   0x0002a0a4   0x00000016   Code   RO         2891    i.nrf_gpio_pin_set  nrfx_uart.o
    0x0002a0ba   0x0002a0ba   0x00000016   Code   RO         3136    i.nrf_gpio_pin_set  nrfx_uarte.o
    0x0002a0d0   0x0002a0d0   0x0000003a   Code   RO           21    i.nrf_gpio_pin_write  main.o
    0x0002a10a   0x0002a10a   0x0000003a   Code   RO          501    i.nrf_gpio_pin_write  boards.o
    0x0002a144   0x0002a144   0x0000000c   Code   RO         2475    i.nrf_gpiote_event_addr_get  nrfx_gpiote.o
    0x0002a150   0x0002a150   0x0000001c   Code   RO         2476    i.nrf_gpiote_event_clear  nrfx_gpiote.o
    0x0002a16c   0x0002a16c   0x00000016   Code   RO         2477    i.nrf_gpiote_event_is_set  nrfx_gpiote.o
    0x0002a182   0x0002a182   0x00000002   PAD
    0x0002a184   0x0002a184   0x00000054   Code   RO         5236    i.nrf_log_backend_add  nrf_log_frontend.o
    0x0002a1d8   0x0002a1d8   0x00000002   Code   RO         5084    i.nrf_log_backend_rtt_flush  nrf_log_backend_rtt.o
    0x0002a1da   0x0002a1da   0x00000008   Code   RO         5085    i.nrf_log_backend_rtt_init  nrf_log_backend_rtt.o
    0x0002a1e2   0x0002a1e2   0x00000002   Code   RO         5086    i.nrf_log_backend_rtt_panic_set  nrf_log_backend_rtt.o
    0x0002a1e4   0x0002a1e4   0x00000020   Code   RO         5087    i.nrf_log_backend_rtt_put  nrf_log_backend_rtt.o
    0x0002a204   0x0002a204   0x000000f2   Code   RO         5155    i.nrf_log_backend_serial_put  nrf_log_backend_serial.o
    0x0002a2f6   0x0002a2f6   0x00000002   PAD
    0x0002a2f8   0x0002a2f8   0x00000038   Code   RO         5238    i.nrf_log_color_id_get  nrf_log_frontend.o
    0x0002a330   0x0002a330   0x00000028   Code   RO         5189    i.nrf_log_default_backends_init  nrf_log_default_backends.o
    0x0002a358   0x0002a358   0x0000031c   Code   RO         5239    i.nrf_log_frontend_dequeue  nrf_log_frontend.o
    0x0002a674   0x0002a674   0x00000014   Code   RO         5241    i.nrf_log_frontend_std_0  nrf_log_frontend.o
    0x0002a688   0x0002a688   0x00000018   Code   RO         5242    i.nrf_log_frontend_std_1  nrf_log_frontend.o
    0x0002a6a0   0x0002a6a0   0x00000020   Code   RO         5243    i.nrf_log_frontend_std_2  nrf_log_frontend.o
    0x0002a6c0   0x0002a6c0   0x000000bc   Code   RO         5432    i.nrf_log_hexdump_entry_process  nrf_log_str_formatter.o
    0x0002a77c   0x0002a77c   0x00000048   Code   RO         5248    i.nrf_log_init      nrf_log_frontend.o
    0x0002a7c4   0x0002a7c4   0x00000014   Code   RO         5249    i.nrf_log_module_cnt_get  nrf_log_frontend.o
    0x0002a7d8   0x0002a7d8   0x00000024   Code   RO         5253    i.nrf_log_module_name_get  nrf_log_frontend.o
    0x0002a7fc   0x0002a7fc   0x00000034   Code   RO         5254    i.nrf_log_panic     nrf_log_frontend.o
    0x0002a830   0x0002a830   0x000000c8   Code   RO         5433    i.nrf_log_std_entry_process  nrf_log_str_formatter.o
    0x0002a8f8   0x0002a8f8   0x0000007a   Code   RO         4700    i.nrf_memobj_alloc  nrf_memobj.o
    0x0002a972   0x0002a972   0x00000040   Code   RO         4701    i.nrf_memobj_free   nrf_memobj.o
    0x0002a9b2   0x0002a9b2   0x00000010   Code   RO         4702    i.nrf_memobj_get    nrf_memobj.o
    0x0002a9c2   0x0002a9c2   0x0000000c   Code   RO         4703    i.nrf_memobj_pool_init  nrf_memobj.o
    0x0002a9ce   0x0002a9ce   0x0000001e   Code   RO         4704    i.nrf_memobj_put    nrf_memobj.o
    0x0002a9ec   0x0002a9ec   0x00000022   Code   RO         4705    i.nrf_memobj_read   nrf_memobj.o
    0x0002aa0e   0x0002aa0e   0x00000022   Code   RO         4706    i.nrf_memobj_write  nrf_memobj.o
    0x0002aa30   0x0002aa30   0x00000040   Code   RO         4779    i.nrf_pwr_mgmt_init  nrf_pwr_mgmt.o
    0x0002aa70   0x0002aa70   0x0000006c   Code   RO         4780    i.nrf_pwr_mgmt_run  nrf_pwr_mgmt.o
    0x0002aadc   0x0002aadc   0x00000010   Code   RO           22    i.nrf_qwr_error_handler  main.o
    0x0002aaec   0x0002aaec   0x0000001c   Code   RO         4865    i.nrf_ringbuf_init  nrf_ringbuf.o
    0x0002ab08   0x0002ab08   0x0000000c   Code   RO         4048    i.nrf_rtc_cc_get    drv_rtc.o
    0x0002ab14   0x0002ab14   0x0000000a   Code   RO         4049    i.nrf_rtc_cc_set    drv_rtc.o
    0x0002ab1e   0x0002ab1e   0x00000008   Code   RO         4050    i.nrf_rtc_counter_get  drv_rtc.o
    0x0002ab26   0x0002ab26   0x0000000e   Code   RO         4051    i.nrf_rtc_event_clear  drv_rtc.o
    0x0002ab34   0x0002ab34   0x00000006   Code   RO         4052    i.nrf_rtc_event_disable  drv_rtc.o
    0x0002ab3a   0x0002ab3a   0x00000006   Code   RO         4053    i.nrf_rtc_event_enable  drv_rtc.o
    0x0002ab40   0x0002ab40   0x00000006   Code   RO         4054    i.nrf_rtc_int_disable  drv_rtc.o
    0x0002ab46   0x0002ab46   0x00000006   Code   RO         4055    i.nrf_rtc_int_enable  drv_rtc.o
    0x0002ab4c   0x0002ab4c   0x00000006   Code   RO         4056    i.nrf_rtc_task_trigger  drv_rtc.o
    0x0002ab52   0x0002ab52   0x00000002   PAD
    0x0002ab54   0x0002ab54   0x00000018   Code   RO         5879    i.nrf_sdh_ble_app_ram_start_get  nrf_sdh_ble.o
    0x0002ab6c   0x0002ab6c   0x000001a0   Code   RO         5880    i.nrf_sdh_ble_default_cfg_set  nrf_sdh_ble.o
    0x0002ad0c   0x0002ad0c   0x0000014c   Code   RO         5881    i.nrf_sdh_ble_enable  nrf_sdh_ble.o
    0x0002ae58   0x0002ae58   0x00000074   Code   RO         5882    i.nrf_sdh_ble_evts_poll  nrf_sdh_ble.o
    0x0002aecc   0x0002aecc   0x00000084   Code   RO         5751    i.nrf_sdh_enable_request  nrf_sdh.o
    0x0002af50   0x0002af50   0x00000030   Code   RO         5752    i.nrf_sdh_evts_poll  nrf_sdh.o
    0x0002af80   0x0002af80   0x0000000c   Code   RO         5753    i.nrf_sdh_is_enabled  nrf_sdh.o
    0x0002af8c   0x0002af8c   0x00000054   Code   RO         5938    i.nrf_sdh_soc_evts_poll  nrf_sdh_soc.o
    0x0002afe0   0x0002afe0   0x00000006   Code   RO         5758    i.nrf_section_iter_get  nrf_sdh.o
    0x0002afe6   0x0002afe6   0x00000014   Code   RO         4923    i.nrf_section_iter_init  nrf_section_iter.o
    0x0002affa   0x0002affa   0x0000002e   Code   RO         4924    i.nrf_section_iter_item_set  nrf_section_iter.o
    0x0002b028   0x0002b028   0x0000002e   Code   RO         4925    i.nrf_section_iter_next  nrf_section_iter.o
    0x0002b056   0x0002b056   0x00000028   Code   RO         4958    i.nrf_sortlist_add  nrf_sortlist.o
    0x0002b07e   0x0002b07e   0x00000008   Code   RO         4960    i.nrf_sortlist_peek  nrf_sortlist.o
    0x0002b086   0x0002b086   0x00000018   Code   RO         4961    i.nrf_sortlist_pop  nrf_sortlist.o
    0x0002b09e   0x0002b09e   0x00000026   Code   RO         4962    i.nrf_sortlist_remove  nrf_sortlist.o
    0x0002b0c4   0x0002b0c4   0x00000040   Code   RO         5014    i.nrf_strerror_find  nrf_strerror.o
    0x0002b104   0x0002b104   0x0000001c   Code   RO         5015    i.nrf_strerror_get  nrf_strerror.o
    0x0002b120   0x0002b120   0x0000000c   Code   RO         2892    i.nrf_uart_errorsrc_get_and_clear  nrfx_uart.o
    0x0002b12c   0x0002b12c   0x0000000e   Code   RO         2893    i.nrf_uart_event_check  nrfx_uart.o
    0x0002b13a   0x0002b13a   0x0000000e   Code   RO         2894    i.nrf_uart_event_clear  nrfx_uart.o
    0x0002b148   0x0002b148   0x0000000a   Code   RO         2895    i.nrf_uart_hwfc_pins_set  nrfx_uart.o
    0x0002b152   0x0002b152   0x00000006   Code   RO         2896    i.nrf_uart_int_disable  nrfx_uart.o
    0x0002b158   0x0002b158   0x00000006   Code   RO         2897    i.nrf_uart_int_enable  nrfx_uart.o
    0x0002b15e   0x0002b15e   0x00000012   Code   RO         2898    i.nrf_uart_int_enable_check  nrfx_uart.o
    0x0002b170   0x0002b170   0x00000006   Code   RO         2899    i.nrf_uart_task_trigger  nrfx_uart.o
    0x0002b176   0x0002b176   0x0000000a   Code   RO         2900    i.nrf_uart_txrx_pins_set  nrfx_uart.o
    0x0002b180   0x0002b180   0x0000000c   Code   RO         3137    i.nrf_uarte_errorsrc_get_and_clear  nrfx_uarte.o
    0x0002b18c   0x0002b18c   0x0000000e   Code   RO         3138    i.nrf_uarte_event_check  nrfx_uarte.o
    0x0002b19a   0x0002b19a   0x0000000e   Code   RO         3139    i.nrf_uarte_event_clear  nrfx_uarte.o
    0x0002b1a8   0x0002b1a8   0x0000000c   Code   RO         3140    i.nrf_uarte_hwfc_pins_set  nrfx_uarte.o
    0x0002b1b4   0x0002b1b4   0x00000006   Code   RO         3141    i.nrf_uarte_int_disable  nrfx_uarte.o
    0x0002b1ba   0x0002b1ba   0x00000006   Code   RO         3142    i.nrf_uarte_int_enable  nrfx_uarte.o
    0x0002b1c0   0x0002b1c0   0x0000000a   Code   RO         3143    i.nrf_uarte_rx_amount_get  nrfx_uarte.o
    0x0002b1ca   0x0002b1ca   0x0000000c   Code   RO         3144    i.nrf_uarte_shorts_disable  nrfx_uarte.o
    0x0002b1d6   0x0002b1d6   0x00000006   Code   RO         3145    i.nrf_uarte_task_trigger  nrfx_uarte.o
    0x0002b1dc   0x0002b1dc   0x0000000a   Code   RO         3146    i.nrf_uarte_tx_amount_get  nrfx_uarte.o
    0x0002b1e6   0x0002b1e6   0x0000000e   Code   RO         3147    i.nrf_uarte_txrx_pins_set  nrfx_uarte.o
    0x0002b1f4   0x0002b1f4   0x00000014   Code   RO         1940    i.nrf_wdt_started   nrf_drv_clock.o
    0x0002b208   0x0002b208   0x00000014   Code   RO         2303    i.nrfx_clock_enable  nrfx_clock.o
    0x0002b21c   0x0002b21c   0x00000024   Code   RO         2306    i.nrfx_clock_init   nrfx_clock.o
    0x0002b240   0x0002b240   0x0000002c   Code   RO         2309    i.nrfx_clock_lfclk_stop  nrfx_clock.o
    0x0002b26c   0x0002b26c   0x00000018   Code   RO         4057    i.nrfx_coredep_delay_us  drv_rtc.o
    0x0002b284   0x0002b284   0x00000008   Code   RO         2311    i.nrfx_get_irq_number  nrfx_clock.o
    0x0002b28c   0x0002b28c   0x00000008   Code   RO         2901    i.nrfx_get_irq_number  nrfx_uart.o
    0x0002b294   0x0002b294   0x00000008   Code   RO         3148    i.nrfx_get_irq_number  nrfx_uarte.o
    0x0002b29c   0x0002b29c   0x00000014   Code   RO         3149    i.nrfx_is_in_ram    nrfx_uarte.o
    0x0002b2b0   0x0002b2b0   0x000000b0   Code   RO         2312    i.nrfx_power_clock_irq_init  nrfx_clock.o
    0x0002b360   0x0002b360   0x0000004e   Code   RO         2831    i.nrfx_prs_acquire  nrfx_prs.o
    0x0002b3ae   0x0002b3ae   0x00000002   PAD
    0x0002b3b0   0x0002b3b0   0x00000014   Code   RO         2902    i.nrfx_uart_0_irq_handler  nrfx_uart.o
    0x0002b3c4   0x0002b3c4   0x00000088   Code   RO         2904    i.nrfx_uart_init    nrfx_uart.o
    0x0002b44c   0x0002b44c   0x00000124   Code   RO         2905    i.nrfx_uart_rx      nrfx_uart.o
    0x0002b570   0x0002b570   0x0000008c   Code   RO         2910    i.nrfx_uart_tx      nrfx_uart.o
    0x0002b5fc   0x0002b5fc   0x00000024   Code   RO         2912    i.nrfx_uart_tx_in_progress  nrfx_uart.o
    0x0002b620   0x0002b620   0x00000014   Code   RO         3150    i.nrfx_uarte_0_irq_handler  nrfx_uarte.o
    0x0002b634   0x0002b634   0x00000080   Code   RO         3152    i.nrfx_uarte_init   nrfx_uarte.o
    0x0002b6b4   0x0002b6b4   0x00000138   Code   RO         3153    i.nrfx_uarte_rx     nrfx_uarte.o
    0x0002b7ec   0x0002b7ec   0x000000c0   Code   RO         3156    i.nrfx_uarte_tx     nrfx_uarte.o
    0x0002b8ac   0x0002b8ac   0x00000020   Code   RO         3158    i.nrfx_uarte_tx_in_progress  nrfx_uarte.o
    0x0002b8cc   0x0002b8cc   0x00000014   Code   RO         6348    i.nvmc_config       system_nrf52.o
    0x0002b8e0   0x0002b8e0   0x00000010   Code   RO         6349    i.nvmc_wait         system_nrf52.o
    0x0002b8f0   0x0002b8f0   0x00000032   Code   RO           23    i.on_adv_evt        main.o
    0x0002b922   0x0002b922   0x00000002   PAD
    0x0002b924   0x0002b924   0x00000014   Code   RO         3714    i.on_compare1_evt   app_timer2.o
    0x0002b938   0x0002b938   0x00000020   Code   RO         3715    i.on_compare_evt    app_timer2.o
    0x0002b958   0x0002b958   0x0000002c   Code   RO           24    i.on_conn_params_evt  main.o
    0x0002b984   0x0002b984   0x00000030   Code   RO         1233    i.on_conn_params_update  ble_conn_params.o
    0x0002b9b4   0x0002b9b4   0x00000070   Code   RO         1234    i.on_connect        ble_conn_params.o
    0x0002ba24   0x0002ba24   0x000000cc   Code   RO           25    i.on_connected      main.o
    0x0002baf0   0x0002baf0   0x0000000e   Code   RO         1067    i.on_connected      ble_advertising.o
    0x0002bafe   0x0002bafe   0x00000002   PAD
    0x0002bb00   0x0002bb00   0x000000c4   Code   RO         1633    i.on_connected_evt  nrf_ble_gatt.o
    0x0002bbc4   0x0002bbc4   0x00000054   Code   RO         1634    i.on_data_length_update_evt  nrf_ble_gatt.o
    0x0002bc18   0x0002bc18   0x00000030   Code   RO         1635    i.on_data_length_update_request_evt  nrf_ble_gatt.o
    0x0002bc48   0x0002bc48   0x00000070   Code   RO           26    i.on_disconnect     main.o
    0x0002bcb8   0x0002bcb8   0x00000032   Code   RO         1235    i.on_disconnect     ble_conn_params.o
    0x0002bcea   0x0002bcea   0x00000032   Code   RO         1068    i.on_disconnected   ble_advertising.o
    0x0002bd1c   0x0002bd1c   0x00000014   Code   RO         1636    i.on_disconnected_evt  nrf_ble_gatt.o
    0x0002bd30   0x0002bd30   0x000000c8   Code   RO         1637    i.on_exchange_mtu_request_evt  nrf_ble_gatt.o
    0x0002bdf8   0x0002bdf8   0x00000064   Code   RO         1638    i.on_exchange_mtu_rsp_evt  nrf_ble_gatt.o
    0x0002be5c   0x0002be5c   0x0000001c   Code   RO         3716    i.on_overflow_evt   app_timer2.o
    0x0002be78   0x0002be78   0x0000002e   Code   RO         1874    i.on_read           cus_service.o
    0x0002bea6   0x0002bea6   0x0000006a   Code   RO         1749    i.on_rw_authorize_request  nrf_ble_qwr.o
    0x0002bf10   0x0002bf10   0x00000040   Code   RO         1069    i.on_terminated     ble_advertising.o
    0x0002bf50   0x0002bf50   0x00000002   Code   RO         1750    i.on_user_mem_release  nrf_ble_qwr.o
    0x0002bf52   0x0002bf52   0x00000020   Code   RO         1751    i.on_user_mem_request  nrf_ble_qwr.o
    0x0002bf72   0x0002bf72   0x00000002   PAD
    0x0002bf74   0x0002bf74   0x00000058   Code   RO         1236    i.on_write          ble_conn_params.o
    0x0002bfcc   0x0002bfcc   0x0000006a   Code   RO         1875    i.on_write          cus_service.o
    0x0002c036   0x0002c036   0x00000016   Code   RO         1070    i.phy_is_valid      ble_advertising.o
    0x0002c04c   0x0002c04c   0x000000c0   Code   RO         2516    i.port_event_handle  nrfx_gpiote.o
